{
  "block_hash": "000000000000001bf41cff06b76780050682ca29e61a91c391893d4745579777",
  "block_hex": "000000201513035c71c6e23e7ee95c735b5ad3290580d55276245561190000000000000075a193670c66e37e3a0a452e18bdbd57df97737e8cd3e93ed2bc79f4baef342ea2477b65b31562191ec125ff0503000500010000000000000000000000000000000000000000000000000000000000000000ffffffff3303c0541e04a2477b652f706f6f6c696e2e636f6d2f1b164b4aad0dada323b34d5974509fb808a79bb74b009a1c000000000000ffffffff0212982d09000000001976a91453dc8bffae84a3851ab9fe296417da85d5e7185888acb1320f03000000001976a91470aaa971ab824a09261bd481d3273e688b23db1b88ac00000000af0300c0541e00646933363639497c21aec1a0a44cfe30aaf8e7b9e7d5cc88aa719dc9af6a0e45ab254c33a9eabf49ef2a7acd528cdb411bb0a381e269262a53aa45e57199564401af04f5c9fcb51e5a2fde92d0ae2473679142a91079c3ee043af1011d54c5897c955ec99f8d2f1ed331af8b76bfa3f9d5074646f6248e39787d8f7371c12e0f707a1dd7771e21c2638cad259dba557b8e67daea486085e5d14875140fea5474350000000000000000020000000ee065422b4cf9398df83840d4cecf7180047916ddb59a54ddac613a7d207d0929060000006a473044022073b8d2ba4fa0ac660704ac3739deee672e6ffd9bcafa301d9399aa5ff49d73dd02202971976a22b89b149a8727d0904fbda493b2b150e2075dcb5f3fa566d77272108121031cb568ce41442731b801ae47e2c791b9a79d1808a7df14fc1de214fba62046aeffffffff9cdf6d3dc9ca1d45715032daa1e6f0a7494d9466b001af64f5e38ccf4c13362c080000006a47304402205aa81fb0ca4792ccb6120fd9c97dd14ec13def61f084f7d02e394ad8c204c0a102205bda68902e3a72d770407ebf91fb5bfb3bbfd1aead228c5835b31caed83ac5a98121037ea7ed2d1e9a39ffb2a83539ae513836c9b9c86cbe68a17a84e24b3b6dec0ed0ffffffff17215be2b786ceeb74dcfe2b7e444bd5d3e64b3d4604c6e760782aa5db5d3f36040000006a47304402202ebb9afb8e00c5cd5757391da405a08bdfcea931daf2ee59acf8fbdcf969f9cb02203397048eb42596d6e49844772e2eb1f1371e9ab1bec2b05fabf0dc6271a0ccbe812102fa21e8bf70c620ff9136702a205c7633e55dbf2a7bfaf91039535f8974df9fa2ffffffff651de42d0ad983859d90cab7693ca58dc6ce7942abade79dfeee8dc87ae1af44030000006a47304402203ab961961556507699501d2ea4b9e9460c32620f40e5295112d6dbf0ae4a946e02202f693374032acc8558e0753261ecc21e1fd3afbc1647c424cefafb363cd20acc812102f41917fa1c2df8dbfb729896e62cab3ccdfd90c80ce214e31df1bd4b88546176ffffffffbbf43d563fee4afa9819a2765db123af210443d9a9ef305064edd00b2dc6a48d000000006a473044022009d78c5a91d5917d9d9aa7c10151bf8d4af014617d96c7f6391e959afe8f9db002202970b0cc033ed9766a8585ce47232e6598dc11d545f6d34f7fc64fa3187d440f812103c3d553380dda06f7b8f665be6ee12455d6cfb8a28f1781010ab5c53e02c8a1a5ffffffffbbf43d563fee4afa9819a2765db123af210443d9a9ef305064edd00b2dc6a48d050000006a47304402207e7c1feb84e77133c856e16190b8df9f7dee7f5045e52e346f3da94c092fbf03022024cb7b94e7bf2ba6e867659fb4a14bf7fc0987ab6bc799ec64ab0aa806b1bebb8121039c13777aa4723dadb724169d660384de0836bec09bd33dcc0041302c830c5ac0ffffffffbbf43d563fee4afa9819a2765db123af210443d9a9ef305064edd00b2dc6a48d0a0000006a473044022053459b6f00dc946aadab4404b5dd9a0372cc94c3b9171f72e64e3563b6663f7d022021f3a8dd99ce02bbe921cb9f15dbb843b028c6bd14e0f06847f011ed9c37e2e68121032264eb9e56f56df643574c8c9dbf855f393395ae7f651673666a5afe22c2742bffffffff8c9b681673d3255ee0fc16156eafc6e49aa471db88dc256d2f150f265abdaf8d020000006a47304402206e2b63d85d8216824e7926d3c995c0036267e765d358f662fcb39c91b3598ca602205d0515077168cc33c50e88288f24f5bf35567fbc5645b49beb258e902f2f97df812103c37c4a9b83d03db90b902552a72e6c7d3e2a92ddca2ccde5665d906a676a104effffffff35f67abf7a1530e84e47fe2158dc758cf4dee52ffc381cf910f994767d1ad8a9000000006a47304402204217d9a53f332a8a474b1b2d94e735405d88355867a1a6612ab51d1a1224e6f302207d7c5384ab57da4dd604de65edbbb610887d2a4b28697dcd7505a62e709baa8181210292f9ebdd1b736064eff69b863d5cfc3d573063a408bc4aa3b1080a692ce50b8fffffffffd67644e0807644b4132704c7718b23bd02741cd0eb810d5bbfa9be90b76790ca060000006a473044022059a5c57c150853eaa7f32eb5f1b663876762dc3045ee6d7c94b88d3941b5bd6a022033d9bd80fbf385f0c9321a9cc4ec80ccb630504ec502f34e17f31435dbebecd181210264682f925f25dfa67d519354638a42eeb46e0f9a8af86f7ad5868246227fe6b1ffffffffd67644e0807644b4132704c7718b23bd02741cd0eb810d5bbfa9be90b76790ca080000006a4730440220187c4201b249144f4bfae6e242d0685df02c7edc682e7d979a6e1817dc0d676002200d79063d9dacc21df80640eba3ecdf1d2db0b27c85ad4592165aa4441d093b9b8121031204b30e3779a340fcd47b2e87418d32c6bba55739791ea4a6d948c203567389ffffffff6bc4af7ad1bbef0eb7d7961a307ac4a36e92cd1778e06477d12b09a107809fd7000000006a47304402200ed64108a3b3e552b1c27e5a471073f73f554b7f78c8686ac238be8180f802800220404aa029cc709e17425efb8042e9b1276a3081919b28a28dfc0ccad082ebfce98121026d7d366d6da8697cf418069f514d26876a7821973c4ff767b250f0fb63b4b5d3ffffffffdd3e9d17b883b794f9a3a5d4394cf457d62c0d600d04f84d2d36208fe1a5d4df070000006a4730440220112d8f3235b220c769ca75b4d597f6eb92979a0b9d3e6f1e8b1bb6d6a2b4d2f802204eab2d1782991f5d3860ac7b1db864c8b7966fa44ae8c8ea80cc27180abecee4812102676a4a31232f17a26a86af03b243f12e64c9ee9c62d00e95953124f83af4383effffffff7c07c2523ac5e96bdc158b747bea292d2f2a0f9fe819e5180cfd0b1bf544e2f4030000006a473044022026d9bbada4a83c3cfe62592069db1e1ef140e918f239946d88aab3eaccfc82c302202b5f80dc988ca8d47602fd5cd37a63141c0785949b568371cf15ebe4511548e9812103e2daec40b24ffaff4075810a9caee957a935faa0292519e519e234e6f71c71ecffffffff0e4a420f00000000001976a9144b7f66bc22cbd828dd9c82c60d7ac9cb2c38d8fd88ac4a420f00000000001976a9145b2ebeba083aa4f549d6a1b25dab37bff3d91fb188ac4a420f00000000001976a9147b0db151e1c15f8d911fd9decc7122682f74ef6b88ac4a420f00000000001976a914917008670c84640702ca1bb041973314296642b888ac4a420f00000000001976a914b5ea4ca583b50a2becce1b95b57c517fb06275ea88ac4a420f00000000001976a914bf1b2fadc154394f01de732f0750435ef58d826788ac4a420f00000000001976a914c45843419bd9997b1780afb9acb6b8d6e0f569ad88ac4a420f00000000001976a914ccde0ab2dffce542fd4a031eb962a915af33f05088ac4a420f00000000001976a914d0371f4300a141c9dd37b80cc74a1a2db59625ea88ac4a420f00000000001976a914da529654a0247511e81f3a75affa99525f1ed7dd88ac4a420f00000000001976a914df080fbddbc3512710e4bbd2abcf7b991fda74f088ac4a420f00000000001976a914f18123ccc26dd31faf9047d8bb996d69a4f48ad788ac4a420f00000000001976a914f75c66fb4e58da447513db3f2cf98ba666c0855b88ac4a420f00000000001976a914fb0a8f6d3b91d0f6bf6fd85c97b705e0d5734ea588ac00000000030000000113f1c90613348e8d23fe9767a4af324e4dca5fd5caa31b4251ebabcc3edcd7cf010000006a4730440220746cf298e87b930d3a47b937dad4f1b78a120ee5b6891a5e8d95f75e4ca389b4022023269659419a7dc65d1db80f80f29aedb18cabe9b99844fef21fd16033a3bede0121033ec6c5e9dd3e908f95d752da02dcf4299607fdb1f8e079b0c4cf97baceff1b25ffffffff02a1b75c04000000001976a9146fdd1f6cc86765f2cd051bf2cc1ad20df2decba788ac45c2bb7d000000001976a914f212a80235c7a12b35788d640b28d24fd1ef4bc488ac0000000001000000010d47e51e161034f85c6af983faec2b31d1ba852ff89e1306cddf1db6cbcc71eb000000006b483045022100cb87ed34bbfa202a8a6372d2ec60f29615f237282c48d202fb678d64397d686b02201a2fed4545ce75faf486837bacdecda2d50d390732d794f39461ec67c1c55f28012102052e4cc38648ab998e59f57be9f267a0002a8dca93724e2c20879e905799710fffffffff02422b62c4000000001976a9143439c79680889cbfc7697e6de5e944f16dfcf8e488ac70136c04000000001976a9145e8b236e6fc706bbd0e3ad13f243ed494b00271b88ac0000000001000000019c63c0ca0c70b576dc7b6e7bf8195109ee2f30f5ecdd70e3903ff1504ac010a0000000006a4730440220535a78faf9d789b4271f43c282c4adf8401857f136ed5c887491d1d76296798702204a017e8273ea3b10c9e73a283458a20037cf020f698d33f534172453fa693d250121036d4de163518da015ef36719e70f60f0727f04d7b79793ecb93cce72cb560b7a6ffffffff01156dcd11000000001976a914dfa1799ae55f2338de0bc3067ada0c456c4d66a988ac00000000",
  "block_verbose": {
    "bits": "196215b3",
    "cbTx": {
      "bestCLHeightDiff": 1,
      "bestCLSignature": "af04f5c9fcb51e5a2fde92d0ae2473679142a91079c3ee043af1011d54c5897c955ec99f8d2f1ed331af8b76bfa3f9d5074646f6248e39787d8f7371c12e0f707a1dd7771e21c2638cad259dba557b8e67daea486085e5d14875140fea547435",
      "creditPoolBalance": 0.0,
      "height": 1987776,
      "merkleRootMNList": "450e6aafc99d71aa88ccd5e7b9e7f8aa30fe4ca4a0c1ae217c49393636336964",
      "merkleRootQuorums": "44569971e545aa532a2669e281a3b01b41db8c52cd7a2aef49bfeaa9334c25ab",
      "version": 3
    },
    "chainlock": true,
    "chainwork": "000000000000000000000000000000000000000000008ebdedb3a296691c2767",
    "confirmations": 485359,
    "difficulty": 43787655.15992248,
    "hash": "000000000000001bf41cff06b76780050682ca29e61a91c391893d4745579777",
    "height": 1987776,
    "mediantime": 1702577558,
    "merkleroot": "2e34efbaf479bcd23ee9d38c7e7397df57bdbd182e450a3a7ee3660c6793a175",
    "nTx": 5,
    "nextblockhash": "000000000000005dd39e8220a083c32f303880cdce10c78fc706e850c0379da4",
    "nonce": 4280664350,
    "previousblockhash": "00000000000000196155247652d5800529d35a5b735ce97e3ee2c6715c031315",
    "size": 3613,
    "time": 1702578082,
    "tx": [
      {
        "cbTx": {
          "bestCLHeightDiff": 1,
          "bestCLSignature": "af04f5c9fcb51e5a2fde92d0ae2473679142a91079c3ee043af1011d54c5897c955ec99f8d2f1ed331af8b76bfa3f9d5074646f6248e39787d8f7371c12e0f707a1dd7771e21c2638cad259dba557b8e67daea486085e5d14875140fea547435",
          "creditPoolBalance": 0.0,
          "height": 1987776,
          "merkleRootMNList": "450e6aafc99d71aa88ccd5e7b9e7f8aa30fe4ca4a0c1ae217c49393636336964",
          "merkleRootQuorums": "44569971e545aa532a2669e281a3b01b41db8c52cd7a2aef49bfeaa9334c25ab",
          "version": 3
        },
        "extraPayload": "0300c0541e00646933363639497c21aec1a0a44cfe30aaf8e7b9e7d5cc88aa719dc9af6a0e45ab254c33a9eabf49ef2a7acd528cdb411bb0a381e269262a53aa45e57199564401af04f5c9fcb51e5a2fde92d0ae2473679142a91079c3ee043af1011d54c5897c955ec99f8d2f1ed331af8b76bfa3f9d5074646f6248e39787d8f7371c12e0f707a1dd7771e21c2638cad259dba557b8e67daea486085e5d14875140fea5474350000000000000000",
        "extraPayloadSize": 175,
        "hex": "03000500010000000000000000000000000000000000000000000000000000000000000000ffffffff3303c0541e04a2477b652f706f6f6c696e2e636f6d2f1b164b4aad0dada323b34d5974509fb808a79bb74b009a1c000000000000ffffffff0212982d09000000001976a91453dc8bffae84a3851ab9fe296417da85d5e7185888acb1320f03000000001976a91470aaa971ab824a09261bd481d3273e688b23db1b88ac00000000af0300c0541e00646933363639497c21aec1a0a44cfe30aaf8e7b9e7d5cc88aa719dc9af6a0e45ab254c33a9eabf49ef2a7acd528cdb411bb0a381e269262a53aa45e57199564401af04f5c9fcb51e5a2fde92d0ae2473679142a91079c3ee043af1011d54c5897c955ec99f8d2f1ed331af8b76bfa3f9d5074646f6248e39787d8f7371c12e0f707a1dd7771e21c2638cad259dba557b8e67daea486085e5d14875140fea5474350000000000000000",
        "instantlock": true,
        "instantlock_internal": false,
        "locktime": 0,
        "size": 346,
        "txid": "2ffa3a8e5a5d1e90e5c09d3e9734c4b27bb28a963d10e45bce8b5504b1cd7e07",
        "type": 5,
        "version": 3,
        "vin": [
          {
            "coinbase": "03c0541e04a2477b652f706f6f6c696e2e636f6d2f1b164b4aad0dada323b34d5974509fb808a79bb74b009a1c000000000000",
            "sequence": 4294967295
          }
        ],
        "vout": [
          {
            "n": 0,
            "scriptPubKey": {
              "address": "XiLG83Jj8reHt7YH4H4JQ16q7c2q78KCSz",
              "asm": "OP_DUP OP_HASH160 53dc8bffae84a3851ab9fe296417da85d5e71858 OP_EQUALVERIFY OP_CHECKSIG",
              "desc": "addr(XiLG83Jj8reHt7YH4H4JQ16q7c2q78KCSz)#c3q6jl8h",
              "hex": "76a91453dc8bffae84a3851ab9fe296417da85d5e7185888ac",
              "type": "pubkeyhash"
            },
            "value": 1.53982994,
            "valueSat": 153982994
          },
          {
            "n": 1,
            "scriptPubKey": {
              "address": "XkxZxXxNBGXzQjPRfGzwjw27uB4hzmkHv6",
              "asm": "OP_DUP OP_HASH160 70aaa971ab824a09261bd481d3273e688b23db1b OP_EQUALVERIFY OP_CHECKSIG",
              "desc": "addr(XkxZxXxNBGXzQjPRfGzwjw27uB4hzmkHv6)#m5xt9g9v",
              "hex": "76a91470aaa971ab824a09261bd481d3273e688b23db1b88ac",
              "type": "pubkeyhash"
            },
            "value": 0.51327665,
            "valueSat": 51327665
          }
        ]
      },
      {
        "fee": 0.0,
        "hex": "020000000ee065422b4cf9398df83840d4cecf7180047916ddb59a54ddac613a7d207d0929060000006a473044022073b8d2ba4fa0ac660704ac3739deee672e6ffd9bcafa301d9399aa5ff49d73dd02202971976a22b89b149a8727d0904fbda493b2b150e2075dcb5f3fa566d77272108121031cb568ce41442731b801ae47e2c791b9a79d1808a7df14fc1de214fba62046aeffffffff9cdf6d3dc9ca1d45715032daa1e6f0a7494d9466b001af64f5e38ccf4c13362c080000006a47304402205aa81fb0ca4792ccb6120fd9c97dd14ec13def61f084f7d02e394ad8c204c0a102205bda68902e3a72d770407ebf91fb5bfb3bbfd1aead228c5835b31caed83ac5a98121037ea7ed2d1e9a39ffb2a83539ae513836c9b9c86cbe68a17a84e24b3b6dec0ed0ffffffff17215be2b786ceeb74dcfe2b7e444bd5d3e64b3d4604c6e760782aa5db5d3f36040000006a47304402202ebb9afb8e00c5cd5757391da405a08bdfcea931daf2ee59acf8fbdcf969f9cb02203397048eb42596d6e49844772e2eb1f1371e9ab1bec2b05fabf0dc6271a0ccbe812102fa21e8bf70c620ff9136702a205c7633e55dbf2a7bfaf91039535f8974df9fa2ffffffff651de42d0ad983859d90cab7693ca58dc6ce7942abade79dfeee8dc87ae1af44030000006a47304402203ab961961556507699501d2ea4b9e9460c32620f40e5295112d6dbf0ae4a946e02202f693374032acc8558e0753261ecc21e1fd3afbc1647c424cefafb363cd20acc812102f41917fa1c2df8dbfb729896e62cab3ccdfd90c80ce214e31df1bd4b88546176ffffffffbbf43d563fee4afa9819a2765db123af210443d9a9ef305064edd00b2dc6a48d000000006a473044022009d78c5a91d5917d9d9aa7c10151bf8d4af014617d96c7f6391e959afe8f9db002202970b0cc033ed9766a8585ce47232e6598dc11d545f6d34f7fc64fa3187d440f812103c3d553380dda06f7b8f665be6ee12455d6cfb8a28f1781010ab5c53e02c8a1a5ffffffffbbf43d563fee4afa9819a2765db123af210443d9a9ef305064edd00b2dc6a48d050000006a47304402207e7c1feb84e77133c856e16190b8df9f7dee7f5045e52e346f3da94c092fbf03022024cb7b94e7bf2ba6e867659fb4a14bf7fc0987ab6bc799ec64ab0aa806b1bebb8121039c13777aa4723dadb724169d660384de0836bec09bd33dcc0041302c830c5ac0ffffffffbbf43d563fee4afa9819a2765db123af210443d9a9ef305064edd00b2dc6a48d0a0000006a473044022053459b6f00dc946aadab4404b5dd9a0372cc94c3b9171f72e64e3563b6663f7d022021f3a8dd99ce02bbe921cb9f15dbb843b028c6bd14e0f06847f011ed9c37e2e68121032264eb9e56f56df643574c8c9dbf855f393395ae7f651673666a5afe22c2742bffffffff8c9b681673d3255ee0fc16156eafc6e49aa471db88dc256d2f150f265abdaf8d020000006a47304402206e2b63d85d8216824e7926d3c995c0036267e765d358f662fcb39c91b3598ca602205d0515077168cc33c50e88288f24f5bf35567fbc5645b49beb258e902f2f97df812103c37c4a9b83d03db90b902552a72e6c7d3e2a92ddca2ccde5665d906a676a104effffffff35f67abf7a1530e84e47fe2158dc758cf4dee52ffc381cf910f994767d1ad8a9000000006a47304402204217d9a53f332a8a474b1b2d94e735405d88355867a1a6612ab51d1a1224e6f302207d7c5384ab57da4dd604de65edbbb610887d2a4b28697dcd7505a62e709baa8181210292f9ebdd1b736064eff69b863d5cfc3d573063a408bc4aa3b1080a692ce50b8fffffffffd67644e0807644b4132704c7718b23bd02741cd0eb810d5bbfa9be90b76790ca060000006a473044022059a5c57c150853eaa7f32eb5f1b663876762dc3045ee6d7c94b88d3941b5bd6a022033d9bd80fbf385f0c9321a9cc4ec80ccb630504ec502f34e17f31435dbebecd181210264682f925f25dfa67d519354638a42eeb46e0f9a8af86f7ad5868246227fe6b1ffffffffd67644e0807644b4132704c7718b23bd02741cd0eb810d5bbfa9be90b76790ca080000006a4730440220187c4201b249144f4bfae6e242d0685df02c7edc682e7d979a6e1817dc0d676002200d79063d9dacc21df80640eba3ecdf1d2db0b27c85ad4592165aa4441d093b9b8121031204b30e3779a340fcd47b2e87418d32c6bba55739791ea4a6d948c203567389ffffffff6bc4af7ad1bbef0eb7d7961a307ac4a36e92cd1778e06477d12b09a107809fd7000000006a47304402200ed64108a3b3e552b1c27e5a471073f73f554b7f78c8686ac238be8180f802800220404aa029cc709e17425efb8042e9b1276a3081919b28a28dfc0ccad082ebfce98121026d7d366d6da8697cf418069f514d26876a7821973c4ff767b250f0fb63b4b5d3ffffffffdd3e9d17b883b794f9a3a5d4394cf457d62c0d600d04f84d2d36208fe1a5d4df070000006a4730440220112d8f3235b220c769ca75b4d597f6eb92979a0b9d3e6f1e8b1bb6d6a2b4d2f802204eab2d1782991f5d3860ac7b1db864c8b7966fa44ae8c8ea80cc27180abecee4812102676a4a31232f17a26a86af03b243f12e64c9ee9c62d00e95953124f83af4383effffffff7c07c2523ac5e96bdc158b747bea292d2f2a0f9fe819e5180cfd0b1bf544e2f4030000006a473044022026d9bbada4a83c3cfe62592069db1e1ef140e918f239946d88aab3eaccfc82c302202b5f80dc988ca8d47602fd5cd37a63141c0785949b568371cf15ebe4511548e9812103e2daec40b24ffaff4075810a9caee957a935faa0292519e519e234e6f71c71ecffffffff0e4a420f00000000001976a9144b7f66bc22cbd828dd9c82c60d7ac9cb2c38d8fd88ac4a420f00000000001976a9145b2ebeba083aa4f549d6a1b25dab37bff3d91fb188ac4a420f00000000001976a9147b0db151e1c15f8d911fd9decc7122682f74ef6b88ac4a420f00000000001976a914917008670c84640702ca1bb041973314296642b888ac4a420f00000000001976a914b5ea4ca583b50a2becce1b95b57c517fb06275ea88ac4a420f00000000001976a914bf1b2fadc154394f01de732f0750435ef58d826788ac4a420f00000000001976a914c45843419bd9997b1780afb9acb6b8d6e0f569ad88ac4a420f00000000001976a914ccde0ab2dffce542fd4a031eb962a915af33f05088ac4a420f00000000001976a914d0371f4300a141c9dd37b80cc74a1a2db59625ea88ac4a420f00000000001976a914da529654a0247511e81f3a75affa99525f1ed7dd88ac4a420f00000000001976a914df080fbddbc3512710e4bbd2abcf7b991fda74f088ac4a420f00000000001976a914f18123ccc26dd31faf9047d8bb996d69a4f48ad788ac4a420f00000000001976a914f75c66fb4e58da447513db3f2cf98ba666c0855b88ac4a420f00000000001976a914fb0a8f6d3b91d0f6bf6fd85c97b705e0d5734ea588ac00000000",
        "instantlock": true,
        "instantlock_internal": false,
        "locktime": 0,
        "size": 2544,
        "txid": "e8bb7b4a7cfa71db227179c69b8900d7d3fbc9c439971a8137ddabe8c052e846",
        "type": 0,
        "version": 2,
        "vin": [
          {
            "scriptSig": {
              "asm": "3044022073b8d2ba4fa0ac660704ac3739deee672e6ffd9bcafa301d9399aa5ff49d73dd02202971976a22b89b149a8727d0904fbda493b2b150e2075dcb5f3fa566d7727210[ALL|ANYONECANPAY] 031cb568ce41442731b801ae47e2c791b9a79d1808a7df14fc1de214fba62046ae",
              "hex": "473044022073b8d2ba4fa0ac660704ac3739deee672e6ffd9bcafa301d9399aa5ff49d73dd02202971976a22b89b149a8727d0904fbda493b2b150e2075dcb5f3fa566d77272108121031cb568ce41442731b801ae47e2c791b9a79d1808a7df14fc1de214fba62046ae"
            },
            "sequence": 4294967295,
            "txid": "29097d207d3a61acdd549ab5dd1679048071cfced44038f88d39f94c2b4265e0",
            "vout": 6
          },
          {
            "scriptSig": {
              "asm": "304402205aa81fb0ca4792ccb6120fd9c97dd14ec13def61f084f7d02e394ad8c204c0a102205bda68902e3a72d770407ebf91fb5bfb3bbfd1aead228c5835b31caed83ac5a9[ALL|ANYONECANPAY] 037ea7ed2d1e9a39ffb2a83539ae513836c9b9c86cbe68a17a84e24b3b6dec0ed0",
              "hex": "47304402205aa81fb0ca4792ccb6120fd9c97dd14ec13def61f084f7d02e394ad8c204c0a102205bda68902e3a72d770407ebf91fb5bfb3bbfd1aead228c5835b31caed83ac5a98121037ea7ed2d1e9a39ffb2a83539ae513836c9b9c86cbe68a17a84e24b3b6dec0ed0"
            },
            "sequence": 4294967295,
            "txid": "2c36134ccf8ce3f564af01b066944d49a7f0e6a1da325071451dcac93d6ddf9c",
            "vout": 8
          },
          {
            "scriptSig": {
              "asm": "304402202ebb9afb8e00c5cd5757391da405a08bdfcea931daf2ee59acf8fbdcf969f9cb02203397048eb42596d6e49844772e2eb1f1371e9ab1bec2b05fabf0dc6271a0ccbe[ALL|ANYONECANPAY] 02fa21e8bf70c620ff9136702a205c7633e55dbf2a7bfaf91039535f8974df9fa2",
              "hex": "47304402202ebb9afb8e00c5cd5757391da405a08bdfcea931daf2ee59acf8fbdcf969f9cb02203397048eb42596d6e49844772e2eb1f1371e9ab1bec2b05fabf0dc6271a0ccbe812102fa21e8bf70c620ff9136702a205c7633e55dbf2a7bfaf91039535f8974df9fa2"
            },
            "sequence": 4294967295,
            "txid": "363f5ddba52a7860e7c604463d4be6d3d54b447e2bfedc74ebce86b7e25b2117",
            "vout": 4
          },
          {
            "scriptSig": {
              "asm": "304402203ab961961556507699501d2ea4b9e9460c32620f40e5295112d6dbf0ae4a946e02202f693374032acc8558e0753261ecc21e1fd3afbc1647c424cefafb363cd20acc[ALL|ANYONECANPAY] 02f41917fa1c2df8dbfb729896e62cab3ccdfd90c80ce214e31df1bd4b88546176",
              "hex": "47304402203ab961961556507699501d2ea4b9e9460c32620f40e5295112d6dbf0ae4a946e02202f693374032acc8558e0753261ecc21e1fd3afbc1647c424cefafb363cd20acc812102f41917fa1c2df8dbfb729896e62cab3ccdfd90c80ce214e31df1bd4b88546176"
            },
            "sequence": 4294967295,
            "txid": "44afe17ac88deefe9de7adab4279cec68da53c69b7ca909d8583d90a2de41d65",
            "vout": 3
          },
          {
            "scriptSig": {
              "asm": "3044022009d78c5a91d5917d9d9aa7c10151bf8d4af014617d96c7f6391e959afe8f9db002202970b0cc033ed9766a8585ce47232e6598dc11d545f6d34f7fc64fa3187d440f[ALL|ANYONECANPAY] 03c3d553380dda06f7b8f665be6ee12455d6cfb8a28f1781010ab5c53e02c8a1a5",
              "hex": "473044022009d78c5a91d5917d9d9aa7c10151bf8d4af014617d96c7f6391e959afe8f9db002202970b0cc033ed9766a8585ce47232e6598dc11d545f6d34f7fc64fa3187d440f812103c3d553380dda06f7b8f665be6ee12455d6cfb8a28f1781010ab5c53e02c8a1a5"
            },
            "sequence": 4294967295,
            "txid": "8da4c62d0bd0ed645030efa9d9430421af23b15d76a21998fa4aee3f563df4bb",
            "vout": 0
          },
          {
            "scriptSig": {
              "asm": "304402207e7c1feb84e77133c856e16190b8df9f7dee7f5045e52e346f3da94c092fbf03022024cb7b94e7bf2ba6e867659fb4a14bf7fc0987ab6bc799ec64ab0aa806b1bebb[ALL|ANYONECANPAY] 039c13777aa4723dadb724169d660384de0836bec09bd33dcc0041302c830c5ac0",
              "hex": "47304402207e7c1feb84e77133c856e16190b8df9f7dee7f5045e52e346f3da94c092fbf03022024cb7b94e7bf2ba6e867659fb4a14bf7fc0987ab6bc799ec64ab0aa806b1bebb8121039c13777aa4723dadb724169d660384de0836bec09bd33dcc0041302c830c5ac0"
            },
            "sequence": 4294967295,
            "txid": "8da4c62d0bd0ed645030efa9d9430421af23b15d76a21998fa4aee3f563df4bb",
            "vout": 5
          },
          {
            "scriptSig": {
              "asm": "3044022053459b6f00dc946aadab4404b5dd9a0372cc94c3b9171f72e64e3563b6663f7d022021f3a8dd99ce02bbe921cb9f15dbb843b028c6bd14e0f06847f011ed9c37e2e6[ALL|ANYONECANPAY] 032264eb9e56f56df643574c8c9dbf855f393395ae7f651673666a5afe22c2742b",
              "hex": "473044022053459b6f00dc946aadab4404b5dd9a0372cc94c3b9171f72e64e3563b6663f7d022021f3a8dd99ce02bbe921cb9f15dbb843b028c6bd14e0f06847f011ed9c37e2e68121032264eb9e56f56df643574c8c9dbf855f393395ae7f651673666a5afe22c2742b"
            },
            "sequence": 4294967295,
            "txid": "8da4c62d0bd0ed645030efa9d9430421af23b15d76a21998fa4aee3f563df4bb",
            "vout": 10
          },
          {
            "scriptSig": {
              "asm": "304402206e2b63d85d8216824e7926d3c995c0036267e765d358f662fcb39c91b3598ca602205d0515077168cc33c50e88288f24f5bf35567fbc5645b49beb258e902f2f97df[ALL|ANYONECANPAY] 03c37c4a9b83d03db90b902552a72e6c7d3e2a92ddca2ccde5665d906a676a104e",
              "hex": "47304402206e2b63d85d8216824e7926d3c995c0036267e765d358f662fcb39c91b3598ca602205d0515077168cc33c50e88288f24f5bf35567fbc5645b49beb258e902f2f97df812103c37c4a9b83d03db90b902552a72e6c7d3e2a92ddca2ccde5665d906a676a104e"
            },
            "sequence": 4294967295,
            "txid": "8dafbd5a260f152f6d25dc88db71a49ae4c6af6e1516fce05e25d37316689b8c",
            "vout": 2
          },
          {
            "scriptSig": {
              "asm": "304402204217d9a53f332a8a474b1b2d94e735405d88355867a1a6612ab51d1a1224e6f302207d7c5384ab57da4dd604de65edbbb610887d2a4b28697dcd7505a62e709baa81[ALL|ANYONECANPAY] 0292f9ebdd1b736064eff69b863d5cfc3d573063a408bc4aa3b1080a692ce50b8f",
              "hex": "47304402204217d9a53f332a8a474b1b2d94e735405d88355867a1a6612ab51d1a1224e6f302207d7c5384ab57da4dd604de65edbbb610887d2a4b28697dcd7505a62e709baa8181210292f9ebdd1b736064eff69b863d5cfc3d573063a408bc4aa3b1080a692ce50b8f"
            },
            "sequence": 4294967295,
            "txid": "a9d81a7d7694f910f91c38fc2fe5def48c75dc5821fe474ee830157abf7af635",
            "vout": 0
          },
          {
            "scriptSig": {
              "asm": "3044022059a5c57c150853eaa7f32eb5f1b663876762dc3045ee6d7c94b88d3941b5bd6a022033d9bd80fbf385f0c9321a9cc4ec80ccb630504ec502f34e17f31435dbebecd1[ALL|ANYONECANPAY] 0264682f925f25dfa67d519354638a42eeb46e0f9a8af86f7ad5868246227fe6b1",
              "hex": "473044022059a5c57c150853eaa7f32eb5f1b663876762dc3045ee6d7c94b88d3941b5bd6a022033d9bd80fbf385f0c9321a9cc4ec80ccb630504ec502f34e17f31435dbebecd181210264682f925f25dfa67d519354638a42eeb46e0f9a8af86f7ad5868246227fe6b1"
            },
            "sequence": 4294967295,
            "txid": "ca9067b790bea9bf5b0d81ebd01c7402bd238b71c7042713b4447680e04476d6",
            "vout": 6
          },
          {
            "scriptSig": {
              "asm": "30440220187c4201b249144f4bfae6e242d0685df02c7edc682e7d979a6e1817dc0d676002200d79063d9dacc21df80640eba3ecdf1d2db0b27c85ad4592165aa4441d093b9b[ALL|ANYONECANPAY] 031204b30e3779a340fcd47b2e87418d32c6bba55739791ea4a6d948c203567389",
              "hex": "4730440220187c4201b249144f4bfae6e242d0685df02c7edc682e7d979a6e1817dc0d676002200d79063d9dacc21df80640eba3ecdf1d2db0b27c85ad4592165aa4441d093b9b8121031204b30e3779a340fcd47b2e87418d32c6bba55739791ea4a6d948c203567389"
            },
            "sequence": 4294967295,
            "txid": "ca9067b790bea9bf5b0d81ebd01c7402bd238b71c7042713b4447680e04476d6",
            "vout": 8
          },
          {
            "scriptSig": {
              "asm": "304402200ed64108a3b3e552b1c27e5a471073f73f554b7f78c8686ac238be8180f802800220404aa029cc709e17425efb8042e9b1276a3081919b28a28dfc0ccad082ebfce9[ALL|ANYONECANPAY] 026d7d366d6da8697cf418069f514d26876a7821973c4ff767b250f0fb63b4b5d3",
              "hex": "47304402200ed64108a3b3e552b1c27e5a471073f73f554b7f78c8686ac238be8180f802800220404aa029cc709e17425efb8042e9b1276a3081919b28a28dfc0ccad082ebfce98121026d7d366d6da8697cf418069f514d26876a7821973c4ff767b250f0fb63b4b5d3"
            },
            "sequence": 4294967295,
            "txid": "d79f8007a1092bd17764e07817cd926ea3c47a301a96d7b70eefbbd17aafc46b",
            "vout": 0
          },
          {
            "scriptSig": {
              "asm": "30440220112d8f3235b220c769ca75b4d597f6eb92979a0b9d3e6f1e8b1bb6d6a2b4d2f802204eab2d1782991f5d3860ac7b1db864c8b7966fa44ae8c8ea80cc27180abecee4[ALL|ANYONECANPAY] 02676a4a31232f17a26a86af03b243f12e64c9ee9c62d00e95953124f83af4383e",
              "hex": "4730440220112d8f3235b220c769ca75b4d597f6eb92979a0b9d3e6f1e8b1bb6d6a2b4d2f802204eab2d1782991f5d3860ac7b1db864c8b7966fa44ae8c8ea80cc27180abecee4812102676a4a31232f17a26a86af03b243f12e64c9ee9c62d00e95953124f83af4383e"
            },
            "sequence": 4294967295,
            "txid": "dfd4a5e18f20362d4df8040d600d2cd657f44c39d4a5a3f994b783b8179d3edd",
            "vout": 7
          },
          {
            "scriptSig": {
              "asm": "3044022026d9bbada4a83c3cfe62592069db1e1ef140e918f239946d88aab3eaccfc82c302202b5f80dc988ca8d47602fd5cd37a63141c0785949b568371cf15ebe4511548e9[ALL|ANYONECANPAY] 03e2daec40b24ffaff4075810a9caee957a935faa0292519e519e234e6f71c71ec",
              "hex": "473044022026d9bbada4a83c3cfe62592069db1e1ef140e918f239946d88aab3eaccfc82c302202b5f80dc988ca8d47602fd5cd37a63141c0785949b568371cf15ebe4511548e9812103e2daec40b24ffaff4075810a9caee957a935faa0292519e519e234e6f71c71ec"
            },
            "sequence": 4294967295,
            "txid": "f4e244f51b0bfd0c18e519e89f0f2a2f2d29ea7b748b15dc6be9c53a52c2077c",
            "vout": 3
          }
        ],
        "vout": [
          {
            "n": 0,
            "scriptPubKey": {
              "address": "Xha38e1FuTcc98WooDv2X67vmEi8t4UEUo",
              "asm": "OP_DUP OP_HASH160 4b7f66bc22cbd828dd9c82c60d7ac9cb2c38d8fd OP_EQUALVERIFY OP_CHECKSIG",
              "desc": "addr(Xha38e1FuTcc98WooDv2X67vmEi8t4UEUo)#ct0lc3yd",
              "hex": "76a9144b7f66bc22cbd828dd9c82c60d7ac9cb2c38d8fd88ac",
              "type": "pubkeyhash"
            },
            "value": 0.0100001,
            "valueSat": 1000010
          },
          {
            "n": 1,
            "scriptPubKey": {
              "address": "XizyKcQx1qXz3EhizTEcArzgiXDbKgDBzG",
              "asm": "OP_DUP OP_HASH160 5b2ebeba083aa4f549d6a1b25dab37bff3d91fb1 OP_EQUALVERIFY OP_CHECKSIG",
              "desc": "addr(XizyKcQx1qXz3EhizTEcArzgiXDbKgDBzG)#hlw5zyrx",
              "hex": "76a9145b2ebeba083aa4f549d6a1b25dab37bff3d91fb188ac",
              "type": "pubkeyhash"
            },
            "value": 0.0100001,
            "valueSat": 1000010
          },
          {
            "n": 2,
            "scriptPubKey": {
              "address": "XmuVMEML27oZQqpWurJQyUtmpbhn8mxe9t",
              "asm": "OP_DUP OP_HASH160 7b0db151e1c15f8d911fd9decc7122682f74ef6b OP_EQUALVERIFY OP_CHECKSIG",
              "desc": "addr(XmuVMEML27oZQqpWurJQyUtmpbhn8mxe9t)#75qp5yyx",
              "hex": "76a9147b0db151e1c15f8d911fd9decc7122682f74ef6b88ac",
              "type": "pubkeyhash"
            },
            "value": 0.0100001,
            "valueSat": 1000010
          },
          {
            "n": 3,
            "scriptPubKey": {
              "address": "Xowr2FDFdzeqx2PhuwcBaZzz1iZAhrUrpL",
              "asm": "OP_DUP OP_HASH160 917008670c84640702ca1bb041973314296642b8 OP_EQUALVERIFY OP_CHECKSIG",
              "desc": "addr(Xowr2FDFdzeqx2PhuwcBaZzz1iZAhrUrpL)#rnmf0mh6",
              "hex": "76a914917008670c84640702ca1bb041973314296642b888ac",
              "type": "pubkeyhash"
            },
            "value": 0.0100001,
            "valueSat": 1000010
          },
          {
            "n": 4,
            "scriptPubKey": {
              "address": "XsGipP92pwuxR3jhZXm36Jtxon8uhsjW5Q",
              "asm": "OP_DUP OP_HASH160 b5ea4ca583b50a2becce1b95b57c517fb06275ea OP_EQUALVERIFY OP_CHECKSIG",
              "desc": "addr(XsGipP92pwuxR3jhZXm36Jtxon8uhsjW5Q)#qj98ng32",
              "hex": "76a914b5ea4ca583b50a2becce1b95b57c517fb06275ea88ac",
              "type": "pubkeyhash"
            },
            "value": 0.0100001,
            "valueSat": 1000010
          },
          {
            "n": 5,
            "scriptPubKey": {
              "address": "Xt7KTptaBymKadqP1ddJBoD8XPmjPLq9w2",
              "asm": "OP_DUP OP_HASH160 bf1b2fadc154394f01de732f0750435ef58d8267 OP_EQUALVERIFY OP_CHECKSIG",
              "desc": "addr(Xt7KTptaBymKadqP1ddJBoD8XPmjPLq9w2)#8v5m9zg5",
              "hex": "76a914bf1b2fadc154394f01de732f0750435ef58d826788ac",
              "type": "pubkeyhash"
            },
            "value": 0.0100001,
            "valueSat": 1000010
          },
          {
            "n": 6,
            "scriptPubKey": {
              "address": "Xtb21TFs6Vv3twNj6YBHP7c5ZshYWqaByg",
              "asm": "OP_DUP OP_HASH160 c45843419bd9997b1780afb9acb6b8d6e0f569ad OP_EQUALVERIFY OP_CHECKSIG",
              "desc": "addr(Xtb21TFs6Vv3twNj6YBHP7c5ZshYWqaByg)#nelpqf49",
              "hex": "76a914c45843419bd9997b1780afb9acb6b8d6e0f569ad88ac",
              "type": "pubkeyhash"
            },
            "value": 0.0100001,
            "valueSat": 1000010
          },
          {
            "n": 7,
            "scriptPubKey": {
              "address": "XuN5g7yR6uFX5Gnj55JWjNjGaEpzRh4NhY",
              "asm": "OP_DUP OP_HASH160 ccde0ab2dffce542fd4a031eb962a915af33f050 OP_EQUALVERIFY OP_CHECKSIG",
              "desc": "addr(XuN5g7yR6uFX5Gnj55JWjNjGaEpzRh4NhY)#jrany6v3",
              "hex": "76a914ccde0ab2dffce542fd4a031eb962a915af33f05088ac",
              "type": "pubkeyhash"
            },
            "value": 0.0100001,
            "valueSat": 1000010
          },
          {
            "n": 8,
            "scriptPubKey": {
              "address": "XufnR76homXM3ojoFSj2XZ1agXgfbjd7r9",
              "asm": "OP_DUP OP_HASH160 d0371f4300a141c9dd37b80cc74a1a2db59625ea OP_EQUALVERIFY OP_CHECKSIG",
              "desc": "addr(XufnR76homXM3ojoFSj2XZ1agXgfbjd7r9)#exlcxxz2",
              "hex": "76a914d0371f4300a141c9dd37b80cc74a1a2db59625ea88ac",
              "type": "pubkeyhash"
            },
            "value": 0.0100001,
            "valueSat": 1000010
          },
          {
            "n": 9,
            "scriptPubKey": {
              "address": "XvbE5LJyh4LKz1MPspS1sG5cqA3fy94ZFS",
              "asm": "OP_DUP OP_HASH160 da529654a0247511e81f3a75affa99525f1ed7dd OP_EQUALVERIFY OP_CHECKSIG",
              "desc": "addr(XvbE5LJyh4LKz1MPspS1sG5cqA3fy94ZFS)#dgpgvyv0",
              "hex": "76a914da529654a0247511e81f3a75affa99525f1ed7dd88ac",
              "type": "pubkeyhash"
            },
            "value": 0.0100001,
            "valueSat": 1000010
          },
          {
            "n": 10,
            "scriptPubKey": {
              "address": "Xw28B9sn8p9opejfsktmQ2um56Xq844w9j",
              "asm": "OP_DUP OP_HASH160 df080fbddbc3512710e4bbd2abcf7b991fda74f0 OP_EQUALVERIFY OP_CHECKSIG",
              "desc": "addr(Xw28B9sn8p9opejfsktmQ2um56Xq844w9j)#spc5vjwg",
              "hex": "76a914df080fbddbc3512710e4bbd2abcf7b991fda74f088ac",
              "type": "pubkeyhash"
            },
            "value": 0.0100001,
            "valueSat": 1000010
          },
          {
            "n": 11,
            "scriptPubKey": {
              "address": "XxhoPH67AhgzPp94ACi4rECUnYyw4Uu1Ah",
              "asm": "OP_DUP OP_HASH160 f18123ccc26dd31faf9047d8bb996d69a4f48ad7 OP_EQUALVERIFY OP_CHECKSIG",
              "desc": "addr(XxhoPH67AhgzPp94ACi4rECUnYyw4Uu1Ah)#8pwd674d",
              "hex": "76a914f18123ccc26dd31faf9047d8bb996d69a4f48ad788ac",
              "type": "pubkeyhash"
            },
            "value": 0.0100001,
            "valueSat": 1000010
          },
          {
            "n": 12,
            "scriptPubKey": {
              "address": "XyEmRriYzpX3UjP4x72nzdT76AYXxYAxko",
              "asm": "OP_DUP OP_HASH160 f75c66fb4e58da447513db3f2cf98ba666c0855b OP_EQUALVERIFY OP_CHECKSIG",
              "desc": "addr(XyEmRriYzpX3UjP4x72nzdT76AYXxYAxko)#qjzwep70",
              "hex": "76a914f75c66fb4e58da447513db3f2cf98ba666c0855b88ac",
              "type": "pubkeyhash"
            },
            "value": 0.0100001,
            "valueSat": 1000010
          },
          {
            "n": 13,
            "scriptPubKey": {
              "address": "XyaE69EAKGSdUiurQe5nX8XbF7xSQfRsgZ",
              "asm": "OP_DUP OP_HASH160 fb0a8f6d3b91d0f6bf6fd85c97b705e0d5734ea5 OP_EQUALVERIFY OP_CHECKSIG",
              "desc": "addr(XyaE69EAKGSdUiurQe5nX8XbF7xSQfRsgZ)#kt7r962a",
              "hex": "76a914fb0a8f6d3b91d0f6bf6fd85c97b705e0d5734ea588ac",
              "type": "pubkeyhash"
            },
            "value": 0.0100001,
            "valueSat": 1000010
          }
        ]
      },
      {
        "fee": 4e-05,
        "hex": "030000000113f1c90613348e8d23fe9767a4af324e4dca5fd5caa31b4251ebabcc3edcd7cf010000006a4730440220746cf298e87b930d3a47b937dad4f1b78a120ee5b6891a5e8d95f75e4ca389b4022023269659419a7dc65d1db80f80f29aedb18cabe9b99844fef21fd16033a3bede0121033ec6c5e9dd3e908f95d752da02dcf4299607fdb1f8e079b0c4cf97baceff1b25ffffffff02a1b75c04000000001976a9146fdd1f6cc86765f2cd051bf2cc1ad20df2decba788ac45c2bb7d000000001976a914f212a80235c7a12b35788d640b28d24fd1ef4bc488ac00000000",
        "instantlock": true,
        "instantlock_internal": false,
        "locktime": 0,
        "size": 225,
        "txid": "a735a88606ad84b63a05ecd3d061512e51f84c4671eca8efc3ca74c8da714c2b",
        "type": 0,
        "version": 3,
        "vin": [
          {
            "scriptSig": {
              "asm": "30440220746cf298e87b930d3a47b937dad4f1b78a120ee5b6891a5e8d95f75e4ca389b4022023269659419a7dc65d1db80f80f29aedb18cabe9b99844fef21fd16033a3bede[ALL] 033ec6c5e9dd3e908f95d752da02dcf4299607fdb1f8e079b0c4cf97baceff1b25",
              "hex": "4730440220746cf298e87b930d3a47b937dad4f1b78a120ee5b6891a5e8d95f75e4ca389b4022023269659419a7dc65d1db80f80f29aedb18cabe9b99844fef21fd16033a3bede0121033ec6c5e9dd3e908f95d752da02dcf4299607fdb1f8e079b0c4cf97baceff1b25"
            },
            "sequence": 4294967295,
            "txid": "cfd7dc3eccabeb51421ba3cad55fca4d4e32afa46797fe238d8e341306c9f113",
            "vout": 1
          }
        ],
        "vout": [
          {
            "n": 0,
            "scriptPubKey": {
              "address": "XktKjRbeG9NDWir8UBjndaTsAzBzbofxyR",
              "asm": "OP_DUP OP_HASH160 6fdd1f6cc86765f2cd051bf2cc1ad20df2decba7 OP_EQUALVERIFY OP_CHECKSIG",
              "desc": "addr(XktKjRbeG9NDWir8UBjndaTsAzBzbofxyR)#hd5dnt7k",
              "hex": "76a9146fdd1f6cc86765f2cd051bf2cc1ad20df2decba788ac",
              "type": "pubkeyhash"
            },
            "value": 0.73185185,
            "valueSat": 73185185
          },
          {
            "n": 1,
            "scriptPubKey": {
              "address": "XxkohwLp8JNZ1eXUXvMkfXhDyWsZKe5EXc",
              "asm": "OP_DUP OP_HASH160 f212a80235c7a12b35788d640b28d24fd1ef4bc4 OP_EQUALVERIFY OP_CHECKSIG",
              "desc": "addr(XxkohwLp8JNZ1eXUXvMkfXhDyWsZKe5EXc)#cz2p5c2g",
              "hex": "76a914f212a80235c7a12b35788d640b28d24fd1ef4bc488ac",
              "type": "pubkeyhash"
            },
            "value": 21.09456965,
            "valueSat": 2109456965
          }
        ]
      },
      {
        "fee": 2.26e-05,
        "hex": "01000000010d47e51e161034f85c6af983faec2b31d1ba852ff89e1306cddf1db6cbcc71eb000000006b483045022100cb87ed34bbfa202a8a6372d2ec60f29615f237282c48d202fb678d64397d686b02201a2fed4545ce75faf486837bacdecda2d50d390732d794f39461ec67c1c55f28012102052e4cc38648ab998e59f57be9f267a0002a8dca93724e2c20879e905799710fffffffff02422b62c4000000001976a9143439c79680889cbfc7697e6de5e944f16dfcf8e488ac70136c04000000001976a9145e8b236e6fc706bbd0e3ad13f243ed494b00271b88ac00000000",
        "instantlock": true,
        "instantlock_internal": false,
        "locktime": 0,
        "size": 226,
        "txid": "7612fb4b95c0188b0b263c2e2239fa735d9bd3d6e98f8644c82739de80db4a54",
        "type": 0,
        "version": 1,
        "vin": [
          {
            "scriptSig": {
              "asm": "3045022100cb87ed34bbfa202a8a6372d2ec60f29615f237282c48d202fb678d64397d686b02201a2fed4545ce75faf486837bacdecda2d50d390732d794f39461ec67c1c55f28[ALL] 02052e4cc38648ab998e59f57be9f267a0002a8dca93724e2c20879e905799710f",
              "hex": "483045022100cb87ed34bbfa202a8a6372d2ec60f29615f237282c48d202fb678d64397d686b02201a2fed4545ce75faf486837bacdecda2d50d390732d794f39461ec67c1c55f28012102052e4cc38648ab998e59f57be9f267a0002a8dca93724e2c20879e905799710f"
            },
            "sequence": 4294967295,
            "txid": "eb71cccbb61ddfcd06139ef82f85bad1312becfa83f96a5cf83410161ee5470d",
            "vout": 0
          }
        ],
        "vout": [
          {
            "n": 0,
            "scriptPubKey": {
              "address": "XfSzBq15ezmCLJcxCHhxM1fEDWLZLqvy6K",
              "asm": "OP_DUP OP_HASH160 3439c79680889cbfc7697e6de5e944f16dfcf8e4 OP_EQUALVERIFY OP_CHECKSIG",
              "desc": "addr(XfSzBq15ezmCLJcxCHhxM1fEDWLZLqvy6K)#l8uqh4ra",
              "hex": "76a9143439c79680889cbfc7697e6de5e944f16dfcf8e488ac",
              "type": "pubkeyhash"
            },
            "value": 32.94767938,
            "valueSat": 3294767938
          },
          {
            "n": 1,
            "scriptPubKey": {
              "address": "XjJk2nrCjDNp3eBBejdGWswCe4ZrytuSwE",
              "asm": "OP_DUP OP_HASH160 5e8b236e6fc706bbd0e3ad13f243ed494b00271b OP_EQUALVERIFY OP_CHECKSIG",
              "desc": "addr(XjJk2nrCjDNp3eBBejdGWswCe4ZrytuSwE)#w5rf2exk",
              "hex": "76a9145e8b236e6fc706bbd0e3ad13f243ed494b00271b88ac",
              "type": "pubkeyhash"
            },
            "value": 0.74191728,
            "valueSat": 74191728
          }
        ]
      },
      {
        "fee": 1.93e-06,
        "hex": "01000000019c63c0ca0c70b576dc7b6e7bf8195109ee2f30f5ecdd70e3903ff1504ac010a0000000006a4730440220535a78faf9d789b4271f43c282c4adf8401857f136ed5c887491d1d76296798702204a017e8273ea3b10c9e73a283458a20037cf020f698d33f534172453fa693d250121036d4de163518da015ef36719e70f60f0727f04d7b79793ecb93cce72cb560b7a6ffffffff01156dcd11000000001976a914dfa1799ae55f2338de0bc3067ada0c456c4d66a988ac00000000",
        "instantlock": true,
        "instantlock_internal": false,
        "locktime": 0,
        "size": 191,
        "txid": "332e14bc4f2facf3fe22893f33d856c7d8e8339671d471091577299862c63455",
        "type": 0,
        "version": 1,
        "vin": [
          {
            "scriptSig": {
              "asm": "30440220535a78faf9d789b4271f43c282c4adf8401857f136ed5c887491d1d76296798702204a017e8273ea3b10c9e73a283458a20037cf020f698d33f534172453fa693d25[ALL] 036d4de163518da015ef36719e70f60f0727f04d7b79793ecb93cce72cb560b7a6",
              "hex": "4730440220535a78faf9d789b4271f43c282c4adf8401857f136ed5c887491d1d76296798702204a017e8273ea3b10c9e73a283458a20037cf020f698d33f534172453fa693d250121036d4de163518da015ef36719e70f60f0727f04d7b79793ecb93cce72cb560b7a6"
            },
            "sequence": 4294967295,
            "txid": "a010c04a50f13f90e370ddecf5302fee095119f87b6e7bdc76b5700ccac0639c",
            "vout": 0
          }
        ],
        "vout": [
          {
            "n": 0,
            "scriptPubKey": {
              "address": "Xw5HxWh1Qj45qkEUJz8PGtTNS3YLUeYFY6",
              "asm": "OP_DUP OP_HASH160 dfa1799ae55f2338de0bc3067ada0c456c4d66a9 OP_EQUALVERIFY OP_CHECKSIG",
              "desc": "addr(Xw5HxWh1Qj45qkEUJz8PGtTNS3YLUeYFY6)#h5yd0nn5",
              "hex": "76a914dfa1799ae55f2338de0bc3067ada0c456c4d66a988ac",
              "type": "pubkeyhash"
            },
            "value": 2.98675477,
            "valueSat": 298675477
          }
        ]
      }
    ],
    "version": 536870912,
    "versionHex": "20000000"
  },
  "height": 1987776
}