{
  "block_hash": "00000000000000196155247652d5800529d35a5b735ce97e3ee2c6715c031315",
  "block_hex": "000200206495ccbe31a220e96cdd43cc1ee5859f27a9023a64d9dc1e1e00000000000000ee949a9d701125c5cd9ab217f834a0339662d987a5370bcd7a9a5a4d74a132ee7b477b652fab6019006fde9f0203000500010000000000000000000000000000000000000000000000000000000000000000ffffffff2d03bf541e172f5669614254432f4d696e656420627920666f7878312f10996c640091f4336b6918ac17a4440100ffffffff02d028b805000000001976a914bc89d6071dabc5b4494d303af761a052a5c70d5788ac80ef0f08000000001976a91434de53e8614f753dad8f48848b4613e8022d670c88ac00000000460200bf541e00646933363639497c21aec1a0a44cfe30aaf8e7b9e7d5cc88aa719dc9af6a0e45ab254c33a9eabf49ef2a7acd528cdb411bb0a381e269262a53aa45e5719956440100000003f3ea0dfd206a6006ee478c4f8b516c1c3ca0d672909f4ad2a056aea372b004d200000000fdfd000047304402207bce11d96169c769ce95949c1edc3dd0b93afa1d0829b4c5f2f9ea5a48c9e328022066c17d30ba7cf3b8f5b01389bec25f3e8e8ea0f06771bb48d418894b817f9cdf01483045022100b35837e5e0ff70136ec2f1ae8cc21bc859444440cb67a8542d4ee2c4117c8c4402200e30d26792117684f2ad134bbe03917d6be9bc919a82c7dd5832556b024e2693014c695221021cc78c998c9098260f77f9e311a7e827ede3de37cc27fd6298c208b31711a0ce21031c7c425fa9fb1be25e437e8963969c948d79908d57396f1bfa69baae7994a5202102cbb78e50215f91f700abcbde0ccde2e5a46e38898d893622b7ee4f9550a600e053aeffffffff01f711d14a751bcb7bdeb843f73e94446824c60faadb6a29e0ea4facab5e36ad02000000fdfd0000483045022100be37ed8fc53ec53b2b9b5d0e791418513e3ba31d7913fdeb1f251a58a1bee98d02202848e702de62cfe3cba5878bd16e4eba480d72e2aaffaa86043e670035ae6c050147304402207fe6b169b30293d19d12f2c979ecf95347641c3d62d1d80e84ee03f5b2f34cc00220661d7f0c47fbdc00e7c6963475d1f307db8cace8cad47b46e8bafadb1df7d593014c69522102b5717c31b6bee1bcf844e7ca3e92c40501edc5ae2e87821b213701b59accb8432102cef8b18cb382f5d5ee06a63f8c246ca1f11854c5877623660ab76afcd894199621023cc8e65f12fc032000bf52bea34655820cfd2d0d40b51daadbd677ccf11ab7a753aeffffffff28ea46833eddf441d4b095c4c5afc125b63b6ed40ae6f969bb4c71803433f4ca33000000fdfd0000483045022100bfce57a414e1d6a61122f053f1dc05f380ac723aab919c34e1d826e97813502302203162bd75fd86fcd79f15f718456ca8e7dc194fe682591ea54960e8e202644e0a0147304402201fe585bb1dd4f74b8335f749243db8ee40da8b0a639465c7e5ca05812b60a342022060955fb056851c7c6af3cea88ed4f828b2531c308520fd4fba4b7f897cfc4981014c6952210266f622d5eb292c81c94cf870bc190b370c8ce4f072d08babf66454fc9cd2dd3d21022b239c2f8bc826f498d11661d7381520d40cb9207b373e3a34065d63bc296f37210291247b3cbe1433a5c8dabc348c6e924fc9afe03df6af6db615fe9668fad00a2153aeffffffff02a8a37d8d000000001976a914d09c7df3fba27dc88d5501d03247056ff8d663b588ace3b411030000000017a914422e6b4d0c53af795bc06e353c5f6f4f3984e4cf8700000000",
  "block_verbose": {
    "bits": "1960ab2f",
    "cbTx": {
      "height": 1987775,
      "merkleRootMNList": "450e6aafc99d71aa88ccd5e7b9e7f8aa30fe4ca4a0c1ae217c49393636336964",
      "merkleRootQuorums": "44569971e545aa532a2669e281a3b01b41db8c52cd7a2aef49bfeaa9334c25ab",
      "version": 2
    },
    "chainlock": true,
    "chainwork": "000000000000000000000000000000000000000000008ebdeb177a7318082845",
    "confirmations": 485360,
    "difficulty": 44429090.13847062,
    "hash": "00000000000000196155247652d5800529d35a5b735ce97e3ee2c6715c031315",
    "height": 1987775,
    "mediantime": 1702577517,
    "merkleroot": "ee32a1744d5a9a7acd0b37a587d9629633a034f817b29acdc52511709d9a94ee",
    "nTx": 2,
    "nextblockhash": "000000000000001bf41cff06b76780050682ca29e61a91c391893d4745579777",
    "nonce": 2682154752,
    "previousblockhash": "000000000000001e1edcd9643a02a9279f85e51ecc43dd6ce920a231becc9564",
    "size": 1280,
    "time": 1702578043,
    "tx": [
      {
        "cbTx": {
          "height": 1987775,
          "merkleRootMNList": "450e6aafc99d71aa88ccd5e7b9e7f8aa30fe4ca4a0c1ae217c49393636336964",
          "merkleRootQuorums": "44569971e545aa532a2669e281a3b01b41db8c52cd7a2aef49bfeaa9334c25ab",
          "version": 2
        },
        "extraPayload": "0200bf541e00646933363639497c21aec1a0a44cfe30aaf8e7b9e7d5cc88aa719dc9af6a0e45ab254c33a9eabf49ef2a7acd528cdb411bb0a381e269262a53aa45e571995644",
        "extraPayloadSize": 70,
        "hex": "03000500010000000000000000000000000000000000000000000000000000000000000000ffffffff2d03bf541e172f5669614254432f4d696e656420627920666f7878312f10996c640091f4336b6918ac17a4440100ffffffff02d028b805000000001976a914bc89d6071dabc5b4494d303af761a052a5c70d5788ac80ef0f08000000001976a91434de53e8614f753dad8f48848b4613e8022d670c88ac00000000460200bf541e00646933363639497c21aec1a0a44cfe30aaf8e7b9e7d5cc88aa719dc9af6a0e45ab254c33a9eabf49ef2a7acd528cdb411bb0a381e269262a53aa45e571995644",
        "instantlock": true,
        "instantlock_internal": false,
        "locktime": 0,
        "size": 235,
        "txid": "d981123611792c3d47b8d4421fb581881e4ef9eb1a7b9a34d95f71ceddbb50be",
        "type": 5,
        "version": 3,
        "vin": [
          {
            "coinbase": "03bf541e172f5669614254432f4d696e656420627920666f7878312f10996c640091f4336b6918ac17a4440100",
            "sequence": 4294967295
          }
        ],
        "vout": [
          {
            "n": 0,
            "scriptPubKey": {
              "address": "XssjzLKgsfATYGqTQmiJURQzeKdpL5K1k3",
              "asm": "OP_DUP OP_HASH160 bc89d6071dabc5b4494d303af761a052a5c70d57 OP_EQUALVERIFY OP_CHECKSIG",
              "desc": "addr(XssjzLKgsfATYGqTQmiJURQzeKdpL5K1k3)#sr65vy9j",
              "hex": "76a914bc89d6071dabc5b4494d303af761a052a5c70d5788ac",
              "type": "pubkeyhash"
            },
            "value": 0.95955152,
            "valueSat": 95955152
          },
          {
            "n": 1,
            "scriptPubKey": {
              "address": "XfWPJqEvT7SFW7seoyzk2cDYmUegGswKCE",
              "asm": "OP_DUP OP_HASH160 34de53e8614f753dad8f48848b4613e8022d670c OP_EQUALVERIFY OP_CHECKSIG",
              "desc": "addr(XfWPJqEvT7SFW7seoyzk2cDYmUegGswKCE)#cjpysles",
              "hex": "76a91434de53e8614f753dad8f48848b4613e8022d670c88ac",
              "type": "pubkeyhash"
            },
            "value": 1.3526208,
            "valueSat": 135262080
          }
        ]
      },
      {
        "fee": 0.0025,
        "hex": "0100000003f3ea0dfd206a6006ee478c4f8b516c1c3ca0d672909f4ad2a056aea372b004d200000000fdfd000047304402207bce11d96169c769ce95949c1edc3dd0b93afa1d0829b4c5f2f9ea5a48c9e328022066c17d30ba7cf3b8f5b01389bec25f3e8e8ea0f06771bb48d418894b817f9cdf01483045022100b35837e5e0ff70136ec2f1ae8cc21bc859444440cb67a8542d4ee2c4117c8c4402200e30d26792117684f2ad134bbe03917d6be9bc919a82c7dd5832556b024e2693014c695221021cc78c998c9098260f77f9e311a7e827ede3de37cc27fd6298c208b31711a0ce21031c7c425fa9fb1be25e437e8963969c948d79908d57396f1bfa69baae7994a5202102cbb78e50215f91f700abcbde0ccde2e5a46e38898d893622b7ee4f9550a600e053aeffffffff01f711d14a751bcb7bdeb843f73e94446824c60faadb6a29e0ea4facab5e36ad02000000fdfd0000483045022100be37ed8fc53ec53b2b9b5d0e791418513e3ba31d7913fdeb1f251a58a1bee98d02202848e702de62cfe3cba5878bd16e4eba480d72e2aaffaa86043e670035ae6c050147304402207fe6b169b30293d19d12f2c979ecf95347641c3d62d1d80e84ee03f5b2f34cc00220661d7f0c47fbdc00e7c6963475d1f307db8cace8cad47b46e8bafadb1df7d593014c69522102b5717c31b6bee1bcf844e7ca3e92c40501edc5ae2e87821b213701b59accb8432102cef8b18cb382f5d5ee06a63f8c246ca1f11854c5877623660ab76afcd894199621023cc8e65f12fc032000bf52bea34655820cfd2d0d40b51daadbd677ccf11ab7a753aeffffffff28ea46833eddf441d4b095c4c5afc125b63b6ed40ae6f969bb4c71803433f4ca33000000fdfd0000483045022100bfce57a414e1d6a61122f053f1dc05f380ac723aab919c34e1d826e97813502302203162bd75fd86fcd79f15f718456ca8e7dc194fe682591ea54960e8e202644e0a0147304402201fe585bb1dd4f74b8335f749243db8ee40da8b0a639465c7e5ca05812b60a342022060955fb056851c7c6af3cea88ed4f828b2531c308520fd4fba4b7f897cfc4981014c6952210266f622d5eb292c81c94cf870bc190b370c8ce4f072d08babf66454fc9cd2dd3d21022b239c2f8bc826f498d11661d7381520d40cb9207b373e3a34065d63bc296f37210291247b3cbe1433a5c8dabc348c6e924fc9afe03df6af6db615fe9668fad00a2153aeffffffff02a8a37d8d000000001976a914d09c7df3fba27dc88d5501d03247056ff8d663b588ace3b411030000000017a914422e6b4d0c53af795bc06e353c5f6f4f3984e4cf8700000000",
        "instantlock": true,
        "instantlock_internal": false,
        "locktime": 0,
        "size": 964,
        "txid": "ec1601018b52ee21f1dd82cda69a41a4d612d355e1df20a9fd7ec3efb17f6b37",
        "type": 0,
        "version": 1,
        "vin": [
          {
            "scriptSig": {
              "asm": "0 304402207bce11d96169c769ce95949c1edc3dd0b93afa1d0829b4c5f2f9ea5a48c9e328022066c17d30ba7cf3b8f5b01389bec25f3e8e8ea0f06771bb48d418894b817f9cdf[ALL] 3045022100b35837e5e0ff70136ec2f1ae8cc21bc859444440cb67a8542d4ee2c4117c8c4402200e30d26792117684f2ad134bbe03917d6be9bc919a82c7dd5832556b024e2693[ALL] 5221021cc78c998c9098260f77f9e311a7e827ede3de37cc27fd6298c208b31711a0ce21031c7c425fa9fb1be25e437e8963969c948d79908d57396f1bfa69baae7994a5202102cbb78e50215f91f700abcbde0ccde2e5a46e38898d893622b7ee4f9550a600e053ae",
              "hex": "0047304402207bce11d96169c769ce95949c1edc3dd0b93afa1d0829b4c5f2f9ea5a48c9e328022066c17d30ba7cf3b8f5b01389bec25f3e8e8ea0f06771bb48d418894b817f9cdf01483045022100b35837e5e0ff70136ec2f1ae8cc21bc859444440cb67a8542d4ee2c4117c8c4402200e30d26792117684f2ad134bbe03917d6be9bc919a82c7dd5832556b024e2693014c695221021cc78c998c9098260f77f9e311a7e827ede3de37cc27fd6298c208b31711a0ce21031c7c425fa9fb1be25e437e8963969c948d79908d57396f1bfa69baae7994a5202102cbb78e50215f91f700abcbde0ccde2e5a46e38898d893622b7ee4f9550a600e053ae"
            },
            "sequence": 4294967295,
            "txid": "d204b072a3ae56a0d24a9f9072d6a03c1c6c518b4f8c47ee06606a20fd0deaf3",
            "vout": 0
          },
          {
            "scriptSig": {
              "asm": "0 3045022100be37ed8fc53ec53b2b9b5d0e791418513e3ba31d7913fdeb1f251a58a1bee98d02202848e702de62cfe3cba5878bd16e4eba480d72e2aaffaa86043e670035ae6c05[ALL] 304402207fe6b169b30293d19d12f2c979ecf95347641c3d62d1d80e84ee03f5b2f34cc00220661d7f0c47fbdc00e7c6963475d1f307db8cace8cad47b46e8bafadb1df7d593[ALL] 522102b5717c31b6bee1bcf844e7ca3e92c40501edc5ae2e87821b213701b59accb8432102cef8b18cb382f5d5ee06a63f8c246ca1f11854c5877623660ab76afcd894199621023cc8e65f12fc032000bf52bea34655820cfd2d0d40b51daadbd677ccf11ab7a753ae",
              "hex": "00483045022100be37ed8fc53ec53b2b9b5d0e791418513e3ba31d7913fdeb1f251a58a1bee98d02202848e702de62cfe3cba5878bd16e4eba480d72e2aaffaa86043e670035ae6c050147304402207fe6b169b30293d19d12f2c979ecf95347641c3d62d1d80e84ee03f5b2f34cc00220661d7f0c47fbdc00e7c6963475d1f307db8cace8cad47b46e8bafadb1df7d593014c69522102b5717c31b6bee1bcf844e7ca3e92c40501edc5ae2e87821b213701b59accb8432102cef8b18cb382f5d5ee06a63f8c246ca1f11854c5877623660ab76afcd894199621023cc8e65f12fc032000bf52bea34655820cfd2d0d40b51daadbd677ccf11ab7a753ae"
            },
            "sequence": 4294967295,
            "txid": "ad365eabac4feae0296adbaa0fc6246844943ef743b8de7bcb1b754ad111f701",
            "vout": 2
          },
          {
            "scriptSig": {
              "asm": "0 3045022100bfce57a414e1d6a61122f053f1dc05f380ac723aab919c34e1d826e97813502302203162bd75fd86fcd79f15f718456ca8e7dc194fe682591ea54960e8e202644e0a[ALL] 304402201fe585bb1dd4f74b8335f749243db8ee40da8b0a639465c7e5ca05812b60a342022060955fb056851c7c6af3cea88ed4f828b2531c308520fd4fba4b7f897cfc4981[ALL] 52210266f622d5eb292c81c94cf870bc190b370c8ce4f072d08babf66454fc9cd2dd3d21022b239c2f8bc826f498d11661d7381520d40cb9207b373e3a34065d63bc296f37210291247b3cbe1433a5c8dabc348c6e924fc9afe03df6af6db615fe9668fad00a2153ae",
              "hex": "00483045022100bfce57a414e1d6a61122f053f1dc05f380ac723aab919c34e1d826e97813502302203162bd75fd86fcd79f15f718456ca8e7dc194fe682591ea54960e8e202644e0a0147304402201fe585bb1dd4f74b8335f749243db8ee40da8b0a639465c7e5ca05812b60a342022060955fb056851c7c6af3cea88ed4f828b2531c308520fd4fba4b7f897cfc4981014c6952210266f622d5eb292c81c94cf870bc190b370c8ce4f072d08babf66454fc9cd2dd3d21022b239c2f8bc826f498d11661d7381520d40cb9207b373e3a34065d63bc296f37210291247b3cbe1433a5c8dabc348c6e924fc9afe03df6af6db615fe9668fad00a2153ae"
            },
            "sequence": 4294967295,
            "txid": "caf4333480714cbb69f9e60ad46e3bb625c1afc5c495b0d441f4dd3e8346ea28",
            "vout": 51
          }
        ],
        "vout": [
          {
            "n": 0,
            "scriptPubKey": {
              "address": "XuhsrQgzXuuhqUUppDmEXbTMLE3JzoFGfm",
              "asm": "OP_DUP OP_HASH160 d09c7df3fba27dc88d5501d03247056ff8d663b5 OP_EQUALVERIFY OP_CHECKSIG",
              "desc": "addr(XuhsrQgzXuuhqUUppDmEXbTMLE3JzoFGfm)#xu05g55a",
              "hex": "76a914d09c7df3fba27dc88d5501d03247056ff8d663b588ac",
              "type": "pubkeyhash"
            },
            "value": 23.73821352,
            "valueSat": 2373821352
          },
          {
            "n": 1,
            "scriptPubKey": {
              "address": "7YSaxf6pd7SJ6aWMRy9xp5Jy2qLDBURU41",
              "asm": "OP_HASH160 422e6b4d0c53af795bc06e353c5f6f4f3984e4cf OP_EQUAL",
              "desc": "addr(7YSaxf6pd7SJ6aWMRy9xp5Jy2qLDBURU41)#plvzcxus",
              "hex": "a914422e6b4d0c53af795bc06e353c5f6f4f3984e4cf87",
              "type": "scripthash"
            },
            "value": 0.51492067,
            "valueSat": 51492067
          }
        ]
      }
    ],
    "version": 536871424,
    "versionHex": "20000200"
  },
  "height": 1987775
}