{
  "block_hash": "000000000000000e2040683889017d195098a8fb433fe6b12f3d109d06a083e5",
  "block_hex": "000000209eb421bf716b23997c6f9f056afb2319f23523da3c2bb4f2170000000000000082a40636f4bdbb31e080363506940a789f53ddf229309b7c90b8113d38c5557d1a8bce662ae63519665085f30203000500010000000000000000000000000000000000000000000000000000000000000000ffffffff5303687c20041d8bce6608fabe6d6d53249febe5a9c6e7cce2bb00739c786e7980f166c3b45a1bc0e12adb48441252010000000000000000c4e639b33500008d01122f4d696e696e672d44757463682f2d3132320000000003813bd702000000001976a914c762a134542453faef37eb2b9ef3dceeb462926688acf122320300000000016a928f5305000000001976a91416fad95010cad5e05b8decc8a31d7324d0d4534e88ac00000000af0300687c2000d795a74497f93981feb82c0a7ac6e61df926e116c12af773d2c85ff60b848ce589d7a7eba2c6bedcdf17aca24ff4e0c5af1b64c869e9e668bc9dfb9afa0680bc00b51c409a971db436fdd001303e2297fc9886e5214d36c5e5063173a3bcbec9431b6dd5c9c48a904b4d5fa5d3b6250272071f30dce19759ba6be139de0a7611903bb60cbe1e2870e9edaa1e8c97b7f3b5e22b471f065de5474899d46e8d9dcc67d954904f01000000020000000b134996dddc0a8b67829df923db090a2f3d30fe4caf086b3df27d12c5302d1e83090000006a47304402207a7721f708f35d578e9c8245d0bb0c67c75108e43a385a6b40caf2ec7c9fada1022057b542251a0ff86fc9586220fa9bd3ee13b7f10f8f2fd00a7de1d27457429dc68121027a9470daa967c61c4582a9db37ffca26204527c024c34393530336e4596210d2ffffffffd5415c98d5c2852c84d5cffe8405094b7c93c9e05ca789d536eadf48a0bf0795050000006a473044022025eece8bd2faaa69427f3872de45b000f9315e0f5ee46f93dca12d3a39490c97022027ab43998b7a6a8bb5b946acf0b611b910688ecd9d8297b07a7d1194c9319451812103dc61e6807cd07e99503b5443e83f615bdbe095e904151d0193562b5951eead20ffffffffd5415c98d5c2852c84d5cffe8405094b7c93c9e05ca789d536eadf48a0bf0795080000006a47304402207365ff4a700e2bc4ed96f3ae2e5d21db313b01ec38d2b66c2f50fcd4c081f862022013e181c66a9664a59b8bcccd8e786e5db83d214e7d0eb515531690987acdfdec812102e40bc556c6b40b5d3577f6819e324eb4e87eafa14c292f97977607e511105826ffffffffd5415c98d5c2852c84d5cffe8405094b7c93c9e05ca789d536eadf48a0bf07950a0000006a47304402204fd2a1f11070664ef13077aba2ed4ae837bfd611b71fc4f67eccb3eacfea05e602204787e6bacb950ee2bbc90a6cd0e78a22110b0dcddf5f177b460a1813fa4bb11581210378d96b8e75e29470d0d9df95d5c62a3557ea9adf9dcdbe881c42a53971b42a1fffffffff6401e0005f7ccab4927c5477bc54438205319898525932454965eed7016e569b050000006a47304402207c9abebd3fca420734488e6fe1cf56b61988e7d60bba280f0ca363481533d489022057399ab17e60cc48e649ca4a8fa4dd3fbe635b07635f5ba276aa01b7dbdfeeeb81210274877952116a75db3d693045d084383775f5f3328e921aa0b90fa9d8daf0c4e5ffffffff6401e0005f7ccab4927c5477bc54438205319898525932454965eed7016e569b060000006a473044022049df426a52abe68f802c37b96ccc8b43e6bd39cc6a2067ff440fa1dbb18e765802206db0acf3517f3b1ef1b45c3164939de7516c16b54d12d8d3b8d608d26f9ecfdd8121025c160d1b6502643276f6a99a9dda80e8c7e0f2828b3877e01363f66da518cdfeffffffffc7e0124d066723dab93857a9b3d1e064a3d9f8425551bab02050770dd1339db0040000006a47304402200e8cb1c971dac40a7ad65e6f0aeb2604c82ab341aa073febe171e11bd3426f01022045da2c3c1b6b88fc9e9ff8d2af57f8a26b2370dd391efee7d5f0aa1e013c9bf0812103d12b3f334be8a476827beeec9e453c2e35c32cc1c322e1f72425eb6815f31a4affffffff289651abe28c0ea6998e8ea5110406e92c32ad3fd30dcb9398d8a6289a06e6b2010000006a47304402200689f8972cc5a5c9543d58e10f108b211fec27682ff32a83f743b189cf7f2df402203f43d24e07adbd23c31268a7ce07db377223594fbec0a0deeeddcefc564c48c0812103fc166d29b98ac7ba9e58aad643af65f66dcf76be5087579f6e1faaa9c1674005ffffffff3d3fcad42568368250f254598bedf65b13f53496960213c9f97da56c99441eda7d0000006a47304402204a7889476d96fc343f4fa801d93dba4aac793dc37393e6d4fb344ef49d3c89c502203a9f0c2cb5529cd61fb4c5308375c905026e7840abcb0b5eb2334813f59309df8121028a830bb655e23ec489792d58044ea94a38d2a7c0a184dc3dad812560751d43f8ffffffff49b96c2cab75924cf78d9e73da317c8fe256e7a37d5406e75cb362cff95f39eb040000006a47304402206c89d8f4ead84ef1184dac025c82c2771db44f67e48ebec37c4536094165c5a1022045e313f789584ebc5cb7506c698b8a39e96256e503baac61ed8b5cdaa07e15e48121038d053dbd69ca022e822db3e6b9fbd5ec14d3d46511dbe978dd6a3629d638c27cffffffffda3d7db887fd83f569df5a6ac7d7f7b9f2fc808834e5113be708457b2d0127ec000000006a47304402202bcbc453f1a9203e9c90b875130f9c9286eb6435cbae90356158950abbbaf69e02203e6512272e79997a80921cddcb826af474bf1d4eff34f3f0e68875f897fcdf9e812102b4c03bef9923788635c6c8dbbe838afe3c4dfabcd3e0732a8e6b787a7663ba7cffffffff0be8e4f505000000001976a914068063180ad934c002d56ff426cae4ce489b37c388ace8e4f505000000001976a91406de14111f3d368aa5eb56afcc79f5d73a902ceb88ace8e4f505000000001976a91426066a7d72540ffb2cec2341e58fc9a60f4da50088ace8e4f505000000001976a9142fd6667f13537459e161338b2089e2052b1c6e5f88ace8e4f505000000001976a914890f280f1a1b311ee01008072f1bcae0d713a9fc88ace8e4f505000000001976a91493ce00243155b105c48dcb002831d9f494dd6c5588ace8e4f505000000001976a914a9b24e2a59b2b60dba3cfbcce3e787bd9a09b1ec88ace8e4f505000000001976a914bd40f9ebe97c9539aaad132a77207cf5c6ba7e6888ace8e4f505000000001976a914c2f6f8d3bd9cfd96a4a2dc15fc0232929e3c0f3288ace8e4f505000000001976a914c603f318337a0d54cf17d259e773fbb1f9b72de188ace8e4f505000000001976a914c65237fa76e967c5df3eeb024c8d747e47c194f188ac00000000",
  "block_verbose": {
    "bits": "1935e62a",
    "cbTx": {
      "bestCLHeightDiff": 0,
      "bestCLSignature": "b51c409a971db436fdd001303e2297fc9886e5214d36c5e5063173a3bcbec9431b6dd5c9c48a904b4d5fa5d3b6250272071f30dce19759ba6be139de0a7611903bb60cbe1e2870e9edaa1e8c97b7f3b5e22b471f065de5474899d46e8d9dcc67",
      "creditPoolBalance": 56.29826265,
      "height": 2129000,
      "merkleRootMNList": "e58c840bf65fc8d273f72ac116e126f91de6c67a0a2cb8fe8139f99744a795d7",
      "merkleRootQuorums": "bc8006fa9afb9dbc68e6e969c8641bafc5e0f44fa2ac17dfdcbec6a2eba7d789",
      "version": 3
    },
    "chainlock": true,
    "chainwork": "000000000000000000000000000000000000000000009a26f4b2ffa4003a47f0",
    "confirmations": 344135,
    "difficulty": 79684140.9900434,
    "hash": "000000000000000e2040683889017d195098a8fb433fe6b12f3d109d06a083e5",
    "height": 2129000,
    "mediantime": 1724811068,
    "merkleroot": "7d55c5383d11b8907c9b3029f2dd539f780a9406353680e031bbbdf43606a482",
    "nTx": 2,
    "nextblockhash": "00000000000000070083f447a8619d53957d59a1e6b18e7df4e01f65b39a61ae",
    "nonce": 4085600358,
    "previousblockhash": "0000000000000017f2b42b3cda2335f21923fb6a059f6f7c99236b71bf21b49e",
    "size": 2470,
    "time": 1724812058,
    "tx": [
      {
        "cbTx": {
          "bestCLHeightDiff": 0,
          "bestCLSignature": "b51c409a971db436fdd001303e2297fc9886e5214d36c5e5063173a3bcbec9431b6dd5c9c48a904b4d5fa5d3b6250272071f30dce19759ba6be139de0a7611903bb60cbe1e2870e9edaa1e8c97b7f3b5e22b471f065de5474899d46e8d9dcc67",
          "creditPoolBalance": 56.29826265,
          "height": 2129000,
          "merkleRootMNList": "e58c840bf65fc8d273f72ac116e126f91de6c67a0a2cb8fe8139f99744a795d7",
          "merkleRootQuorums": "bc8006fa9afb9dbc68e6e969c8641bafc5e0f44fa2ac17dfdcbec6a2eba7d789",
          "version": 3
        },
        "extraPayload": "0300687c2000d795a74497f93981feb82c0a7ac6e61df926e116c12af773d2c85ff60b848ce589d7a7eba2c6bedcdf17aca24ff4e0c5af1b64c869e9e668bc9dfb9afa0680bc00b51c409a971db436fdd001303e2297fc9886e5214d36c5e5063173a3bcbec9431b6dd5c9c48a904b4d5fa5d3b6250272071f30dce19759ba6be139de0a7611903bb60cbe1e2870e9edaa1e8c97b7f3b5e22b471f065de5474899d46e8d9dcc67d954904f01000000",
        "extraPayloadSize": 175,
        "hex": "03000500010000000000000000000000000000000000000000000000000000000000000000ffffffff5303687c20041d8bce6608fabe6d6d53249febe5a9c6e7cce2bb00739c786e7980f166c3b45a1bc0e12adb48441252010000000000000000c4e639b33500008d01122f4d696e696e672d44757463682f2d3132320000000003813bd702000000001976a914c762a134542453faef37eb2b9ef3dceeb462926688acf122320300000000016a928f5305000000001976a91416fad95010cad5e05b8decc8a31d7324d0d4534e88ac00000000af0300687c2000d795a74497f93981feb82c0a7ac6e61df926e116c12af773d2c85ff60b848ce589d7a7eba2c6bedcdf17aca24ff4e0c5af1b64c869e9e668bc9dfb9afa0680bc00b51c409a971db436fdd001303e2297fc9886e5214d36c5e5063173a3bcbec9431b6dd5c9c48a904b4d5fa5d3b6250272071f30dce19759ba6be139de0a7611903bb60cbe1e2870e9edaa1e8c97b7f3b5e22b471f065de5474899d46e8d9dcc67d954904f01000000",
        "instantlock": true,
        "instantlock_internal": false,
        "locktime": 0,
        "size": 388,
        "txid": "a5f5981325cdd86f9b70d3391003b0243a84ddc7379241299699a82622a073d2",
        "type": 5,
        "version": 3,
        "vin": [
          {
            "coinbase": "03687c20041d8bce6608fabe6d6d53249febe5a9c6e7cce2bb00739c786e7980f166c3b45a1bc0e12adb48441252010000000000000000c4e639b33500008d01122f4d696e696e672d44757463682f2d313232",
            "sequence": 0
          }
        ],
        "vout": [
          {
            "n": 0,
            "scriptPubKey": {
              "address": "Xts6TLf8gdjdxRon7L794WRC53Le7H7D9n",
              "asm": "OP_DUP OP_HASH160 c762a134542453faef37eb2b9ef3dceeb4629266 OP_EQUALVERIFY OP_CHECKSIG",
              "desc": "addr(Xts6TLf8gdjdxRon7L794WRC53Le7H7D9n)#uvrlqcg4",
              "hex": "76a914c762a134542453faef37eb2b9ef3dceeb462926688ac",
              "type": "pubkeyhash"
            },
            "value": 0.47659905,
            "valueSat": 47659905
          },
          {
            "n": 1,
            "scriptPubKey": {
              "asm": "OP_RETURN",
              "desc": "raw(6a)#4mhr9ur5",
              "hex": "6a",
              "type": "nulldata"
            },
            "value": 0.53617393,
            "valueSat": 53617393
          },
          {
            "n": 2,
            "scriptPubKey": {
              "address": "XcnMCkzdNFnQA19LM7xS6mR9JqP8gz9c3j",
              "asm": "OP_DUP OP_HASH160 16fad95010cad5e05b8decc8a31d7324d0d4534e OP_EQUALVERIFY OP_CHECKSIG",
              "desc": "addr(XcnMCkzdNFnQA19LM7xS6mR9JqP8gz9c3j)#9zfjqch4",
              "hex": "76a91416fad95010cad5e05b8decc8a31d7324d0d4534e88ac",
              "type": "pubkeyhash"
            },
            "value": 0.89362322,
            "valueSat": 89362322
          }
        ]
      },
      {
        "fee": 0.0,
        "hex": "020000000b134996dddc0a8b67829df923db090a2f3d30fe4caf086b3df27d12c5302d1e83090000006a47304402207a7721f708f35d578e9c8245d0bb0c67c75108e43a385a6b40caf2ec7c9fada1022057b542251a0ff86fc9586220fa9bd3ee13b7f10f8f2fd00a7de1d27457429dc68121027a9470daa967c61c4582a9db37ffca26204527c024c34393530336e4596210d2ffffffffd5415c98d5c2852c84d5cffe8405094b7c93c9e05ca789d536eadf48a0bf0795050000006a473044022025eece8bd2faaa69427f3872de45b000f9315e0f5ee46f93dca12d3a39490c97022027ab43998b7a6a8bb5b946acf0b611b910688ecd9d8297b07a7d1194c9319451812103dc61e6807cd07e99503b5443e83f615bdbe095e904151d0193562b5951eead20ffffffffd5415c98d5c2852c84d5cffe8405094b7c93c9e05ca789d536eadf48a0bf0795080000006a47304402207365ff4a700e2bc4ed96f3ae2e5d21db313b01ec38d2b66c2f50fcd4c081f862022013e181c66a9664a59b8bcccd8e786e5db83d214e7d0eb515531690987acdfdec812102e40bc556c6b40b5d3577f6819e324eb4e87eafa14c292f97977607e511105826ffffffffd5415c98d5c2852c84d5cffe8405094b7c93c9e05ca789d536eadf48a0bf07950a0000006a47304402204fd2a1f11070664ef13077aba2ed4ae837bfd611b71fc4f67eccb3eacfea05e602204787e6bacb950ee2bbc90a6cd0e78a22110b0dcddf5f177b460a1813fa4bb11581210378d96b8e75e29470d0d9df95d5c62a3557ea9adf9dcdbe881c42a53971b42a1fffffffff6401e0005f7ccab4927c5477bc54438205319898525932454965eed7016e569b050000006a47304402207c9abebd3fca420734488e6fe1cf56b61988e7d60bba280f0ca363481533d489022057399ab17e60cc48e649ca4a8fa4dd3fbe635b07635f5ba276aa01b7dbdfeeeb81210274877952116a75db3d693045d084383775f5f3328e921aa0b90fa9d8daf0c4e5ffffffff6401e0005f7ccab4927c5477bc54438205319898525932454965eed7016e569b060000006a473044022049df426a52abe68f802c37b96ccc8b43e6bd39cc6a2067ff440fa1dbb18e765802206db0acf3517f3b1ef1b45c3164939de7516c16b54d12d8d3b8d608d26f9ecfdd8121025c160d1b6502643276f6a99a9dda80e8c7e0f2828b3877e01363f66da518cdfeffffffffc7e0124d066723dab93857a9b3d1e064a3d9f8425551bab02050770dd1339db0040000006a47304402200e8cb1c971dac40a7ad65e6f0aeb2604c82ab341aa073febe171e11bd3426f01022045da2c3c1b6b88fc9e9ff8d2af57f8a26b2370dd391efee7d5f0aa1e013c9bf0812103d12b3f334be8a476827beeec9e453c2e35c32cc1c322e1f72425eb6815f31a4affffffff289651abe28c0ea6998e8ea5110406e92c32ad3fd30dcb9398d8a6289a06e6b2010000006a47304402200689f8972cc5a5c9543d58e10f108b211fec27682ff32a83f743b189cf7f2df402203f43d24e07adbd23c31268a7ce07db377223594fbec0a0deeeddcefc564c48c0812103fc166d29b98ac7ba9e58aad643af65f66dcf76be5087579f6e1faaa9c1674005ffffffff3d3fcad42568368250f254598bedf65b13f53496960213c9f97da56c99441eda7d0000006a47304402204a7889476d96fc343f4fa801d93dba4aac793dc37393e6d4fb344ef49d3c89c502203a9f0c2cb5529cd61fb4c5308375c905026e7840abcb0b5eb2334813f59309df8121028a830bb655e23ec489792d58044ea94a38d2a7c0a184dc3dad812560751d43f8ffffffff49b96c2cab75924cf78d9e73da317c8fe256e7a37d5406e75cb362cff95f39eb040000006a47304402206c89d8f4ead84ef1184dac025c82c2771db44f67e48ebec37c4536094165c5a1022045e313f789584ebc5cb7506c698b8a39e96256e503baac61ed8b5cdaa07e15e48121038d053dbd69ca022e822db3e6b9fbd5ec14d3d46511dbe978dd6a3629d638c27cffffffffda3d7db887fd83f569df5a6ac7d7f7b9f2fc808834e5113be708457b2d0127ec000000006a47304402202bcbc453f1a9203e9c90b875130f9c9286eb6435cbae90356158950abbbaf69e02203e6512272e79997a80921cddcb826af474bf1d4eff34f3f0e68875f897fcdf9e812102b4c03bef9923788635c6c8dbbe838afe3c4dfabcd3e0732a8e6b787a7663ba7cffffffff0be8e4f505000000001976a914068063180ad934c002d56ff426cae4ce489b37c388ace8e4f505000000001976a91406de14111f3d368aa5eb56afcc79f5d73a902ceb88ace8e4f505000000001976a91426066a7d72540ffb2cec2341e58fc9a60f4da50088ace8e4f505000000001976a9142fd6667f13537459e161338b2089e2052b1c6e5f88ace8e4f505000000001976a914890f280f1a1b311ee01008072f1bcae0d713a9fc88ace8e4f505000000001976a91493ce00243155b105c48dcb002831d9f494dd6c5588ace8e4f505000000001976a914a9b24e2a59b2b60dba3cfbcce3e787bd9a09b1ec88ace8e4f505000000001976a914bd40f9ebe97c9539aaad132a77207cf5c6ba7e6888ace8e4f505000000001976a914c2f6f8d3bd9cfd96a4a2dc15fc0232929e3c0f3288ace8e4f505000000001976a914c603f318337a0d54cf17d259e773fbb1f9b72de188ace8e4f505000000001976a914c65237fa76e967c5df3eeb024c8d747e47c194f188ac00000000",
        "instantlock": true,
        "instantlock_internal": false,
        "locktime": 0,
        "size": 2001,
        "txid": "082faeba7bb9a874ec15775ecabc9d6601e19f93ed5cbd8a3ef23d4b05ba126d",
        "type": 0,
        "version": 2,
        "vin": [
          {
            "scriptSig": {
              "asm": "304402207a7721f708f35d578e9c8245d0bb0c67c75108e43a385a6b40caf2ec7c9fada1022057b542251a0ff86fc9586220fa9bd3ee13b7f10f8f2fd00a7de1d27457429dc6[ALL|ANYONECANPAY] 027a9470daa967c61c4582a9db37ffca26204527c024c34393530336e4596210d2",
              "hex": "47304402207a7721f708f35d578e9c8245d0bb0c67c75108e43a385a6b40caf2ec7c9fada1022057b542251a0ff86fc9586220fa9bd3ee13b7f10f8f2fd00a7de1d27457429dc68121027a9470daa967c61c4582a9db37ffca26204527c024c34393530336e4596210d2"
            },
            "sequence": 4294967295,
            "txid": "831e2d30c5127df23d6b08af4cfe303d2f0a09db23f99d82678b0adcdd964913",
            "vout": 9
          },
          {
            "scriptSig": {
              "asm": "3044022025eece8bd2faaa69427f3872de45b000f9315e0f5ee46f93dca12d3a39490c97022027ab43998b7a6a8bb5b946acf0b611b910688ecd9d8297b07a7d1194c9319451[ALL|ANYONECANPAY] 03dc61e6807cd07e99503b5443e83f615bdbe095e904151d0193562b5951eead20",
              "hex": "473044022025eece8bd2faaa69427f3872de45b000f9315e0f5ee46f93dca12d3a39490c97022027ab43998b7a6a8bb5b946acf0b611b910688ecd9d8297b07a7d1194c9319451812103dc61e6807cd07e99503b5443e83f615bdbe095e904151d0193562b5951eead20"
            },
            "sequence": 4294967295,
            "txid": "9507bfa048dfea36d589a75ce0c9937c4b090584fecfd5842c85c2d5985c41d5",
            "vout": 5
          },
          {
            "scriptSig": {
              "asm": "304402207365ff4a700e2bc4ed96f3ae2e5d21db313b01ec38d2b66c2f50fcd4c081f862022013e181c66a9664a59b8bcccd8e786e5db83d214e7d0eb515531690987acdfdec[ALL|ANYONECANPAY] 02e40bc556c6b40b5d3577f6819e324eb4e87eafa14c292f97977607e511105826",
              "hex": "47304402207365ff4a700e2bc4ed96f3ae2e5d21db313b01ec38d2b66c2f50fcd4c081f862022013e181c66a9664a59b8bcccd8e786e5db83d214e7d0eb515531690987acdfdec812102e40bc556c6b40b5d3577f6819e324eb4e87eafa14c292f97977607e511105826"
            },
            "sequence": 4294967295,
            "txid": "9507bfa048dfea36d589a75ce0c9937c4b090584fecfd5842c85c2d5985c41d5",
            "vout": 8
          },
          {
            "scriptSig": {
              "asm": "304402204fd2a1f11070664ef13077aba2ed4ae837bfd611b71fc4f67eccb3eacfea05e602204787e6bacb950ee2bbc90a6cd0e78a22110b0dcddf5f177b460a1813fa4bb115[ALL|ANYONECANPAY] 0378d96b8e75e29470d0d9df95d5c62a3557ea9adf9dcdbe881c42a53971b42a1f",
              "hex": "47304402204fd2a1f11070664ef13077aba2ed4ae837bfd611b71fc4f67eccb3eacfea05e602204787e6bacb950ee2bbc90a6cd0e78a22110b0dcddf5f177b460a1813fa4bb11581210378d96b8e75e29470d0d9df95d5c62a3557ea9adf9dcdbe881c42a53971b42a1f"
            },
            "sequence": 4294967295,
            "txid": "9507bfa048dfea36d589a75ce0c9937c4b090584fecfd5842c85c2d5985c41d5",
            "vout": 10
          },
          {
            "scriptSig": {
              "asm": "304402207c9abebd3fca420734488e6fe1cf56b61988e7d60bba280f0ca363481533d489022057399ab17e60cc48e649ca4a8fa4dd3fbe635b07635f5ba276aa01b7dbdfeeeb[ALL|ANYONECANPAY] 0274877952116a75db3d693045d084383775f5f3328e921aa0b90fa9d8daf0c4e5",
              "hex": "47304402207c9abebd3fca420734488e6fe1cf56b61988e7d60bba280f0ca363481533d489022057399ab17e60cc48e649ca4a8fa4dd3fbe635b07635f5ba276aa01b7dbdfeeeb81210274877952116a75db3d693045d084383775f5f3328e921aa0b90fa9d8daf0c4e5"
            },
            "sequence": 4294967295,
            "txid": "9b566e01d7ee65494532595298983105824354bc77547c92b4ca7c5f00e00164",
            "vout": 5
          },
          {
            "scriptSig": {
              "asm": "3044022049df426a52abe68f802c37b96ccc8b43e6bd39cc6a2067ff440fa1dbb18e765802206db0acf3517f3b1ef1b45c3164939de7516c16b54d12d8d3b8d608d26f9ecfdd[ALL|ANYONECANPAY] 025c160d1b6502643276f6a99a9dda80e8c7e0f2828b3877e01363f66da518cdfe",
              "hex": "473044022049df426a52abe68f802c37b96ccc8b43e6bd39cc6a2067ff440fa1dbb18e765802206db0acf3517f3b1ef1b45c3164939de7516c16b54d12d8d3b8d608d26f9ecfdd8121025c160d1b6502643276f6a99a9dda80e8c7e0f2828b3877e01363f66da518cdfe"
            },
            "sequence": 4294967295,
            "txid": "9b566e01d7ee65494532595298983105824354bc77547c92b4ca7c5f00e00164",
            "vout": 6
          },
          {
            "scriptSig": {
              "asm": "304402200e8cb1c971dac40a7ad65e6f0aeb2604c82ab341aa073febe171e11bd3426f01022045da2c3c1b6b88fc9e9ff8d2af57f8a26b2370dd391efee7d5f0aa1e013c9bf0[ALL|ANYONECANPAY] 03d12b3f334be8a476827beeec9e453c2e35c32cc1c322e1f72425eb6815f31a4a",
              "hex": "47304402200e8cb1c971dac40a7ad65e6f0aeb2604c82ab341aa073febe171e11bd3426f01022045da2c3c1b6b88fc9e9ff8d2af57f8a26b2370dd391efee7d5f0aa1e013c9bf0812103d12b3f334be8a476827beeec9e453c2e35c32cc1c322e1f72425eb6815f31a4a"
            },
            "sequence": 4294967295,
            "txid": "b09d33d10d775020b0ba515542f8d9a364e0d1b3a95738b9da2367064d12e0c7",
            "vout": 4
          },
          {
            "scriptSig": {
              "asm": "304402200689f8972cc5a5c9543d58e10f108b211fec27682ff32a83f743b189cf7f2df402203f43d24e07adbd23c31268a7ce07db377223594fbec0a0deeeddcefc564c48c0[ALL|ANYONECANPAY] 03fc166d29b98ac7ba9e58aad643af65f66dcf76be5087579f6e1faaa9c1674005",
              "hex": "47304402200689f8972cc5a5c9543d58e10f108b211fec27682ff32a83f743b189cf7f2df402203f43d24e07adbd23c31268a7ce07db377223594fbec0a0deeeddcefc564c48c0812103fc166d29b98ac7ba9e58aad643af65f66dcf76be5087579f6e1faaa9c1674005"
            },
            "sequence": 4294967295,
            "txid": "b2e6069a28a6d89893cb0dd33fad322ce9060411a58e8e99a60e8ce2ab519628",
            "vout": 1
          },
          {
            "scriptSig": {
              "asm": "304402204a7889476d96fc343f4fa801d93dba4aac793dc37393e6d4fb344ef49d3c89c502203a9f0c2cb5529cd61fb4c5308375c905026e7840abcb0b5eb2334813f59309df[ALL|ANYONECANPAY] 028a830bb655e23ec489792d58044ea94a38d2a7c0a184dc3dad812560751d43f8",
              "hex": "47304402204a7889476d96fc343f4fa801d93dba4aac793dc37393e6d4fb344ef49d3c89c502203a9f0c2cb5529cd61fb4c5308375c905026e7840abcb0b5eb2334813f59309df8121028a830bb655e23ec489792d58044ea94a38d2a7c0a184dc3dad812560751d43f8"
            },
            "sequence": 4294967295,
            "txid": "da1e44996ca57df9c91302969634f5135bf6ed8b5954f25082366825d4ca3f3d",
            "vout": 125
          },
          {
            "scriptSig": {
              "asm": "304402206c89d8f4ead84ef1184dac025c82c2771db44f67e48ebec37c4536094165c5a1022045e313f789584ebc5cb7506c698b8a39e96256e503baac61ed8b5cdaa07e15e4[ALL|ANYONECANPAY] 038d053dbd69ca022e822db3e6b9fbd5ec14d3d46511dbe978dd6a3629d638c27c",
              "hex": "47304402206c89d8f4ead84ef1184dac025c82c2771db44f67e48ebec37c4536094165c5a1022045e313f789584ebc5cb7506c698b8a39e96256e503baac61ed8b5cdaa07e15e48121038d053dbd69ca022e822db3e6b9fbd5ec14d3d46511dbe978dd6a3629d638c27c"
            },
            "sequence": 4294967295,
            "txid": "eb395ff9cf62b35ce706547da3e756e28f7c31da739e8df74c9275ab2c6cb949",
            "vout": 4
          },
          {
            "scriptSig": {
              "asm": "304402202bcbc453f1a9203e9c90b875130f9c9286eb6435cbae90356158950abbbaf69e02203e6512272e79997a80921cddcb826af474bf1d4eff34f3f0e68875f897fcdf9e[ALL|ANYONECANPAY] 02b4c03bef9923788635c6c8dbbe838afe3c4dfabcd3e0732a8e6b787a7663ba7c",
              "hex": "47304402202bcbc453f1a9203e9c90b875130f9c9286eb6435cbae90356158950abbbaf69e02203e6512272e79997a80921cddcb826af474bf1d4eff34f3f0e68875f897fcdf9e812102b4c03bef9923788635c6c8dbbe838afe3c4dfabcd3e0732a8e6b787a7663ba7c"
            },
            "sequence": 4294967295,
            "txid": "ec27012d7b4508e73b11e5348880fcf2b9f7d7c76a5adf69f583fd87b87d3dda",
            "vout": 0
          }
        ],
        "vout": [
          {
            "n": 0,
            "scriptPubKey": {
              "address": "XbHDgttqwHRZY2zKxoG7Hny9rnfrvkar9L",
              "asm": "OP_DUP OP_HASH160 068063180ad934c002d56ff426cae4ce489b37c3 OP_EQUALVERIFY OP_CHECKSIG",
              "desc": "addr(XbHDgttqwHRZY2zKxoG7Hny9rnfrvkar9L)#pq9k9ln2",
              "hex": "76a914068063180ad934c002d56ff426cae4ce489b37c388ac",
              "type": "pubkeyhash"
            },
            "value": 1.00001,
            "valueSat": 100001000
          },
          {
            "n": 1,
            "scriptPubKey": {
              "address": "XbK9vgTvCD4SfrFvtxFWv7wv7CehNJ6dgA",
              "asm": "OP_DUP OP_HASH160 06de14111f3d368aa5eb56afcc79f5d73a902ceb OP_EQUALVERIFY OP_CHECKSIG",
              "desc": "addr(XbK9vgTvCD4SfrFvtxFWv7wv7CehNJ6dgA)#flc3v8rx",
              "hex": "76a91406de14111f3d368aa5eb56afcc79f5d73a902ceb88ac",
              "type": "pubkeyhash"
            },
            "value": 1.00001,
            "valueSat": 100001000
          },
          {
            "n": 2,
            "scriptPubKey": {
              "address": "Xe9uCLG6eqyXDJTq4J24diowmzq5CcqcUF",
              "asm": "OP_DUP OP_HASH160 26066a7d72540ffb2cec2341e58fc9a60f4da500 OP_EQUALVERIFY OP_CHECKSIG",
              "desc": "addr(Xe9uCLG6eqyXDJTq4J24diowmzq5CcqcUF)#aatftjnl",
              "hex": "76a91426066a7d72540ffb2cec2341e58fc9a60f4da50088ac",
              "type": "pubkeyhash"
            },
            "value": 1.00001,
            "valueSat": 100001000
          },
          {
            "n": 3,
            "scriptPubKey": {
              "address": "Xf3nS4wjGJoW4NUKnwNgoLis8WLJsBQhRp",
              "asm": "OP_DUP OP_HASH160 2fd6667f13537459e161338b2089e2052b1c6e5f OP_EQUALVERIFY OP_CHECKSIG",
              "desc": "addr(Xf3nS4wjGJoW4NUKnwNgoLis8WLJsBQhRp)#qqu3u7qr",
              "hex": "76a9142fd6667f13537459e161338b2089e2052b1c6e5f88ac",
              "type": "pubkeyhash"
            },
            "value": 1.00001,
            "valueSat": 100001000
          },
          {
            "n": 4,
            "scriptPubKey": {
              "address": "XoBYZdCbAUFRXTwg21MMUUC8xNvcEV89D8",
              "asm": "OP_DUP OP_HASH160 890f280f1a1b311ee01008072f1bcae0d713a9fc OP_EQUALVERIFY OP_CHECKSIG",
              "desc": "addr(XoBYZdCbAUFRXTwg21MMUUC8xNvcEV89D8)#chamh76t",
              "hex": "76a914890f280f1a1b311ee01008072f1bcae0d713a9fc88ac",
              "type": "pubkeyhash"
            },
            "value": 1.00001,
            "valueSat": 100001000
          },
          {
            "n": 5,
            "scriptPubKey": {
              "address": "XpAMwd26DToSWnZvTupDMvBvKNJPd6J12t",
              "asm": "OP_DUP OP_HASH160 93ce00243155b105c48dcb002831d9f494dd6c55 OP_EQUALVERIFY OP_CHECKSIG",
              "desc": "addr(XpAMwd26DToSWnZvTupDMvBvKNJPd6J12t)#3mqmsw7e",
              "hex": "76a91493ce00243155b105c48dcb002831d9f494dd6c5588ac",
              "type": "pubkeyhash"
            },
            "value": 1.00001,
            "valueSat": 100001000
          },
          {
            "n": 6,
            "scriptPubKey": {
              "address": "XrA7dYYDma3uG1dFH87XAz5ys74F9QymWV",
              "asm": "OP_DUP OP_HASH160 a9b24e2a59b2b60dba3cfbcce3e787bd9a09b1ec OP_EQUALVERIFY OP_CHECKSIG",
              "desc": "addr(XrA7dYYDma3uG1dFH87XAz5ys74F9QymWV)#g25v9x6g",
              "hex": "76a914a9b24e2a59b2b60dba3cfbcce3e787bd9a09b1ec88ac",
              "type": "pubkeyhash"
            },
            "value": 1.00001,
            "valueSat": 100001000
          },
          {
            "n": 7,
            "scriptPubKey": {
              "address": "XswXP91FfDhQdqwtRD6ZviD6ruoAxYg4vT",
              "asm": "OP_DUP OP_HASH160 bd40f9ebe97c9539aaad132a77207cf5c6ba7e68 OP_EQUALVERIFY OP_CHECKSIG",
              "desc": "addr(XswXP91FfDhQdqwtRD6ZviD6ruoAxYg4vT)#a7ak0rxz",
              "hex": "76a914bd40f9ebe97c9539aaad132a77207cf5c6ba7e6888ac",
              "type": "pubkeyhash"
            },
            "value": 1.00001,
            "valueSat": 100001000
          },
          {
            "n": 8,
            "scriptPubKey": {
              "address": "XtTinP9RF4YHmbUQpCqNLgrqEt1QafwMx9",
              "asm": "OP_DUP OP_HASH160 c2f6f8d3bd9cfd96a4a2dc15fc0232929e3c0f32 OP_EQUALVERIFY OP_CHECKSIG",
              "desc": "addr(XtTinP9RF4YHmbUQpCqNLgrqEt1QafwMx9)#8yz46usu",
              "hex": "76a914c2f6f8d3bd9cfd96a4a2dc15fc0232929e3c0f3288ac",
              "type": "pubkeyhash"
            },
            "value": 1.00001,
            "valueSat": 100001000
          },
          {
            "n": 9,
            "scriptPubKey": {
              "address": "XtjrMf81HZBKMVeAME8zvQK8QkohsHYKZd",
              "asm": "OP_DUP OP_HASH160 c603f318337a0d54cf17d259e773fbb1f9b72de1 OP_EQUALVERIFY OP_CHECKSIG",
              "desc": "addr(XtjrMf81HZBKMVeAME8zvQK8QkohsHYKZd)#jk0s4fjj",
              "hex": "76a914c603f318337a0d54cf17d259e773fbb1f9b72de188ac",
              "type": "pubkeyhash"
            },
            "value": 1.00001,
            "valueSat": 100001000
          },
          {
            "n": 10,
            "scriptPubKey": {
              "address": "XtmU7tWZfGUtsTi3p13rXAADCxQHhNjmdF",
              "asm": "OP_DUP OP_HASH160 c65237fa76e967c5df3eeb024c8d747e47c194f1 OP_EQUALVERIFY OP_CHECKSIG",
              "desc": "addr(XtmU7tWZfGUtsTi3p13rXAADCxQHhNjmdF)#ccfjkzu6",
              "hex": "76a914c65237fa76e967c5df3eeb024c8d747e47c194f188ac",
              "type": "pubkeyhash"
            },
            "value": 1.00001,
            "valueSat": 100001000
          }
        ]
      }
    ],
    "version": 536870912,
    "versionHex": "20000000"
  },
  "height": 2129000
}