{
  "block_hash": "000000000000000d1af7c7f2ef3ad28bf87ef52c5820d05d128cc8a43ded2237",
  "block_hex": "00000020efaf4f91d0fe690761080cf85c7538b0cb3c6b33c394456125000000000000004cc2ed20dd501ac8fdca6231a4c6b974db2a461c36e2457b19ff44f83545cc0f9399fd674e052319d615a7410503000500010000000000000000000000000000000000000000000000000000000000000000ffffffff2f03986822192f5669614254432f4d696e6564206279206d65726d6572372f10a7fd6400fa624833642f22cbe3370100ffffffff031046d702000000001976a914bc89d6071dabc5b4494d303af761a052a5c70d5788acf122320300000000016a3daf5305000000001976a91450e56be5b09510291335585ee01e6662a2e2270888ac00000000af0300986822007ecc1b16a9c6e13341a7c43b2c17783f38455eb9c6b730685f02fea7e5329c114ade4c1c6184b927e503c0eee71726f58cff28cad3301aafb9ebd925d109160a00b8e83c388ae330148172a659b17525cdf211d56b5572752a539e70909cc6079ba270561259ebcfec138f2a8dbb0470a400de763a6e5f4ea51ad0201cfa922f1c2701e00d692e829f64d5a6c383fb99bfa768784e20938a9592bdbd95b6a074834d74fca83c0100000200000003eab8cd821008c7486b85187618c87ad6eae762e8978f48b0027ccc852df94d13000000006a47304402204d8602bf538766899b29671e7f3cd85cdb1bd327ef65feb6795b2b32362b35a502206ae37e50c7f1ee4f80f11075bef26e02a123056de2896c5ad6450b027a91cec08121029f91ff6b8b18db8cd5f6d870a71054c881ae190aeacbc6e1abe2da0033f41374ffffffffe5d2a7963c6a308a532fc3b7a81a559e40ca001593415af945daf0b101479386040000006a473044022011f88992aef45d131b7dcfa40748fa087d701a4f9c4d8f0a8fcba0d8c5aae7950220437e5bfbc05e2de3b75a1f43b51a729536509964b85b321ba9e789dad494acd5812103ae319d99d92d3f35b0e8fdb8c9ec24d2d4270124683986d6a3c890e83b560965ffffffff75a84555846cc662d23d7bab0211ef961f9a45a27661ed7f7168c1f3dca879d3010000006a47304402200a759c2dbfd8d2c78dd391e5a36516bfff7dfd9d6e7011a3b7fd117ecfa3018e02204df7eadd72cf1aa2036c885a38b25fa84ebd8cd5827fab783df02e18c89510ec812103467a6b79ec92554ffb6008b96e22dab03fb640328df670824d41831487434296ffffffff034a420f00000000001976a9141fc14b85d65486c5fd17cfc6ec1af1cc3dbc6b0088ac4a420f00000000001976a9143eafcff4b832be34e9f78166829e964e2292428a88ac4a420f00000000001976a9147bc164787b970ad6278c219e98146d10936c1cef88ac0000000002000000068e9001359bf67f2b859ab0aeac3ff24896d756b45fd35a6a280f00df991e7c12030000006a4730440220476c4234399143265a8838a0409353be217e3ec6aef95e7df746bdcdfcc764f602207ca3fa803473204a98a14a625e4c2a2db74804c02480ca4805e8da8c141e0780812103ade4a16bf84e3d7dc0be2782442e99ecbb7970d60e2a155d8787dabdc347d83ffffffffff7731a335926aad2cc5247fb360c206431f0bb1bb73ec38fd8023db2a3caba37000000006a47304402205585b14f837a8158324f9a1b2a9bbc92e2011fa429441d9cedbc57ab2dddb408022006ad91e1808491206de8f7637997181dcfb1bb5f04b41f41b8b77eadac38065581210273c6c1e52c74fc2744386769846b0264694445ad25fb31c35059ccfe0d75717dffffffffe5d2a7963c6a308a532fc3b7a81a559e40ca001593415af945daf0b101479386020000006a47304402205d008e608a233377b77cbd807b8fcbd41d0f18cb13c6ed5185eb9c09f6ab1a32022029dc95f22d196c2bc592722291660418a01cee14119ef32277807600aebcf5b0812102bb5fe53fdfcae02395a1c72e2d664c2460bd3123f2c2e9f794d43db81e77461cffffffff038eaadfa5401df373b9d2912101af3394afe803d50b8930cfa9caf17f75a195020000006a47304402200616fa04e97021fd4cae214146d45eada15d31575d602fded659804bfa5e5eb702201cf9b41d4394445489d699c09f0058eca4d3e86c065c90005cbb8c3fc4e0750f812103d8c0809146e864668aa3ee624d9bf641746aae9461c361c06d59e7a3904db722fffffffff76fd5694a1014da1ed7032010b952de9a8332f3d303621a902ca2b0a340b6b7060000006a47304402200b0a4948a7ef42afe4de162c0cd79c6b2290f7c5a544ac896ad86b25df231cd102207ce76d4a402f77404acf1fbb2e9d7bc67d0542a30a2fa7bc36a4dd999228dc1b812103eb2aad18462b9efdc3e39526e08de312b049998675134130905d0c24192f321bfffffffff04f3a7ef94e7263ccdf4a06398e31cc2476b8b08eda422bf6bd3200acb064de020000006a4730440220273292c2071ab95a34106a51274d6d475a22cf6cde2a79146a1728bce4e9c24f0220629331210e7a91ad7c2d5955610a891f3c8f1f466481723c58414d9eb9838525812103a87655b7d8712f1d806be7aa4bb65e4356388248b51281aba68332173502abc2ffffffff064a420f00000000001976a9140bf1ae6fad7ee136232cc72eaacd7e981ad3b67c88ac4a420f00000000001976a9147362b0bdcd67aadb0cefcbbe44bf91b9fab831a988ac4a420f00000000001976a914910127dbbc3a9c9916f3cc447e41d87ed8a3510288ac4a420f00000000001976a914a8a1d53bdf1bfb5c1b88f924c6f3a4d87936166088ac4a420f00000000001976a914b3e042610a0280e3e70ff48f09fa25288e1bdb6488ac4a420f00000000001976a914bba6d594c75ecf38ad2f20a15c0fd00a7775ee4588ac000000000100000002ffff2644c9679d10a709b62485d7b8f4b06180df58f8279f7d15e740e757b2b0000000006b483045022100e4dbea21c98bb94adab6fee1af76d0e6d6841df79902212cf0fada89ab2df7850220698e1d3478899e8c9777ca11515cfbad16512f151a7661cbf6107c6b196174f4012102f37eefa60a9dfbe61c91389d095b4b2f49092c5a1d00269e6171d9d3f6308c00ffffffff58932cbca60f3d3a3438b92366a3f03cc2dbf536e89791e2381674eba51aa3b6000000006b4830450221009ba625f3fcb1508cd0060c8a0978b974562f9c381b831fc493f03309a0d254d602207ae649ac5bab9852176f5e6ba0ba5f3755ed112f69c4f1a4aefae08472541bd1012102f37eefa60a9dfbe61c91389d095b4b2f49092c5a1d00269e6171d9d3f6308c00ffffffff01fd5c541f010000001976a9149bfe3b77d98d1f170d3c335b6422d93c5cc1eb8488ac000000000100000001b87d0563743f5799c836052e6c147e3f08d10e6427bc7a0a7fc7922939876ead000000006b483045022100ba4955d83e0182beebe6d08a2e3d14e60c3105c0cf36d0d481424a3c718543e5022057b0fc030d7bf579029bbf4efb83aaa30c261d100e1e663ee8cd3db778ab34c701210373cd8468fc7bccd9828c4c6c5c9a6d50867d200763fe6f39e1ab45b6d38e8b3affffffff0229d0dc1f000000001976a9148a1d78e186aac87e72b7b7c515eb9b0e1e34fd0c88ac01848007000000001976a91449e22867136cb0641fb1206bcee4000b6d8e0ca488ac00000000",
  "block_verbose": {
    "bits": "1923054e",
    "cbTx": {
      "bestCLHeightDiff": 0,
      "bestCLSignature": "b8e83c388ae330148172a659b17525cdf211d56b5572752a539e70909cc6079ba270561259ebcfec138f2a8dbb0470a400de763a6e5f4ea51ad0201cfa922f1c2701e00d692e829f64d5a6c383fb99bfa768784e20938a9592bdbd95b6a07483",
      "creditPoolBalance": 13600.44782669,
      "height": 2255000,
      "merkleRootMNList": "119c32e5a7fe025f6830b7c6b95e45383f78172c3bc4a74133e1c6a9161bcc7e",
      "merkleRootQuorums": "0a1609d125d9ebb9af1a30d3ca28ff8cf52617e7eec003e527b984611c4cde4a",
      "version": 3
    },
    "chainlock": true,
    "chainwork": "00000000000000000000000000000000000000000000a6eff31a8f8d3d8c05cb",
    "confirmations": 218135,
    "difficulty": 122638871.6150368,
    "hash": "000000000000000d1af7c7f2ef3ad28bf87ef52c5820d05d128cc8a43ded2237",
    "height": 2255000,
    "mediantime": 1744672821,
    "merkleroot": "0fcc4535f844ff197b45e2361c462adb74b9c6a43162cafdc81a50dd20edc24c",
    "nTx": 5,
    "nextblockhash": "00000000000000163b4ee0ad0be284a44afb2d97adee79824193fd28ba5aabe5",
    "nonce": 1101469142,
    "previousblockhash": "0000000000000025614594c3336b3ccbb038755cf80c08610769fed0914fafef",
    "size": 2648,
    "time": 1744673171,
    "tx": [
      {
        "cbTx": {
          "bestCLHeightDiff": 0,
          "bestCLSignature": "b8e83c388ae330148172a659b17525cdf211d56b5572752a539e70909cc6079ba270561259ebcfec138f2a8dbb0470a400de763a6e5f4ea51ad0201cfa922f1c2701e00d692e829f64d5a6c383fb99bfa768784e20938a9592bdbd95b6a07483",
          "creditPoolBalance": 13600.44782669,
          "height": 2255000,
          "merkleRootMNList": "119c32e5a7fe025f6830b7c6b95e45383f78172c3bc4a74133e1c6a9161bcc7e",
          "merkleRootQuorums": "0a1609d125d9ebb9af1a30d3ca28ff8cf52617e7eec003e527b984611c4cde4a",
          "version": 3
        },
        "extraPayload": "0300986822007ecc1b16a9c6e13341a7c43b2c17783f38455eb9c6b730685f02fea7e5329c114ade4c1c6184b927e503c0eee71726f58cff28cad3301aafb9ebd925d109160a00b8e83c388ae330148172a659b17525cdf211d56b5572752a539e70909cc6079ba270561259ebcfec138f2a8dbb0470a400de763a6e5f4ea51ad0201cfa922f1c2701e00d692e829f64d5a6c383fb99bfa768784e20938a9592bdbd95b6a074834d74fca83c010000",
        "extraPayloadSize": 175,
        "hex": "03000500010000000000000000000000000000000000000000000000000000000000000000ffffffff2f03986822192f5669614254432f4d696e6564206279206d65726d6572372f10a7fd6400fa624833642f22cbe3370100ffffffff031046d702000000001976a914bc89d6071dabc5b4494d303af761a052a5c70d5788acf122320300000000016a3daf5305000000001976a91450e56be5b09510291335585ee01e6662a2e2270888ac00000000af0300986822007ecc1b16a9c6e13341a7c43b2c17783f38455eb9c6b730685f02fea7e5329c114ade4c1c6184b927e503c0eee71726f58cff28cad3301aafb9ebd925d109160a00b8e83c388ae330148172a659b17525cdf211d56b5572752a539e70909cc6079ba270561259ebcfec138f2a8dbb0470a400de763a6e5f4ea51ad0201cfa922f1c2701e00d692e829f64d5a6c383fb99bfa768784e20938a9592bdbd95b6a074834d74fca83c010000",
        "instantlock": true,
        "instantlock_internal": false,
        "locktime": 0,
        "size": 352,
        "txid": "9a6452a194d83834dc630c73a114bf79cf20b75f3bd28d012d63e656ee56a018",
        "type": 5,
        "version": 3,
        "vin": [
          {
            "coinbase": "03986822192f5669614254432f4d696e6564206279206d65726d6572372f10a7fd6400fa624833642f22cbe3370100",
            "sequence": 4294967295
          }
        ],
        "vout": [
          {
            "n": 0,
            "scriptPubKey": {
              "address": "XssjzLKgsfATYGqTQmiJURQzeKdpL5K1k3",
              "asm": "OP_DUP OP_HASH160 bc89d6071dabc5b4494d303af761a052a5c70d57 OP_EQUALVERIFY OP_CHECKSIG",
              "desc": "addr(XssjzLKgsfATYGqTQmiJURQzeKdpL5K1k3)#sr65vy9j",
              "hex": "76a914bc89d6071dabc5b4494d303af761a052a5c70d5788ac",
              "type": "pubkeyhash"
            },
            "value": 0.47662608,
            "valueSat": 47662608
          },
          {
            "n": 1,
            "scriptPubKey": {
              "asm": "OP_RETURN",
              "desc": "raw(6a)#4mhr9ur5",
              "hex": "6a",
              "type": "nulldata"
            },
            "value": 0.53617393,
            "valueSat": 53617393
          },
          {
            "n": 2,
            "scriptPubKey": {
              "address": "Xi4aj5nae4R7MD7ASEMYuS8Ci2F48PodtS",
              "asm": "OP_DUP OP_HASH160 50e56be5b09510291335585ee01e6662a2e22708 OP_EQUALVERIFY OP_CHECKSIG",
              "desc": "addr(Xi4aj5nae4R7MD7ASEMYuS8Ci2F48PodtS)#48jnad5x",
              "hex": "76a91450e56be5b09510291335585ee01e6662a2e2270888ac",
              "type": "pubkeyhash"
            },
            "value": 0.89370429,
            "valueSat": 89370429
          }
        ]
      },
      {
        "fee": 0.0,
        "hex": "0200000003eab8cd821008c7486b85187618c87ad6eae762e8978f48b0027ccc852df94d13000000006a47304402204d8602bf538766899b29671e7f3cd85cdb1bd327ef65feb6795b2b32362b35a502206ae37e50c7f1ee4f80f11075bef26e02a123056de2896c5ad6450b027a91cec08121029f91ff6b8b18db8cd5f6d870a71054c881ae190aeacbc6e1abe2da0033f41374ffffffffe5d2a7963c6a308a532fc3b7a81a559e40ca001593415af945daf0b101479386040000006a473044022011f88992aef45d131b7dcfa40748fa087d701a4f9c4d8f0a8fcba0d8c5aae7950220437e5bfbc05e2de3b75a1f43b51a729536509964b85b321ba9e789dad494acd5812103ae319d99d92d3f35b0e8fdb8c9ec24d2d4270124683986d6a3c890e83b560965ffffffff75a84555846cc662d23d7bab0211ef961f9a45a27661ed7f7168c1f3dca879d3010000006a47304402200a759c2dbfd8d2c78dd391e5a36516bfff7dfd9d6e7011a3b7fd117ecfa3018e02204df7eadd72cf1aa2036c885a38b25fa84ebd8cd5827fab783df02e18c89510ec812103467a6b79ec92554ffb6008b96e22dab03fb640328df670824d41831487434296ffffffff034a420f00000000001976a9141fc14b85d65486c5fd17cfc6ec1af1cc3dbc6b0088ac4a420f00000000001976a9143eafcff4b832be34e9f78166829e964e2292428a88ac4a420f00000000001976a9147bc164787b970ad6278c219e98146d10936c1cef88ac00000000",
        "instantlock": true,
        "instantlock_internal": false,
        "locktime": 0,
        "size": 553,
        "txid": "60967fa602c1e5b832ec9b87049ecda2e1dc7df9245b1ded17420915e1bec189",
        "type": 0,
        "version": 2,
        "vin": [
          {
            "scriptSig": {
              "asm": "304402204d8602bf538766899b29671e7f3cd85cdb1bd327ef65feb6795b2b32362b35a502206ae37e50c7f1ee4f80f11075bef26e02a123056de2896c5ad6450b027a91cec0[ALL|ANYONECANPAY] 029f91ff6b8b18db8cd5f6d870a71054c881ae190aeacbc6e1abe2da0033f41374",
              "hex": "47304402204d8602bf538766899b29671e7f3cd85cdb1bd327ef65feb6795b2b32362b35a502206ae37e50c7f1ee4f80f11075bef26e02a123056de2896c5ad6450b027a91cec08121029f91ff6b8b18db8cd5f6d870a71054c881ae190aeacbc6e1abe2da0033f41374"
            },
            "sequence": 4294967295,
            "txid": "134df92d85cc7c02b0488f97e862e7ead67ac8187618856b48c7081082cdb8ea",
            "vout": 0
          },
          {
            "scriptSig": {
              "asm": "3044022011f88992aef45d131b7dcfa40748fa087d701a4f9c4d8f0a8fcba0d8c5aae7950220437e5bfbc05e2de3b75a1f43b51a729536509964b85b321ba9e789dad494acd5[ALL|ANYONECANPAY] 03ae319d99d92d3f35b0e8fdb8c9ec24d2d4270124683986d6a3c890e83b560965",
              "hex": "473044022011f88992aef45d131b7dcfa40748fa087d701a4f9c4d8f0a8fcba0d8c5aae7950220437e5bfbc05e2de3b75a1f43b51a729536509964b85b321ba9e789dad494acd5812103ae319d99d92d3f35b0e8fdb8c9ec24d2d4270124683986d6a3c890e83b560965"
            },
            "sequence": 4294967295,
            "txid": "86934701b1f0da45f95a41931500ca409e551aa8b7c32f538a306a3c96a7d2e5",
            "vout": 4
          },
          {
            "scriptSig": {
              "asm": "304402200a759c2dbfd8d2c78dd391e5a36516bfff7dfd9d6e7011a3b7fd117ecfa3018e02204df7eadd72cf1aa2036c885a38b25fa84ebd8cd5827fab783df02e18c89510ec[ALL|ANYONECANPAY] 03467a6b79ec92554ffb6008b96e22dab03fb640328df670824d41831487434296",
              "hex": "47304402200a759c2dbfd8d2c78dd391e5a36516bfff7dfd9d6e7011a3b7fd117ecfa3018e02204df7eadd72cf1aa2036c885a38b25fa84ebd8cd5827fab783df02e18c89510ec812103467a6b79ec92554ffb6008b96e22dab03fb640328df670824d41831487434296"
            },
            "sequence": 4294967295,
            "txid": "d379a8dcf3c168717fed6176a2459a1f96ef1102ab7b3dd262c66c845545a875",
            "vout": 1
          }
        ],
        "vout": [
          {
            "n": 0,
            "scriptPubKey": {
              "address": "XdakLaBsiKZwQkDRrVxExhfh63DRPtvhCF",
              "asm": "OP_DUP OP_HASH160 1fc14b85d65486c5fd17cfc6ec1af1cc3dbc6b00 OP_EQUALVERIFY OP_CHECKSIG",
              "desc": "addr(XdakLaBsiKZwQkDRrVxExhfh63DRPtvhCF)#659hm77g",
              "hex": "76a9141fc14b85d65486c5fd17cfc6ec1af1cc3dbc6b0088ac",
              "type": "pubkeyhash"
            },
            "value": 0.0100001,
            "valueSat": 1000010
          },
          {
            "n": 1,
            "scriptPubKey": {
              "address": "XgQJLoSykKgnTiubuVW4x2JGFDJC83w3so",
              "asm": "OP_DUP OP_HASH160 3eafcff4b832be34e9f78166829e964e2292428a OP_EQUALVERIFY OP_CHECKSIG",
              "desc": "addr(XgQJLoSykKgnTiubuVW4x2JGFDJC83w3so)#309g7r7a",
              "hex": "76a9143eafcff4b832be34e9f78166829e964e2292428a88ac",
              "type": "pubkeyhash"
            },
            "value": 0.0100001,
            "valueSat": 1000010
          },
          {
            "n": 2,
            "scriptPubKey": {
              "address": "XmyCczX8CzJm2FcwdAqg8ruRrzmSjE5qoW",
              "asm": "OP_DUP OP_HASH160 7bc164787b970ad6278c219e98146d10936c1cef OP_EQUALVERIFY OP_CHECKSIG",
              "desc": "addr(XmyCczX8CzJm2FcwdAqg8ruRrzmSjE5qoW)#7d4dg7vx",
              "hex": "76a9147bc164787b970ad6278c219e98146d10936c1cef88ac",
              "type": "pubkeyhash"
            },
            "value": 0.0100001,
            "valueSat": 1000010
          }
        ]
      },
      {
        "fee": 0.0,
        "hex": "02000000068e9001359bf67f2b859ab0aeac3ff24896d756b45fd35a6a280f00df991e7c12030000006a4730440220476c4234399143265a8838a0409353be217e3ec6aef95e7df746bdcdfcc764f602207ca3fa803473204a98a14a625e4c2a2db74804c02480ca4805e8da8c141e0780812103ade4a16bf84e3d7dc0be2782442e99ecbb7970d60e2a155d8787dabdc347d83ffffffffff7731a335926aad2cc5247fb360c206431f0bb1bb73ec38fd8023db2a3caba37000000006a47304402205585b14f837a8158324f9a1b2a9bbc92e2011fa429441d9cedbc57ab2dddb408022006ad91e1808491206de8f7637997181dcfb1bb5f04b41f41b8b77eadac38065581210273c6c1e52c74fc2744386769846b0264694445ad25fb31c35059ccfe0d75717dffffffffe5d2a7963c6a308a532fc3b7a81a559e40ca001593415af945daf0b101479386020000006a47304402205d008e608a233377b77cbd807b8fcbd41d0f18cb13c6ed5185eb9c09f6ab1a32022029dc95f22d196c2bc592722291660418a01cee14119ef32277807600aebcf5b0812102bb5fe53fdfcae02395a1c72e2d664c2460bd3123f2c2e9f794d43db81e77461cffffffff038eaadfa5401df373b9d2912101af3394afe803d50b8930cfa9caf17f75a195020000006a47304402200616fa04e97021fd4cae214146d45eada15d31575d602fded659804bfa5e5eb702201cf9b41d4394445489d699c09f0058eca4d3e86c065c90005cbb8c3fc4e0750f812103d8c0809146e864668aa3ee624d9bf641746aae9461c361c06d59e7a3904db722fffffffff76fd5694a1014da1ed7032010b952de9a8332f3d303621a902ca2b0a340b6b7060000006a47304402200b0a4948a7ef42afe4de162c0cd79c6b2290f7c5a544ac896ad86b25df231cd102207ce76d4a402f77404acf1fbb2e9d7bc67d0542a30a2fa7bc36a4dd999228dc1b812103eb2aad18462b9efdc3e39526e08de312b049998675134130905d0c24192f321bfffffffff04f3a7ef94e7263ccdf4a06398e31cc2476b8b08eda422bf6bd3200acb064de020000006a4730440220273292c2071ab95a34106a51274d6d475a22cf6cde2a79146a1728bce4e9c24f0220629331210e7a91ad7c2d5955610a891f3c8f1f466481723c58414d9eb9838525812103a87655b7d8712f1d806be7aa4bb65e4356388248b51281aba68332173502abc2ffffffff064a420f00000000001976a9140bf1ae6fad7ee136232cc72eaacd7e981ad3b67c88ac4a420f00000000001976a9147362b0bdcd67aadb0cefcbbe44bf91b9fab831a988ac4a420f00000000001976a914910127dbbc3a9c9916f3cc447e41d87ed8a3510288ac4a420f00000000001976a914a8a1d53bdf1bfb5c1b88f924c6f3a4d87936166088ac4a420f00000000001976a914b3e042610a0280e3e70ff48f09fa25288e1bdb6488ac4a420f00000000001976a914bba6d594c75ecf38ad2f20a15c0fd00a7775ee4588ac00000000",
        "instantlock": true,
        "instantlock_internal": false,
        "locktime": 0,
        "size": 1096,
        "txid": "8797f341a8a1cf57c1b98496ff14fde46407e287b71cc2a9f7f67b6be42d1493",
        "type": 0,
        "version": 2,
        "vin": [
          {
            "scriptSig": {
              "asm": "30440220476c4234399143265a8838a0409353be217e3ec6aef95e7df746bdcdfcc764f602207ca3fa803473204a98a14a625e4c2a2db74804c02480ca4805e8da8c141e0780[ALL|ANYONECANPAY] 03ade4a16bf84e3d7dc0be2782442e99ecbb7970d60e2a155d8787dabdc347d83f",
              "hex": "4730440220476c4234399143265a8838a0409353be217e3ec6aef95e7df746bdcdfcc764f602207ca3fa803473204a98a14a625e4c2a2db74804c02480ca4805e8da8c141e0780812103ade4a16bf84e3d7dc0be2782442e99ecbb7970d60e2a155d8787dabdc347d83f"
            },
            "sequence": 4294967295,
            "txid": "127c1e99df000f286a5ad35fb456d79648f23facaeb09a852b7ff69b3501908e",
            "vout": 3
          },
          {
            "scriptSig": {
              "asm": "304402205585b14f837a8158324f9a1b2a9bbc92e2011fa429441d9cedbc57ab2dddb408022006ad91e1808491206de8f7637997181dcfb1bb5f04b41f41b8b77eadac380655[ALL|ANYONECANPAY] 0273c6c1e52c74fc2744386769846b0264694445ad25fb31c35059ccfe0d75717d",
              "hex": "47304402205585b14f837a8158324f9a1b2a9bbc92e2011fa429441d9cedbc57ab2dddb408022006ad91e1808491206de8f7637997181dcfb1bb5f04b41f41b8b77eadac38065581210273c6c1e52c74fc2744386769846b0264694445ad25fb31c35059ccfe0d75717d"
            },
            "sequence": 4294967295,
            "txid": "37bacaa3b23d02d88fc33eb71bbbf03164200c36fb4752ccd2aa2659331a73f7",
            "vout": 0
          },
          {
            "scriptSig": {
              "asm": "304402205d008e608a233377b77cbd807b8fcbd41d0f18cb13c6ed5185eb9c09f6ab1a32022029dc95f22d196c2bc592722291660418a01cee14119ef32277807600aebcf5b0[ALL|ANYONECANPAY] 02bb5fe53fdfcae02395a1c72e2d664c2460bd3123f2c2e9f794d43db81e77461c",
              "hex": "47304402205d008e608a233377b77cbd807b8fcbd41d0f18cb13c6ed5185eb9c09f6ab1a32022029dc95f22d196c2bc592722291660418a01cee14119ef32277807600aebcf5b0812102bb5fe53fdfcae02395a1c72e2d664c2460bd3123f2c2e9f794d43db81e77461c"
            },
            "sequence": 4294967295,
            "txid": "86934701b1f0da45f95a41931500ca409e551aa8b7c32f538a306a3c96a7d2e5",
            "vout": 2
          },
          {
            "scriptSig": {
              "asm": "304402200616fa04e97021fd4cae214146d45eada15d31575d602fded659804bfa5e5eb702201cf9b41d4394445489d699c09f0058eca4d3e86c065c90005cbb8c3fc4e0750f[ALL|ANYONECANPAY] 03d8c0809146e864668aa3ee624d9bf641746aae9461c361c06d59e7a3904db722",
              "hex": "47304402200616fa04e97021fd4cae214146d45eada15d31575d602fded659804bfa5e5eb702201cf9b41d4394445489d699c09f0058eca4d3e86c065c90005cbb8c3fc4e0750f812103d8c0809146e864668aa3ee624d9bf641746aae9461c361c06d59e7a3904db722"
            },
            "sequence": 4294967295,
            "txid": "95a1757ff1caa9cf30890bd503e8af9433af012191d2b973f31d40a5dfaa8e03",
            "vout": 2
          },
          {
            "scriptSig": {
              "asm": "304402200b0a4948a7ef42afe4de162c0cd79c6b2290f7c5a544ac896ad86b25df231cd102207ce76d4a402f77404acf1fbb2e9d7bc67d0542a30a2fa7bc36a4dd999228dc1b[ALL|ANYONECANPAY] 03eb2aad18462b9efdc3e39526e08de312b049998675134130905d0c24192f321b",
              "hex": "47304402200b0a4948a7ef42afe4de162c0cd79c6b2290f7c5a544ac896ad86b25df231cd102207ce76d4a402f77404acf1fbb2e9d7bc67d0542a30a2fa7bc36a4dd999228dc1b812103eb2aad18462b9efdc3e39526e08de312b049998675134130905d0c24192f321b"
            },
            "sequence": 4294967295,
            "txid": "b7b640a3b0a22c901a6203d3f332839ade52b9102003d71eda14104a69d56ff7",
            "vout": 6
          },
          {
            "scriptSig": {
              "asm": "30440220273292c2071ab95a34106a51274d6d475a22cf6cde2a79146a1728bce4e9c24f0220629331210e7a91ad7c2d5955610a891f3c8f1f466481723c58414d9eb9838525[ALL|ANYONECANPAY] 03a87655b7d8712f1d806be7aa4bb65e4356388248b51281aba68332173502abc2",
              "hex": "4730440220273292c2071ab95a34106a51274d6d475a22cf6cde2a79146a1728bce4e9c24f0220629331210e7a91ad7c2d5955610a891f3c8f1f466481723c58414d9eb9838525812103a87655b7d8712f1d806be7aa4bb65e4356388248b51281aba68332173502abc2"
            },
            "sequence": 4294967295,
            "txid": "de64b0ac0032bdf62b42da8eb0b87624cc318e39064adfcc63724ef97e3a4ff0",
            "vout": 2
          }
        ],
        "vout": [
          {
            "n": 0,
            "scriptPubKey": {
              "address": "XbmzngTNkzpadcVhMEYmT8HdkiNp5NM7yR",
              "asm": "OP_DUP OP_HASH160 0bf1ae6fad7ee136232cc72eaacd7e981ad3b67c OP_EQUALVERIFY OP_CHECKSIG",
              "desc": "addr(XbmzngTNkzpadcVhMEYmT8HdkiNp5NM7yR)#qtk7zjjv",
              "hex": "76a9140bf1ae6fad7ee136232cc72eaacd7e981ad3b67c88ac",
              "type": "pubkeyhash"
            },
            "value": 0.0100001,
            "valueSat": 1000010
          },
          {
            "n": 1,
            "scriptPubKey": {
              "address": "XmCwmSeAKE3MGcPHV14wautEBbYm46Xhmp",
              "asm": "OP_DUP OP_HASH160 7362b0bdcd67aadb0cefcbbe44bf91b9fab831a9 OP_EQUALVERIFY OP_CHECKSIG",
              "desc": "addr(XmCwmSeAKE3MGcPHV14wautEBbYm46Xhmp)#3mhtglhs",
              "hex": "76a9147362b0bdcd67aadb0cefcbbe44bf91b9fab831a988ac",
              "type": "pubkeyhash"
            },
            "value": 0.0100001,
            "valueSat": 1000010
          },
          {
            "n": 2,
            "scriptPubKey": {
              "address": "XouZCNJUyZSDbTZmbNn3Wa1hRVBcbPVYtP",
              "asm": "OP_DUP OP_HASH160 910127dbbc3a9c9916f3cc447e41d87ed8a35102 OP_EQUALVERIFY OP_CHECKSIG",
              "desc": "addr(XouZCNJUyZSDbTZmbNn3Wa1hRVBcbPVYtP)#w276gmm2",
              "hex": "76a914910127dbbc3a9c9916f3cc447e41d87ed8a3510288ac",
              "type": "pubkeyhash"
            },
            "value": 0.0100001,
            "valueSat": 1000010
          },
          {
            "n": 3,
            "scriptPubKey": {
              "address": "Xr4VDqA64HHFYpV5Fr7wEQg4b4xG7JPsh7",
              "asm": "OP_DUP OP_HASH160 a8a1d53bdf1bfb5c1b88f924c6f3a4d879361660 OP_EQUALVERIFY OP_CHECKSIG",
              "desc": "addr(Xr4VDqA64HHFYpV5Fr7wEQg4b4xG7JPsh7)#3u74ms9n",
              "hex": "76a914a8a1d53bdf1bfb5c1b88f924c6f3a4d87936166088ac",
              "type": "pubkeyhash"
            },
            "value": 0.0100001,
            "valueSat": 1000010
          },
          {
            "n": 4,
            "scriptPubKey": {
              "address": "Xs5wSQ9jfEJPY6NpBYjDCGthVu3Aa3A2uB",
              "asm": "OP_DUP OP_HASH160 b3e042610a0280e3e70ff48f09fa25288e1bdb64 OP_EQUALVERIFY OP_CHECKSIG",
              "desc": "addr(Xs5wSQ9jfEJPY6NpBYjDCGthVu3Aa3A2uB)#hg0zjf0m",
              "hex": "76a914b3e042610a0280e3e70ff48f09fa25288e1bdb6488ac",
              "type": "pubkeyhash"
            },
            "value": 0.0100001,
            "valueSat": 1000010
          },
          {
            "n": 5,
            "scriptPubKey": {
              "address": "Xso43yaJEoq3rMmT8ZbcoHuaFAnfc5nQbH",
              "asm": "OP_DUP OP_HASH160 bba6d594c75ecf38ad2f20a15c0fd00a7775ee45 OP_EQUALVERIFY OP_CHECKSIG",
              "desc": "addr(Xso43yaJEoq3rMmT8ZbcoHuaFAnfc5nQbH)#4eze49cn",
              "hex": "76a914bba6d594c75ecf38ad2f20a15c0fd00a7775ee4588ac",
              "type": "pubkeyhash"
            },
            "value": 0.0100001,
            "valueSat": 1000010
          }
        ]
      },
      {
        "fee": 8.55e-05,
        "hex": "0100000002ffff2644c9679d10a709b62485d7b8f4b06180df58f8279f7d15e740e757b2b0000000006b483045022100e4dbea21c98bb94adab6fee1af76d0e6d6841df79902212cf0fada89ab2df7850220698e1d3478899e8c9777ca11515cfbad16512f151a7661cbf6107c6b196174f4012102f37eefa60a9dfbe61c91389d095b4b2f49092c5a1d00269e6171d9d3f6308c00ffffffff58932cbca60f3d3a3438b92366a3f03cc2dbf536e89791e2381674eba51aa3b6000000006b4830450221009ba625f3fcb1508cd0060c8a0978b974562f9c381b831fc493f03309a0d254d602207ae649ac5bab9852176f5e6ba0ba5f3755ed112f69c4f1a4aefae08472541bd1012102f37eefa60a9dfbe61c91389d095b4b2f49092c5a1d00269e6171d9d3f6308c00ffffffff01fd5c541f010000001976a9149bfe3b77d98d1f170d3c335b6422d93c5cc1eb8488ac00000000",
        "instantlock": true,
        "instantlock_internal": false,
        "locktime": 0,
        "size": 340,
        "txid": "ec36ba31842cbfccfa3eef880a4e24f55a286e365f443ffe9efc3f3f04f5c32d",
        "type": 0,
        "version": 1,
        "vin": [
          {
            "scriptSig": {
              "asm": "3045022100e4dbea21c98bb94adab6fee1af76d0e6d6841df79902212cf0fada89ab2df7850220698e1d3478899e8c9777ca11515cfbad16512f151a7661cbf6107c6b196174f4[ALL] 02f37eefa60a9dfbe61c91389d095b4b2f49092c5a1d00269e6171d9d3f6308c00",
              "hex": "483045022100e4dbea21c98bb94adab6fee1af76d0e6d6841df79902212cf0fada89ab2df7850220698e1d3478899e8c9777ca11515cfbad16512f151a7661cbf6107c6b196174f4012102f37eefa60a9dfbe61c91389d095b4b2f49092c5a1d00269e6171d9d3f6308c00"
            },
            "sequence": 4294967295,
            "txid": "b0b257e740e7157d9f27f858df8061b0f4b8d78524b609a7109d67c94426ffff",
            "vout": 0
          },
          {
            "scriptSig": {
              "asm": "30450221009ba625f3fcb1508cd0060c8a0978b974562f9c381b831fc493f03309a0d254d602207ae649ac5bab9852176f5e6ba0ba5f3755ed112f69c4f1a4aefae08472541bd1[ALL] 02f37eefa60a9dfbe61c91389d095b4b2f49092c5a1d00269e6171d9d3f6308c00",
              "hex": "4830450221009ba625f3fcb1508cd0060c8a0978b974562f9c381b831fc493f03309a0d254d602207ae649ac5bab9852176f5e6ba0ba5f3755ed112f69c4f1a4aefae08472541bd1012102f37eefa60a9dfbe61c91389d095b4b2f49092c5a1d00269e6171d9d3f6308c00"
            },
            "sequence": 4294967295,
            "txid": "b6a31aa5eb741638e29197e836f5dbc23cf0a36623b938343a3d0fa6bc2c9358",
            "vout": 0
          }
        ],
        "vout": [
          {
            "n": 0,
            "scriptPubKey": {
              "address": "Xpuf8Mep7jvbSK6t6AKQVhfxTnrSoaFrD3",
              "asm": "OP_DUP OP_HASH160 9bfe3b77d98d1f170d3c335b6422d93c5cc1eb84 OP_EQUALVERIFY OP_CHECKSIG",
              "desc": "addr(Xpuf8Mep7jvbSK6t6AKQVhfxTnrSoaFrD3)#rezhednl",
              "hex": "76a9149bfe3b77d98d1f170d3c335b6422d93c5cc1eb8488ac",
              "type": "pubkeyhash"
            },
            "value": 48.20589821,
            "valueSat": 4820589821
          }
        ]
      },
      {
        "fee": 2.26e-05,
        "hex": "0100000001b87d0563743f5799c836052e6c147e3f08d10e6427bc7a0a7fc7922939876ead000000006b483045022100ba4955d83e0182beebe6d08a2e3d14e60c3105c0cf36d0d481424a3c718543e5022057b0fc030d7bf579029bbf4efb83aaa30c261d100e1e663ee8cd3db778ab34c701210373cd8468fc7bccd9828c4c6c5c9a6d50867d200763fe6f39e1ab45b6d38e8b3affffffff0229d0dc1f000000001976a9148a1d78e186aac87e72b7b7c515eb9b0e1e34fd0c88ac01848007000000001976a91449e22867136cb0641fb1206bcee4000b6d8e0ca488ac00000000",
        "instantlock": true,
        "instantlock_internal": false,
        "locktime": 0,
        "size": 226,
        "txid": "28f4e3fed3b942a325c55650f21b82ffe57ffd66561cdc75bbf949af10986543",
        "type": 0,
        "version": 1,
        "vin": [
          {
            "scriptSig": {
              "asm": "3045022100ba4955d83e0182beebe6d08a2e3d14e60c3105c0cf36d0d481424a3c718543e5022057b0fc030d7bf579029bbf4efb83aaa30c261d100e1e663ee8cd3db778ab34c7[ALL] 0373cd8468fc7bccd9828c4c6c5c9a6d50867d200763fe6f39e1ab45b6d38e8b3a",
              "hex": "483045022100ba4955d83e0182beebe6d08a2e3d14e60c3105c0cf36d0d481424a3c718543e5022057b0fc030d7bf579029bbf4efb83aaa30c261d100e1e663ee8cd3db778ab34c701210373cd8468fc7bccd9828c4c6c5c9a6d50867d200763fe6f39e1ab45b6d38e8b3a"
            },
            "sequence": 4294967295,
            "txid": "ad6e87392992c77f0a7abc27640ed1083f7e146c2e0536c899573f7463057db8",
            "vout": 0
          }
        ],
        "vout": [
          {
            "n": 0,
            "scriptPubKey": {
              "address": "XoH8PVMxtwPK2bwg97Sx998KjwBjJTAff3",
              "asm": "OP_DUP OP_HASH160 8a1d78e186aac87e72b7b7c515eb9b0e1e34fd0c OP_EQUALVERIFY OP_CHECKSIG",
              "desc": "addr(XoH8PVMxtwPK2bwg97Sx998KjwBjJTAff3)#nl5grq5s",
              "hex": "76a9148a1d78e186aac87e72b7b7c515eb9b0e1e34fd0c88ac",
              "type": "pubkeyhash"
            },
            "value": 5.34564905,
            "valueSat": 534564905
          },
          {
            "n": 1,
            "scriptPubKey": {
              "address": "XhRW5ygYv33C9bN4ED9rmfxSSKNbN1eHxC",
              "asm": "OP_DUP OP_HASH160 49e22867136cb0641fb1206bcee4000b6d8e0ca4 OP_EQUALVERIFY OP_CHECKSIG",
              "desc": "addr(XhRW5ygYv33C9bN4ED9rmfxSSKNbN1eHxC)#pl27l0fw",
              "hex": "76a91449e22867136cb0641fb1206bcee4000b6d8e0ca488ac",
              "type": "pubkeyhash"
            },
            "value": 1.25862913,
            "valueSat": 125862913
          }
        ]
      }
    ],
    "version": 536870912,
    "versionHex": "20000000"
  },
  "height": 2255000
}