{
  "block_hash": "000000000000001af9500f58056a8d12fe668641d4437e3cc4fba9e2d721d69a",
  "block_hex": "000000200951afd71945a028c564f010cacb954596dd816a0dd2c6c81900000000000000103f794607755026079e88fb931525d9396f96f7e1948c41fe0d998ae1a8b79afb0e1868de4d3419f20589dc0703000500010000000000000000000000000000000000000000000000000000000000000000ffffffff30039093221a2f5669614254432f4d696e65642062792073766132343632362f10acaccb00977ba04d6e64d15df4580200ffffffff033b48d702000000001976a914bc89d6071dabc5b4494d303af761a052a5c70d5788acf122320300000000016abdb55305000000001976a9143ecc3146cdb14af7774a129c9167a78599b9918688ac00000000af0300909322007bf33402e3f124b5d630f679cd2077dd67c01ca7a6d7d59d68865fea2b02b11789b9df7687ce41593ca7dfc98b0c147a19a46358cc69c63289c9b95c627b1cec0096378eb3cc2abccae6d737d21c430b6f8277fe7909e6ef2cce9b283dbdbadbdc799fc80352a57f31a9caf8f29d1565d20b2f78bdbf4c2bf7fe5bc0d281534ca717df42405d56cefc2b8a736f6594359117ed8c398d5d7206edb7c10fa51162296ba7203e640100000200000005a2bb109f9e282214d9ccdb94157b262351954c9aad7b2b05de3c1bb6b35b1a34000000006b483045022100b9e38ef644f4e49f127523c9cd122553e7bcb50a684681ac156a8fa227fd088f022000efc1f4dc86c4ccd4c16f4b1ed10dec4716fad590c296d6de9ff80b21f0f2d18121033c7a93ccf8c0f76fb7f166bdfb443d04cd6bcad7c0ab17ab652ca652e67d2965fffffffff413f18e572d5800dce972cfa4208f4f85251ed3a1f34b7a93bb258a841c8d49040000006b483045022100e0af4cf5b2eca72753a9831b08f76e0d4dce2483e3535fa06c85243f67d76fc602201603c82faff4cf8ce048b415b7c139ed59d285e78599002c07a84dc351d635ae812102d5e9a38844347afe356c342281fc2a2bd61e5afb6b7e9ae204b7b97bf22204b6ffffffff284f5d5d897328162d247ca446a8f9c00e401025bae8a34f8968c4da6e1bf25f020000006a473044022034875ec61e5fba60af93b138e60beb4154c47e081154ce5d3128f683d7a0e1a1022055571dbc626a8392e68cd3423f4f3555dea2ce4fdee7c1edded3729e69c17cde812102f291759c00540b3e1771a96f1665868d75df90d8c0b037076679b8d034d7d683ffffffffb676d569527a450df8d313389a9ff534958ec179078218d16e4a137b4a278b88000000006a47304402202419d1e4afef49de661f47bef13e78e090f98547b157603fe50015477a5b17e202205796757af77340b19b1b8371845515347fd928010818acfd2f231dd41f3bbee28121020df6f0d6345a9c766d07efd6d86214690f6ee825a00a25aad0f2834682fb2cbaffffffffc356fbccac10b3c62f2d4b3d764991ceedc230eb4ddc65c83f4188aae430e8dd030000006a473044022054ad52085bcb892d9ad9e26ec546b6446ae6f6b514a6e11dc22e598781c81b77022012261af018805e2e2a1cdfea7982d7245139ef8b188d13796de17fe75d8de5c681210295806464a51c1a284f293a783987b4bdd8d8685741ef47565440ba4393596e0dffffffff054a420f00000000001976a91436e641c12d1aba46395886986d8f1d0ff263b9a188ac4a420f00000000001976a9143fc1943af3733814ef748d1583ccbf2956eacb0088ac4a420f00000000001976a9144663a4989e7fa9ded107c7166122465b6c2a207d88ac4a420f00000000001976a91468dd4e3932100b8a17ab5e882315f1469f575a6a88ac4a420f00000000001976a9149f96279bbe17f6226449bccecdeec5bd0aef6e0088ac00000000020000000131428a4536e20c2cf91ca9a488e6d76f173d8c5d97c15c2af409c10bf09230c2010000006a47304402201176d560c06a3f460119043b67b32ea9154ae081d6464b476a5c034cee0743eb02204baa0e22cea52abdc954f1e32b0e8bbea32733e822e8cd043c480e0effde45550121037740d121922ac03068626f8b19f91decafc369185cdc2a3c5d7159b9973aeacbffffffff0130750000000000001976a9146555742d143e3ff1293069fccd9a62ecfbbda61c88ac000000000200000001d5e3e41d8fc211aa1399f3cc1b7e4423b222756e59923cc32c5cbc5145e6629e010000006a4730440220048f1fb65dfc652d61f5617a744a1556b9923dd770172e27390540e1c48dd951022061ef6117b8e0642de2f66eab828bcc935a8b26070de1c06adba829bfe9431e650121030b4537d3b625227716e4f98a5fce8cbee67e74b10727558b22cc6a61564e2eb2feffffff028dec0f00000000001976a91446c85b2b86a80f78ee155d9f9b1f2d8f8be6d38d88ac71000d1a000000001976a914fdaa837b7b8fd52077ed99a28b89772648bda21a88ac8f9322000100000001a2ee4368fd3dccd3f72dddc86dee750b7e7b2ebf52bb9976d619cd71be64d510000000006b483045022100b4a9925af3a9b097451260f4825b33bf45599c488746858c56243007b594617202204dee26432c7cbc1ac8d3fd9b5414faca7637752d7722f72844f9c64ecfa5e83701210390858f08c7fd68b3d5a3405c3f99312114f1934a6c924e787707db06c38ff735ffffffff0560320000000000001976a91445e12d2085c040afbf3e702d85f841078bba920188aca1860100000000001976a9143d4ee4adf01db4f9ac6d0fc1bbe7a571008e04bd88aca1860100000000001976a9146b84525b3ce89b9595daab2d3c52d1e24729631588aca1860100000000001976a9149e9458f8b5e2fb76b711de5f2441a926ad53a4d988aca1860100000000001976a914c8da165ef56605a8c7fe2a1fdd053b4b30a562bf88ac0000000002000000018ed93348a70be756f8f47f700b6466fdad100896f96b8cede34ddabf14ce6577010000006a4730440220080ae2955e58bd56000eb470144f38947cff7800489e0988a7cfff8a5d721c32022077dc6c2afaa0fa924fa26bbe53a5ec6843818c4503888c1c3056db179cbb42c3012103a9ce1545020899083e3cd05cf5b3883ed97b2956cc68664f559d6d98aff420e5feffffff02692d0000000000001976a9146bade5679aee322fbb82c209ef6771d3d6bcf25c88ac409c0000000000001976a9141be7e3f9594946aefdbe0b633b5d67e741363e8d88ac8f93220002000000016470de6fa946c1c2571562a7f8d5f27ef92270cf02554f30663ca9f9927ada47000000006a473044022003faf532ff407dcadaa8a4b557b2b441e17c421081375ee16f33d9ab751fa27a022052b00910e786c3f8d7ce58bdf3211a5b0db0369fccd0ce9aeaee69a78930ecab01210218110fd64f4c88c3bc4cfc49b8d3723976d105226f219903f25c7ab77bdb7dddfeffffff02409c0000000000001976a91434e7fc1a1548ac90d7ea9ad419ac3d97baf0131e88ac22e20000000000001976a914632500cd594446c276b94fce415bc325fd237ddb88ac8f932200",
  "block_verbose": {
    "bits": "19344dde",
    "cbTx": {
      "bestCLHeightDiff": 0,
      "bestCLSignature": "96378eb3cc2abccae6d737d21c430b6f8277fe7909e6ef2cce9b283dbdbadbdc799fc80352a57f31a9caf8f29d1565d20b2f78bdbf4c2bf7fe5bc0d281534ca717df42405d56cefc2b8a736f6594359117ed8c398d5d7206edb7c10fa5116229",
      "creditPoolBalance": 15300.50684779,
      "height": 2266000,
      "merkleRootMNList": "17b1022bea5f86689dd5d7a6a71cc067dd7720cd79f630d6b524f1e30234f37b",
      "merkleRootQuorums": "ec1c7b625cb9c98932c669cc5863a4197a140c8bc9dfa73c5941ce8776dfb989",
      "version": 3
    },
    "chainlock": true,
    "chainwork": "00000000000000000000000000000000000000000000a7c0122f13615c360e12",
    "confirmations": 207135,
    "difficulty": 82113947.4472476,
    "hash": "000000000000001af9500f58056a8d12fe668641d4437e3cc4fba9e2d721d69a",
    "height": 2266000,
    "mediantime": 1746406203,
    "merkleroot": "9ab7a8e18a990dfe418c94e1f7966f39d9251593fb889e072650750746793f10",
    "nTx": 7,
    "nextblockhash": "000000000000002a6daf30e8f5d543dc2bc72c4438609b74f35524662a822d23",
    "nonce": 3699967474,
    "previousblockhash": "0000000000000019c8c6d20d6a81dd964595cbca10f064c528a04519d7af5109",
    "size": 2545,
    "time": 1746407163,
    "tx": [
      {
        "cbTx": {
          "bestCLHeightDiff": 0,
          "bestCLSignature": "96378eb3cc2abccae6d737d21c430b6f8277fe7909e6ef2cce9b283dbdbadbdc799fc80352a57f31a9caf8f29d1565d20b2f78bdbf4c2bf7fe5bc0d281534ca717df42405d56cefc2b8a736f6594359117ed8c398d5d7206edb7c10fa5116229",
          "creditPoolBalance": 15300.50684779,
          "height": 2266000,
          "merkleRootMNList": "17b1022bea5f86689dd5d7a6a71cc067dd7720cd79f630d6b524f1e30234f37b",
          "merkleRootQuorums": "ec1c7b625cb9c98932c669cc5863a4197a140c8bc9dfa73c5941ce8776dfb989",
          "version": 3
        },
        "extraPayload": "0300909322007bf33402e3f124b5d630f679cd2077dd67c01ca7a6d7d59d68865fea2b02b11789b9df7687ce41593ca7dfc98b0c147a19a46358cc69c63289c9b95c627b1cec0096378eb3cc2abccae6d737d21c430b6f8277fe7909e6ef2cce9b283dbdbadbdc799fc80352a57f31a9caf8f29d1565d20b2f78bdbf4c2bf7fe5bc0d281534ca717df42405d56cefc2b8a736f6594359117ed8c398d5d7206edb7c10fa51162296ba7203e64010000",
        "extraPayloadSize": 175,
        "hex": "03000500010000000000000000000000000000000000000000000000000000000000000000ffffffff30039093221a2f5669614254432f4d696e65642062792073766132343632362f10acaccb00977ba04d6e64d15df4580200ffffffff033b48d702000000001976a914bc89d6071dabc5b4494d303af761a052a5c70d5788acf122320300000000016abdb55305000000001976a9143ecc3146cdb14af7774a129c9167a78599b9918688ac00000000af0300909322007bf33402e3f124b5d630f679cd2077dd67c01ca7a6d7d59d68865fea2b02b11789b9df7687ce41593ca7dfc98b0c147a19a46358cc69c63289c9b95c627b1cec0096378eb3cc2abccae6d737d21c430b6f8277fe7909e6ef2cce9b283dbdbadbdc799fc80352a57f31a9caf8f29d1565d20b2f78bdbf4c2bf7fe5bc0d281534ca717df42405d56cefc2b8a736f6594359117ed8c398d5d7206edb7c10fa51162296ba7203e64010000",
        "instantlock": true,
        "instantlock_internal": false,
        "locktime": 0,
        "size": 353,
        "txid": "1ec550b116dfac7ac3f46e5a86a85ed43e1eb33933d3c3614030c7e14f1cf724",
        "type": 5,
        "version": 3,
        "vin": [
          {
            "coinbase": "039093221a2f5669614254432f4d696e65642062792073766132343632362f10acaccb00977ba04d6e64d15df4580200",
            "sequence": 4294967295
          }
        ],
        "vout": [
          {
            "n": 0,
            "scriptPubKey": {
              "address": "XssjzLKgsfATYGqTQmiJURQzeKdpL5K1k3",
              "asm": "OP_DUP OP_HASH160 bc89d6071dabc5b4494d303af761a052a5c70d57 OP_EQUALVERIFY OP_CHECKSIG",
              "desc": "addr(XssjzLKgsfATYGqTQmiJURQzeKdpL5K1k3)#sr65vy9j",
              "hex": "76a914bc89d6071dabc5b4494d303af761a052a5c70d5788ac",
              "type": "pubkeyhash"
            },
            "value": 0.47663163,
            "valueSat": 47663163
          },
          {
            "n": 1,
            "scriptPubKey": {
              "asm": "OP_RETURN",
              "desc": "raw(6a)#4mhr9ur5",
              "hex": "6a",
              "type": "nulldata"
            },
            "value": 0.53617393,
            "valueSat": 53617393
          },
          {
            "n": 2,
            "scriptPubKey": {
              "address": "XgQtLgxD8E5ejzDo2ZW1fekmMxDpSxV3UK",
              "asm": "OP_DUP OP_HASH160 3ecc3146cdb14af7774a129c9167a78599b99186 OP_EQUALVERIFY OP_CHECKSIG",
              "desc": "addr(XgQtLgxD8E5ejzDo2ZW1fekmMxDpSxV3UK)#efc47448",
              "hex": "76a9143ecc3146cdb14af7774a129c9167a78599b9918688ac",
              "type": "pubkeyhash"
            },
            "value": 0.89372093,
            "valueSat": 89372093
          }
        ]
      },
      {
        "fee": 0.0,
        "hex": "0200000005a2bb109f9e282214d9ccdb94157b262351954c9aad7b2b05de3c1bb6b35b1a34000000006b483045022100b9e38ef644f4e49f127523c9cd122553e7bcb50a684681ac156a8fa227fd088f022000efc1f4dc86c4ccd4c16f4b1ed10dec4716fad590c296d6de9ff80b21f0f2d18121033c7a93ccf8c0f76fb7f166bdfb443d04cd6bcad7c0ab17ab652ca652e67d2965fffffffff413f18e572d5800dce972cfa4208f4f85251ed3a1f34b7a93bb258a841c8d49040000006b483045022100e0af4cf5b2eca72753a9831b08f76e0d4dce2483e3535fa06c85243f67d76fc602201603c82faff4cf8ce048b415b7c139ed59d285e78599002c07a84dc351d635ae812102d5e9a38844347afe356c342281fc2a2bd61e5afb6b7e9ae204b7b97bf22204b6ffffffff284f5d5d897328162d247ca446a8f9c00e401025bae8a34f8968c4da6e1bf25f020000006a473044022034875ec61e5fba60af93b138e60beb4154c47e081154ce5d3128f683d7a0e1a1022055571dbc626a8392e68cd3423f4f3555dea2ce4fdee7c1edded3729e69c17cde812102f291759c00540b3e1771a96f1665868d75df90d8c0b037076679b8d034d7d683ffffffffb676d569527a450df8d313389a9ff534958ec179078218d16e4a137b4a278b88000000006a47304402202419d1e4afef49de661f47bef13e78e090f98547b157603fe50015477a5b17e202205796757af77340b19b1b8371845515347fd928010818acfd2f231dd41f3bbee28121020df6f0d6345a9c766d07efd6d86214690f6ee825a00a25aad0f2834682fb2cbaffffffffc356fbccac10b3c62f2d4b3d764991ceedc230eb4ddc65c83f4188aae430e8dd030000006a473044022054ad52085bcb892d9ad9e26ec546b6446ae6f6b514a6e11dc22e598781c81b77022012261af018805e2e2a1cdfea7982d7245139ef8b188d13796de17fe75d8de5c681210295806464a51c1a284f293a783987b4bdd8d8685741ef47565440ba4393596e0dffffffff054a420f00000000001976a91436e641c12d1aba46395886986d8f1d0ff263b9a188ac4a420f00000000001976a9143fc1943af3733814ef748d1583ccbf2956eacb0088ac4a420f00000000001976a9144663a4989e7fa9ded107c7166122465b6c2a207d88ac4a420f00000000001976a91468dd4e3932100b8a17ab5e882315f1469f575a6a88ac4a420f00000000001976a9149f96279bbe17f6226449bccecdeec5bd0aef6e0088ac00000000",
        "instantlock": true,
        "instantlock_internal": false,
        "locktime": 0,
        "size": 917,
        "txid": "e05fd6f01cb5cd09d7d085dbd4162d50bea4f54d4ff47d1217d51dd79e35db3f",
        "type": 0,
        "version": 2,
        "vin": [
          {
            "scriptSig": {
              "asm": "3045022100b9e38ef644f4e49f127523c9cd122553e7bcb50a684681ac156a8fa227fd088f022000efc1f4dc86c4ccd4c16f4b1ed10dec4716fad590c296d6de9ff80b21f0f2d1[ALL|ANYONECANPAY] 033c7a93ccf8c0f76fb7f166bdfb443d04cd6bcad7c0ab17ab652ca652e67d2965",
              "hex": "483045022100b9e38ef644f4e49f127523c9cd122553e7bcb50a684681ac156a8fa227fd088f022000efc1f4dc86c4ccd4c16f4b1ed10dec4716fad590c296d6de9ff80b21f0f2d18121033c7a93ccf8c0f76fb7f166bdfb443d04cd6bcad7c0ab17ab652ca652e67d2965"
            },
            "sequence": 4294967295,
            "txid": "341a5bb3b61b3cde052b7bad9a4c955123267b1594dbccd91422289e9f10bba2",
            "vout": 0
          },
          {
            "scriptSig": {
              "asm": "3045022100e0af4cf5b2eca72753a9831b08f76e0d4dce2483e3535fa06c85243f67d76fc602201603c82faff4cf8ce048b415b7c139ed59d285e78599002c07a84dc351d635ae[ALL|ANYONECANPAY] 02d5e9a38844347afe356c342281fc2a2bd61e5afb6b7e9ae204b7b97bf22204b6",
              "hex": "483045022100e0af4cf5b2eca72753a9831b08f76e0d4dce2483e3535fa06c85243f67d76fc602201603c82faff4cf8ce048b415b7c139ed59d285e78599002c07a84dc351d635ae812102d5e9a38844347afe356c342281fc2a2bd61e5afb6b7e9ae204b7b97bf22204b6"
            },
            "sequence": 4294967295,
            "txid": "498d1c848a25bb937a4bf3a1d31e25854f8f20a4cf72e9dc00582d578ef113f4",
            "vout": 4
          },
          {
            "scriptSig": {
              "asm": "3044022034875ec61e5fba60af93b138e60beb4154c47e081154ce5d3128f683d7a0e1a1022055571dbc626a8392e68cd3423f4f3555dea2ce4fdee7c1edded3729e69c17cde[ALL|ANYONECANPAY] 02f291759c00540b3e1771a96f1665868d75df90d8c0b037076679b8d034d7d683",
              "hex": "473044022034875ec61e5fba60af93b138e60beb4154c47e081154ce5d3128f683d7a0e1a1022055571dbc626a8392e68cd3423f4f3555dea2ce4fdee7c1edded3729e69c17cde812102f291759c00540b3e1771a96f1665868d75df90d8c0b037076679b8d034d7d683"
            },
            "sequence": 4294967295,
            "txid": "5ff21b6edac468894fa3e8ba2510400ec0f9a846a47c242d162873895d5d4f28",
            "vout": 2
          },
          {
            "scriptSig": {
              "asm": "304402202419d1e4afef49de661f47bef13e78e090f98547b157603fe50015477a5b17e202205796757af77340b19b1b8371845515347fd928010818acfd2f231dd41f3bbee2[ALL|ANYONECANPAY] 020df6f0d6345a9c766d07efd6d86214690f6ee825a00a25aad0f2834682fb2cba",
              "hex": "47304402202419d1e4afef49de661f47bef13e78e090f98547b157603fe50015477a5b17e202205796757af77340b19b1b8371845515347fd928010818acfd2f231dd41f3bbee28121020df6f0d6345a9c766d07efd6d86214690f6ee825a00a25aad0f2834682fb2cba"
            },
            "sequence": 4294967295,
            "txid": "888b274a7b134a6ed118820779c18e9534f59f9a3813d3f80d457a5269d576b6",
            "vout": 0
          },
          {
            "scriptSig": {
              "asm": "3044022054ad52085bcb892d9ad9e26ec546b6446ae6f6b514a6e11dc22e598781c81b77022012261af018805e2e2a1cdfea7982d7245139ef8b188d13796de17fe75d8de5c6[ALL|ANYONECANPAY] 0295806464a51c1a284f293a783987b4bdd8d8685741ef47565440ba4393596e0d",
              "hex": "473044022054ad52085bcb892d9ad9e26ec546b6446ae6f6b514a6e11dc22e598781c81b77022012261af018805e2e2a1cdfea7982d7245139ef8b188d13796de17fe75d8de5c681210295806464a51c1a284f293a783987b4bdd8d8685741ef47565440ba4393596e0d"
            },
            "sequence": 4294967295,
            "txid": "dde830e4aa88413fc865dc4deb30c2edce9149763d4b2d2fc6b310acccfb56c3",
            "vout": 3
          }
        ],
        "vout": [
          {
            "n": 0,
            "scriptPubKey": {
              "address": "Xfh8A91oEokDHaYTV5LDCrnoj4sjXKwXxG",
              "asm": "OP_DUP OP_HASH160 36e641c12d1aba46395886986d8f1d0ff263b9a1 OP_EQUALVERIFY OP_CHECKSIG",
              "desc": "addr(Xfh8A91oEokDHaYTV5LDCrnoj4sjXKwXxG)#ltpsxkss",
              "hex": "76a91436e641c12d1aba46395886986d8f1d0ff263b9a188ac",
              "type": "pubkeyhash"
            },
            "value": 0.0100001,
            "valueSat": 1000010
          },
          {
            "n": 1,
            "scriptPubKey": {
              "address": "XgVxJSmu26awuhsNxAh392sJRrmwRicQKX",
              "asm": "OP_DUP OP_HASH160 3fc1943af3733814ef748d1583ccbf2956eacb00 OP_EQUALVERIFY OP_CHECKSIG",
              "desc": "addr(XgVxJSmu26awuhsNxAh392sJRrmwRicQKX)#p3p5k2rj",
              "hex": "76a9143fc1943af3733814ef748d1583ccbf2956eacb0088ac",
              "type": "pubkeyhash"
            },
            "value": 0.0100001,
            "valueSat": 1000010
          },
          {
            "n": 2,
            "scriptPubKey": {
              "address": "Xh72Vzgkp54BqiHZd6FYtyBD8dToF14zev",
              "asm": "OP_DUP OP_HASH160 4663a4989e7fa9ded107c7166122465b6c2a207d OP_EQUALVERIFY OP_CHECKSIG",
              "desc": "addr(Xh72Vzgkp54BqiHZd6FYtyBD8dToF14zev)#xy5v9c7l",
              "hex": "76a9144663a4989e7fa9ded107c7166122465b6c2a207d88ac",
              "type": "pubkeyhash"
            },
            "value": 0.0100001,
            "valueSat": 1000010
          },
          {
            "n": 3,
            "scriptPubKey": {
              "address": "XkFKDnQgis6wYAdjBWZWQFHstRfL4uXcte",
              "asm": "OP_DUP OP_HASH160 68dd4e3932100b8a17ab5e882315f1469f575a6a OP_EQUALVERIFY OP_CHECKSIG",
              "desc": "addr(XkFKDnQgis6wYAdjBWZWQFHstRfL4uXcte)#76wd6ejh",
              "hex": "76a91468dd4e3932100b8a17ab5e882315f1469f575a6a88ac",
              "type": "pubkeyhash"
            },
            "value": 0.0100001,
            "valueSat": 1000010
          },
          {
            "n": 4,
            "scriptPubKey": {
              "address": "XqEf9gpXXwMQvuwUut9LyJCpzL6pdX5RVQ",
              "asm": "OP_DUP OP_HASH160 9f96279bbe17f6226449bccecdeec5bd0aef6e00 OP_EQUALVERIFY OP_CHECKSIG",
              "desc": "addr(XqEf9gpXXwMQvuwUut9LyJCpzL6pdX5RVQ)#9qsg7rzp",
              "hex": "76a9149f96279bbe17f6226449bccecdeec5bd0aef6e0088ac",
              "type": "pubkeyhash"
            },
            "value": 0.0100001,
            "valueSat": 1000010
          }
        ]
      },
      {
        "fee": 0.0001,
        "hex": "020000000131428a4536e20c2cf91ca9a488e6d76f173d8c5d97c15c2af409c10bf09230c2010000006a47304402201176d560c06a3f460119043b67b32ea9154ae081d6464b476a5c034cee0743eb02204baa0e22cea52abdc954f1e32b0e8bbea32733e822e8cd043c480e0effde45550121037740d121922ac03068626f8b19f91decafc369185cdc2a3c5d7159b9973aeacbffffffff0130750000000000001976a9146555742d143e3ff1293069fccd9a62ecfbbda61c88ac00000000",
        "instantlock": true,
        "instantlock_internal": false,
        "locktime": 0,
        "size": 191,
        "txid": "ea42947e29da89a43d93f3f835eacec88578e2fee2496f91d440fecaee69cccc",
        "type": 0,
        "version": 2,
        "vin": [
          {
            "scriptSig": {
              "asm": "304402201176d560c06a3f460119043b67b32ea9154ae081d6464b476a5c034cee0743eb02204baa0e22cea52abdc954f1e32b0e8bbea32733e822e8cd043c480e0effde4555[ALL] 037740d121922ac03068626f8b19f91decafc369185cdc2a3c5d7159b9973aeacb",
              "hex": "47304402201176d560c06a3f460119043b67b32ea9154ae081d6464b476a5c034cee0743eb02204baa0e22cea52abdc954f1e32b0e8bbea32733e822e8cd043c480e0effde45550121037740d121922ac03068626f8b19f91decafc369185cdc2a3c5d7159b9973aeacb"
            },
            "sequence": 4294967295,
            "txid": "c23092f00bc109f42a5cc1975d8c3d176fd7e688a4a91cf92c0ce236458a4231",
            "vout": 1
          }
        ],
        "vout": [
          {
            "n": 0,
            "scriptPubKey": {
              "address": "XjveT4dLBgETWR6srjtqkKcyxYAnQ8uEgC",
              "asm": "OP_DUP OP_HASH160 6555742d143e3ff1293069fccd9a62ecfbbda61c OP_EQUALVERIFY OP_CHECKSIG",
              "desc": "addr(XjveT4dLBgETWR6srjtqkKcyxYAnQ8uEgC)#pls98nh8",
              "hex": "76a9146555742d143e3ff1293069fccd9a62ecfbbda61c88ac",
              "type": "pubkeyhash"
            },
            "value": 0.0003,
            "valueSat": 30000
          }
        ]
      },
      {
        "fee": 2.25e-05,
        "hex": "0200000001d5e3e41d8fc211aa1399f3cc1b7e4423b222756e59923cc32c5cbc5145e6629e010000006a4730440220048f1fb65dfc652d61f5617a744a1556b9923dd770172e27390540e1c48dd951022061ef6117b8e0642de2f66eab828bcc935a8b26070de1c06adba829bfe9431e650121030b4537d3b625227716e4f98a5fce8cbee67e74b10727558b22cc6a61564e2eb2feffffff028dec0f00000000001976a91446c85b2b86a80f78ee155d9f9b1f2d8f8be6d38d88ac71000d1a000000001976a914fdaa837b7b8fd52077ed99a28b89772648bda21a88ac8f932200",
        "instantlock": true,
        "instantlock_internal": false,
        "locktime": 2265999,
        "size": 225,
        "txid": "439b8db2e13524b2a4c305ec92193c659e7cd36f2899d59ad91aeeff48e6848d",
        "type": 0,
        "version": 2,
        "vin": [
          {
            "scriptSig": {
              "asm": "30440220048f1fb65dfc652d61f5617a744a1556b9923dd770172e27390540e1c48dd951022061ef6117b8e0642de2f66eab828bcc935a8b26070de1c06adba829bfe9431e65[ALL] 030b4537d3b625227716e4f98a5fce8cbee67e74b10727558b22cc6a61564e2eb2",
              "hex": "4730440220048f1fb65dfc652d61f5617a744a1556b9923dd770172e27390540e1c48dd951022061ef6117b8e0642de2f66eab828bcc935a8b26070de1c06adba829bfe9431e650121030b4537d3b625227716e4f98a5fce8cbee67e74b10727558b22cc6a61564e2eb2"
            },
            "sequence": 4294967294,
            "txid": "9e62e64551bc5c2cc33c92596e7522b223447e1bccf39913aa11c28f1de4e3d5",
            "vout": 1
          }
        ],
        "vout": [
          {
            "n": 0,
            "scriptPubKey": {
              "address": "Xh979foK5uLB8GPJ5ji251SRhULPJueuyE",
              "asm": "OP_DUP OP_HASH160 46c85b2b86a80f78ee155d9f9b1f2d8f8be6d38d OP_EQUALVERIFY OP_CHECKSIG",
              "desc": "addr(Xh979foK5uLB8GPJ5ji251SRhULPJueuyE)#ncqj6nlx",
              "hex": "76a91446c85b2b86a80f78ee155d9f9b1f2d8f8be6d38d88ac",
              "type": "pubkeyhash"
            },
            "value": 0.01043597,
            "valueSat": 1043597
          },
          {
            "n": 1,
            "scriptPubKey": {
              "address": "Xyp74HA867Vb5doRYupdm1zeS2o4xMh2oj",
              "asm": "OP_DUP OP_HASH160 fdaa837b7b8fd52077ed99a28b89772648bda21a OP_EQUALVERIFY OP_CHECKSIG",
              "desc": "addr(Xyp74HA867Vb5doRYupdm1zeS2o4xMh2oj)#04tu5se3",
              "hex": "76a914fdaa837b7b8fd52077ed99a28b89772648bda21a88ac",
              "type": "pubkeyhash"
            },
            "value": 4.37059697,
            "valueSat": 437059697
          }
        ]
      },
      {
        "fee": 3.29e-06,
        "hex": "0100000001a2ee4368fd3dccd3f72dddc86dee750b7e7b2ebf52bb9976d619cd71be64d510000000006b483045022100b4a9925af3a9b097451260f4825b33bf45599c488746858c56243007b594617202204dee26432c7cbc1ac8d3fd9b5414faca7637752d7722f72844f9c64ecfa5e83701210390858f08c7fd68b3d5a3405c3f99312114f1934a6c924e787707db06c38ff735ffffffff0560320000000000001976a91445e12d2085c040afbf3e702d85f841078bba920188aca1860100000000001976a9143d4ee4adf01db4f9ac6d0fc1bbe7a571008e04bd88aca1860100000000001976a9146b84525b3ce89b9595daab2d3c52d1e24729631588aca1860100000000001976a9149e9458f8b5e2fb76b711de5f2441a926ad53a4d988aca1860100000000001976a914c8da165ef56605a8c7fe2a1fdd053b4b30a562bf88ac00000000",
        "instantlock": true,
        "instantlock_internal": false,
        "locktime": 0,
        "size": 328,
        "txid": "b5c1bd216015c3287ca1474489e05adcaf38195f90de3ba862d7e69cbd359768",
        "type": 0,
        "version": 1,
        "vin": [
          {
            "scriptSig": {
              "asm": "3045022100b4a9925af3a9b097451260f4825b33bf45599c488746858c56243007b594617202204dee26432c7cbc1ac8d3fd9b5414faca7637752d7722f72844f9c64ecfa5e837[ALL] 0390858f08c7fd68b3d5a3405c3f99312114f1934a6c924e787707db06c38ff735",
              "hex": "483045022100b4a9925af3a9b097451260f4825b33bf45599c488746858c56243007b594617202204dee26432c7cbc1ac8d3fd9b5414faca7637752d7722f72844f9c64ecfa5e83701210390858f08c7fd68b3d5a3405c3f99312114f1934a6c924e787707db06c38ff735"
            },
            "sequence": 4294967295,
            "txid": "10d564be71cd19d67699bb52bf2e7b7e0b75ee6dc8dd2df7d3cc3dfd6843eea2",
            "vout": 0
          }
        ],
        "vout": [
          {
            "n": 0,
            "scriptPubKey": {
              "address": "Xh4LD1dy3AibHtevkFD6bPkNdB1bJCpwp5",
              "asm": "OP_DUP OP_HASH160 45e12d2085c040afbf3e702d85f841078bba9201 OP_EQUALVERIFY OP_CHECKSIG",
              "desc": "addr(Xh4LD1dy3AibHtevkFD6bPkNdB1bJCpwp5)#quhpsnu6",
              "hex": "76a91445e12d2085c040afbf3e702d85f841078bba920188ac",
              "type": "pubkeyhash"
            },
            "value": 0.00012896,
            "valueSat": 12896
          },
          {
            "n": 1,
            "scriptPubKey": {
              "address": "XgH1ZZDTywZmNX6DM7QuHbwhTvTgLcDYys",
              "asm": "OP_DUP OP_HASH160 3d4ee4adf01db4f9ac6d0fc1bbe7a571008e04bd OP_EQUALVERIFY OP_CHECKSIG",
              "desc": "addr(XgH1ZZDTywZmNX6DM7QuHbwhTvTgLcDYys)#kalgmxjj",
              "hex": "76a9143d4ee4adf01db4f9ac6d0fc1bbe7a571008e04bd88ac",
              "type": "pubkeyhash"
            },
            "value": 0.00100001,
            "valueSat": 100001
          },
          {
            "n": 2,
            "scriptPubKey": {
              "address": "XkVLeeoPP7NBjkg7bBApU27yFhJ3YxB6CM",
              "asm": "OP_DUP OP_HASH160 6b84525b3ce89b9595daab2d3c52d1e247296315 OP_EQUALVERIFY OP_CHECKSIG",
              "desc": "addr(XkVLeeoPP7NBjkg7bBApU27yFhJ3YxB6CM)#fjakvx8a",
              "hex": "76a9146b84525b3ce89b9595daab2d3c52d1e24729631588ac",
              "type": "pubkeyhash"
            },
            "value": 0.00100001,
            "valueSat": 100001
          },
          {
            "n": 3,
            "scriptPubKey": {
              "address": "Xq9LJvwT5hWZqjpf7dtd1sMdd9EGHca1wb",
              "asm": "OP_DUP OP_HASH160 9e9458f8b5e2fb76b711de5f2441a926ad53a4d9 OP_EQUALVERIFY OP_CHECKSIG",
              "desc": "addr(Xq9LJvwT5hWZqjpf7dtd1sMdd9EGHca1wb)#xga765yl",
              "hex": "76a9149e9458f8b5e2fb76b711de5f2441a926ad53a4d988ac",
              "type": "pubkeyhash"
            },
            "value": 0.00100001,
            "valueSat": 100001
          },
          {
            "n": 4,
            "scriptPubKey": {
              "address": "XtzrEbZuYE8uQYae1nXnxjq6qWZjRVXK6V",
              "asm": "OP_DUP OP_HASH160 c8da165ef56605a8c7fe2a1fdd053b4b30a562bf OP_EQUALVERIFY OP_CHECKSIG",
              "desc": "addr(XtzrEbZuYE8uQYae1nXnxjq6qWZjRVXK6V)#00dckrzm",
              "hex": "76a914c8da165ef56605a8c7fe2a1fdd053b4b30a562bf88ac",
              "type": "pubkeyhash"
            },
            "value": 0.00100001,
            "valueSat": 100001
          }
        ]
      },
      {
        "fee": 2.25e-06,
        "hex": "02000000018ed93348a70be756f8f47f700b6466fdad100896f96b8cede34ddabf14ce6577010000006a4730440220080ae2955e58bd56000eb470144f38947cff7800489e0988a7cfff8a5d721c32022077dc6c2afaa0fa924fa26bbe53a5ec6843818c4503888c1c3056db179cbb42c3012103a9ce1545020899083e3cd05cf5b3883ed97b2956cc68664f559d6d98aff420e5feffffff02692d0000000000001976a9146bade5679aee322fbb82c209ef6771d3d6bcf25c88ac409c0000000000001976a9141be7e3f9594946aefdbe0b633b5d67e741363e8d88ac8f932200",
        "instantlock": true,
        "instantlock_internal": false,
        "locktime": 2265999,
        "size": 225,
        "txid": "0b26fc06596879708cf9a8e2a9babb9003e227d22288d72db0e7448e16aed08c",
        "type": 0,
        "version": 2,
        "vin": [
          {
            "scriptSig": {
              "asm": "30440220080ae2955e58bd56000eb470144f38947cff7800489e0988a7cfff8a5d721c32022077dc6c2afaa0fa924fa26bbe53a5ec6843818c4503888c1c3056db179cbb42c3[ALL] 03a9ce1545020899083e3cd05cf5b3883ed97b2956cc68664f559d6d98aff420e5",
              "hex": "4730440220080ae2955e58bd56000eb470144f38947cff7800489e0988a7cfff8a5d721c32022077dc6c2afaa0fa924fa26bbe53a5ec6843818c4503888c1c3056db179cbb42c3012103a9ce1545020899083e3cd05cf5b3883ed97b2956cc68664f559d6d98aff420e5"
            },
            "sequence": 4294967294,
            "txid": "7765ce14bfda4de3ed8c6bf9960810adfd66640b707ff4f856e70ba74833d98e",
            "vout": 1
          }
        ],
        "vout": [
          {
            "n": 0,
            "scriptPubKey": {
              "address": "XkWCTHww4zFYwFaiGDuw3kDF3nsAKXVy5B",
              "asm": "OP_DUP OP_HASH160 6bade5679aee322fbb82c209ef6771d3d6bcf25c OP_EQUALVERIFY OP_CHECKSIG",
              "desc": "addr(XkWCTHww4zFYwFaiGDuw3kDF3nsAKXVy5B)#kyx8wudf",
              "hex": "76a9146bade5679aee322fbb82c209ef6771d3d6bcf25c88ac",
              "type": "pubkeyhash"
            },
            "value": 0.00011625,
            "valueSat": 11625
          },
          {
            "n": 1,
            "scriptPubKey": {
              "address": "XdEPsU9hMzJj9nLYYnhCra1nEBAVNncsES",
              "asm": "OP_DUP OP_HASH160 1be7e3f9594946aefdbe0b633b5d67e741363e8d OP_EQUALVERIFY OP_CHECKSIG",
              "desc": "addr(XdEPsU9hMzJj9nLYYnhCra1nEBAVNncsES)#s7hzuaz8",
              "hex": "76a9141be7e3f9594946aefdbe0b633b5d67e741363e8d88ac",
              "type": "pubkeyhash"
            },
            "value": 0.0004,
            "valueSat": 40000
          }
        ]
      },
      {
        "fee": 2.25e-06,
        "hex": "02000000016470de6fa946c1c2571562a7f8d5f27ef92270cf02554f30663ca9f9927ada47000000006a473044022003faf532ff407dcadaa8a4b557b2b441e17c421081375ee16f33d9ab751fa27a022052b00910e786c3f8d7ce58bdf3211a5b0db0369fccd0ce9aeaee69a78930ecab01210218110fd64f4c88c3bc4cfc49b8d3723976d105226f219903f25c7ab77bdb7dddfeffffff02409c0000000000001976a91434e7fc1a1548ac90d7ea9ad419ac3d97baf0131e88ac22e20000000000001976a914632500cd594446c276b94fce415bc325fd237ddb88ac8f932200",
        "instantlock": true,
        "instantlock_internal": false,
        "locktime": 2265999,
        "size": 225,
        "txid": "8afc607fa45eabb01e1ea77e58d3548d09dae677e05dec62a061cda9bc1003fd",
        "type": 0,
        "version": 2,
        "vin": [
          {
            "scriptSig": {
              "asm": "3044022003faf532ff407dcadaa8a4b557b2b441e17c421081375ee16f33d9ab751fa27a022052b00910e786c3f8d7ce58bdf3211a5b0db0369fccd0ce9aeaee69a78930ecab[ALL] 0218110fd64f4c88c3bc4cfc49b8d3723976d105226f219903f25c7ab77bdb7ddd",
              "hex": "473044022003faf532ff407dcadaa8a4b557b2b441e17c421081375ee16f33d9ab751fa27a022052b00910e786c3f8d7ce58bdf3211a5b0db0369fccd0ce9aeaee69a78930ecab01210218110fd64f4c88c3bc4cfc49b8d3723976d105226f219903f25c7ab77bdb7ddd"
            },
            "sequence": 4294967294,
            "txid": "47da7a92f9a93c66304f5502cf7022f97ef2d5f8a7621557c2c146a96fde7064",
            "vout": 0
          }
        ],
        "vout": [
          {
            "n": 0,
            "scriptPubKey": {
              "address": "XfWasp82CwnMjhG781mJhX6mPwVmLkUtnr",
              "asm": "OP_DUP OP_HASH160 34e7fc1a1548ac90d7ea9ad419ac3d97baf0131e OP_EQUALVERIFY OP_CHECKSIG",
              "desc": "addr(XfWasp82CwnMjhG781mJhX6mPwVmLkUtnr)#5xjnhtp6",
              "hex": "76a91434e7fc1a1548ac90d7ea9ad419ac3d97baf0131e88ac",
              "type": "pubkeyhash"
            },
            "value": 0.0004,
            "valueSat": 40000
          },
          {
            "n": 1,
            "scriptPubKey": {
              "address": "Xjj54GTxqRqq8PyfMD71hQjQby36hgHqy5",
              "asm": "OP_DUP OP_HASH160 632500cd594446c276b94fce415bc325fd237ddb OP_EQUALVERIFY OP_CHECKSIG",
              "desc": "addr(Xjj54GTxqRqq8PyfMD71hQjQby36hgHqy5)#8h7fsp09",
              "hex": "76a914632500cd594446c276b94fce415bc325fd237ddb88ac",
              "type": "pubkeyhash"
            },
            "value": 0.0005789,
            "valueSat": 57890
          }
        ]
      }
    ],
    "version": 536870912,
    "versionHex": "20000000"
  },
  "height": 2266000
}