{
  "block_hash": "000000000000001976b8a868fd546b540a97c662b6a3acce9957830d71822428",
  "block_hex": "00000020b465dbf1e2b7c2d6a6df36f340765e57ac964f5a60b410ba20000000000000008859edf12655bbb3b6e7b66cc89b4b3dfc0604eb13fc925e7d95c43a5e42ee48b8e181684aa82719903971850303000500010000000000000000000000000000000000000000000000000000000000000000ffffffff2703703f2304b8e1816808000075bff6b600000fe4b883e5bda9e7a59ee4bb99e9b1bc04f09f909fbf7582b803ba3bd702000000001976a91464d4d4127bbce4b888bb4af080fa4de863b02b3f88acf122320300000000016a3a905305000000001976a91407374579ce5d75874999b2b728aa71bb967c21df88ace0bae824af0300703f230049c63c4e2d6c4cd3de0758b107af4f5095bbcae61c99730c113b133c31f8cae46210ff27d2e9fbfdaab77ad50677a861830f750881b4eee6e8c7db9d2d85715800b01f18f6fd62ba0162d679e649d7cb107a1687943f615275ec905e7f7fbd3ea8b15dc6a3fb70865f5f1d7f08bd979ba319768d7c21a873c27092d0f314b6febd9d57609feef925852db815cda10013a0eea311ba554ef5c15aca0df2531fe129bbeb25f899010000020000000a052bfeceed207f0da6dabf328f4cb22b721c5d7ad296e0bcc652d814e03eef23020000006a473044022073c3c7f67db9970b6cc197b47234b20e1e88c9f848dc1a43e8258b1bde3b12bf02206f004687033db106c014601bb76a24a76049fbc6703f519ad5da2d478633a54a812103014f6e29c9885ad80ac323b40190c5d5475f1af09f81d78b2a70e29f13a7e4f1ffffffffd51a5d43aefddb6fc81acb65a9a3e1fc5c4da3480e0d053ccf4afb2c209ce226030000006a47304402207fbaf23475d3ccca02f4843d13e9a7dbac39a0b6b3a1d43c228a8775bbb1a42402203ea3289dd72e666f9dfe851e111c7478b199bf7149ae1a2c2b12f9ac9803c38981210212f7b8ee1cc7d6591ff27f6f2e46e5c0784f9193ec70e9ef9ccbc92d4961d3a8ffffffff599e4aa40e4a0a3c9ed8ff0d89a8e55933269d90103510166d4bf78303aef92e000000006a47304402202e374dbf44f6e010bcb593aa6bbd364150ab51d6bba77ace8a2dc00ea95c241a022027b8102c662cc2f5c1aa4cd125655a7eb48ad84833c6c0aece54ae0656ae5ca481210315c5c07312db5c37323caaf045c37a9299a0d16d216a42bc8761589525fc12b7ffffffff40b95e4bc2ac9ec78ed72887d0c01fa426c71c47baaff872903043e9e3789733000000006a473044022038b0ef36ace3facf49176213c78558758684f2054ba2c2e99167ed0520aab49202201d448eea1b3e7addc423bf1fe2e14c7a329aab955481f63c5ca1b33aae7d2845812102447a6d2202e4bb82764e10ae72d061dfed861dbf0474425e20fbac15db00a1a0ffffffff7ccae1f188d67336c4f9623bc8f12b4af1634e38e6a035a039043e34ff6fd734040000006a4730440220717d551d59fc9a5ca6257ba7d8e33f121a3b1d7618204c075b0162672a7c1fc6022054a7274f7dd89297ebbefc5e33a1768953528d3b1f498f38b6186b894b741634812103bfaa3b77aebee901555bf39d79c493826eaa694d7560fd9de4d4ac0b405e61e2ffffffff8e26f9e4259a911613418057233d4f8382bf474b3415d86ee7505f91222edb3e050000006a473044022070dd0101f08f2ac44640dc881a7e92fd16a753e3fa099fd5c2de7fa90a44556902200cd9188fc236e8a21d34c77c2d827902736615ab0eda5650071f568e5db652528121034130a5cab75da9c2107c1fb815a7f8100fdec216c2b88a8cca834e4536cc0d74ffffffff62bd44a16432c6775d0920e28b9ae5b9f126b76e000be3ac4fa745a254b75a4a080000006a47304402202794fc97148226c1ac4e4935a75a0cceb47d457496ca93ceab21ab330244e605022015c396972196ca5044995f10e124c1a6cf1f0dfd7cfc0348db78772ef8913b498121028100fb00ba47091984dba2c3fa1af1aa49979cf33d40a0627b49f2e8ea674189fffffffff1605b625bd01e31dbdaeb4c4f5758135187786c3c02695ed64e9039fd4f0cbb030000006a4730440220499747567b438a779dd91eb37d4ed793a08aaf9915896b0d8870c2ca5ce314c802202ac5485bcaaa2fb05db78ad35dda771456bb254c5903865a863d8b90b694e5d2812103608794c87683c4c6e1224a70f073c33d1db0eeebe86a141b09830859e12fec2effffffff71a0398e7047476fa94651194110fc007eb660541747e0d88d69c997c90a0dd4060000006a47304402203127bb1ba0bab7a38cab8dc672ceb48890ab07a39464d3073b7dc949d9c69a550220618ad95485f301072ee1cb06834d7c3937ba7d6f26258ef6985df1a8a849c1478121021f0e4837ca261ba96e8fd19a807c9978ac30a9b877e46d41110c4560639dd39dffffffff4a3483974b7202d44891421520e1df2a6f34ff7eb40ab0ac34afbe0159396bdc020000006a47304402204241abf658f4498ffdecd1c26456517aa694171c545eb6a420d716f2b182fe0702207a394c7fbca057882bb1ce921a7cd99cfae71e6c4a3ec6ae8be9f640d5e71fd1812102e379bedda55005b5ccb3fdf8b7a9f859ec24abbebd9da46100d9bc8e5868a152ffffffff0aa1860100000000001976a914028c3373a580d65219a775ea6216fb6af7e17a3588aca1860100000000001976a9141f8f558afd0fad0aca3145a9357df76b88d9419588aca1860100000000001976a91433558711e201b217778353b2f0df15159fbe0cab88aca1860100000000001976a9146ac9c11cca67f323ecf263fb26433ef072dfba1188aca1860100000000001976a9147d3eccee42f564d94e4785030d4222e64657d6b088aca1860100000000001976a914b12231f804aa9930d231dab99344d4a6350b345888aca1860100000000001976a914c494b960a228017fa9f7b777468012dbab0967e688aca1860100000000001976a914e65554af194fda16da53ed97096e4b28741f482e88aca1860100000000001976a914ec6ccd2a949f1b3ec42bb24a0fd63a03684dcea488aca1860100000000001976a914fa43e6b6f33bda2972fe931e1644af21ecf09bbd88ac00000000020000000146c6d5ea10e5d43e08d470556a0ce0506d49ecf9c38082e4887b96f027096360010000006a4730440220653c0aaf132dcaf6f36ef63547aad8ed521e3ee899483ac8bb5d3fe384e931dc02205708e03bdc5d634af54d7784b4f0145f45ff439228da624bfd178f69493670d101210366d9f35ead95efa48ca6bc170a2cd137ca88c99a78b8f14a447f8741c7370431feffffff026d231000000000001976a914c62d7e27e8e0c66a7462e10292b786e37e49100388acc5ef1200000000001976a914ccb9fffd6ac3c6ce9f852ffa8ec797b18fe353bc88ac6f3f2300",
  "block_verbose": {
    "bits": "1927a84a",
    "cbTx": {
      "bestCLHeightDiff": 0,
      "bestCLSignature": "b01f18f6fd62ba0162d679e649d7cb107a1687943f615275ec905e7f7fbd3ea8b15dc6a3fb70865f5f1d7f08bd979ba319768d7c21a873c27092d0f314b6febd9d57609feef925852db815cda10013a0eea311ba554ef5c15aca0df2531fe129",
      "creditPoolBalance": 17608.04858811,
      "height": 2310000,
      "merkleRootMNList": "e4caf8313c133b110c73991ce6cabb95504faf07b15807ded34c6c2d4e3cc649",
      "merkleRootQuorums": "5871852d9ddbc7e8e6eeb48108750f8361a87706d57ab7aafdfbe9d227ff1062",
      "version": 3
    },
    "chainlock": true,
    "chainwork": "00000000000000000000000000000000000000000000aaf2a51a1e349174fe8d",
    "confirmations": 163135,
    "difficulty": 108300191.5913976,
    "hash": "000000000000001976b8a868fd546b540a97c662b6a3acce9957830d71822428",
    "height": 2310000,
    "mediantime": 1753341731,
    "merkleroot": "48ee425e3ac4957d5e92fc13eb0406fc3d4b9bc86cb6e7b6b3bb5526f1ed5988",
    "nTx": 3,
    "nextblockhash": "00000000000000105b66b89dc235140ccd1260ca2a1d2ece78c481afa0b8dd2b",
    "nonce": 2238790032,
    "previousblockhash": "0000000000000020ba10b4605a4f96ac575e7640f336dfa6d6c2b7e2f1db65b4",
    "size": 2470,
    "time": 1753342392,
    "tx": [
      {
        "cbTx": {
          "bestCLHeightDiff": 0,
          "bestCLSignature": "b01f18f6fd62ba0162d679e649d7cb107a1687943f615275ec905e7f7fbd3ea8b15dc6a3fb70865f5f1d7f08bd979ba319768d7c21a873c27092d0f314b6febd9d57609feef925852db815cda10013a0eea311ba554ef5c15aca0df2531fe129",
          "creditPoolBalance": 17608.04858811,
          "height": 2310000,
          "merkleRootMNList": "e4caf8313c133b110c73991ce6cabb95504faf07b15807ded34c6c2d4e3cc649",
          "merkleRootQuorums": "5871852d9ddbc7e8e6eeb48108750f8361a87706d57ab7aafdfbe9d227ff1062",
          "version": 3
        },
        "extraPayload": "0300703f230049c63c4e2d6c4cd3de0758b107af4f5095bbcae61c99730c113b133c31f8cae46210ff27d2e9fbfdaab77ad50677a861830f750881b4eee6e8c7db9d2d85715800b01f18f6fd62ba0162d679e649d7cb107a1687943f615275ec905e7f7fbd3ea8b15dc6a3fb70865f5f1d7f08bd979ba319768d7c21a873c27092d0f314b6febd9d57609feef925852db815cda10013a0eea311ba554ef5c15aca0df2531fe129bbeb25f899010000",
        "extraPayloadSize": 175,
        "hex": "03000500010000000000000000000000000000000000000000000000000000000000000000ffffffff2703703f2304b8e1816808000075bff6b600000fe4b883e5bda9e7a59ee4bb99e9b1bc04f09f909fbf7582b803ba3bd702000000001976a91464d4d4127bbce4b888bb4af080fa4de863b02b3f88acf122320300000000016a3a905305000000001976a91407374579ce5d75874999b2b728aa71bb967c21df88ace0bae824af0300703f230049c63c4e2d6c4cd3de0758b107af4f5095bbcae61c99730c113b133c31f8cae46210ff27d2e9fbfdaab77ad50677a861830f750881b4eee6e8c7db9d2d85715800b01f18f6fd62ba0162d679e649d7cb107a1687943f615275ec905e7f7fbd3ea8b15dc6a3fb70865f5f1d7f08bd979ba319768d7c21a873c27092d0f314b6febd9d57609feef925852db815cda10013a0eea311ba554ef5c15aca0df2531fe129bbeb25f899010000",
        "instantlock": true,
        "instantlock_internal": false,
        "locktime": 619231968,
        "size": 344,
        "txid": "8379ad8270190978675736d400ab6434ec9bd48a5ebd86877d7d34b3bbf82e7c",
        "type": 5,
        "version": 3,
        "vin": [
          {
            "coinbase": "03703f2304b8e1816808000075bff6b600000fe4b883e5bda9e7a59ee4bb99e9b1bc04f09f909f",
            "sequence": 3095557567
          }
        ],
        "vout": [
          {
            "n": 0,
            "scriptPubKey": {
              "address": "XjszN1jZJthEoaQDhGthRkaHL9AqaG3Vzw",
              "asm": "OP_DUP OP_HASH160 64d4d4127bbce4b888bb4af080fa4de863b02b3f OP_EQUALVERIFY OP_CHECKSIG",
              "desc": "addr(XjszN1jZJthEoaQDhGthRkaHL9AqaG3Vzw)#95rz05kx",
              "hex": "76a91464d4d4127bbce4b888bb4af080fa4de863b02b3f88ac",
              "type": "pubkeyhash"
            },
            "value": 0.47659962,
            "valueSat": 47659962
          },
          {
            "n": 1,
            "scriptPubKey": {
              "asm": "OP_RETURN",
              "desc": "raw(6a)#4mhr9ur5",
              "hex": "6a",
              "type": "nulldata"
            },
            "value": 0.53617393,
            "valueSat": 53617393
          },
          {
            "n": 2,
            "scriptPubKey": {
              "address": "XbLzmvJMGexgAoRVhTAQA6b7wSXMYgj7Zd",
              "asm": "OP_DUP OP_HASH160 07374579ce5d75874999b2b728aa71bb967c21df OP_EQUALVERIFY OP_CHECKSIG",
              "desc": "addr(XbLzmvJMGexgAoRVhTAQA6b7wSXMYgj7Zd)#u0ralceq",
              "hex": "76a91407374579ce5d75874999b2b728aa71bb967c21df88ac",
              "type": "pubkeyhash"
            },
            "value": 0.8936249,
            "valueSat": 89362490
          }
        ]
      },
      {
        "fee": 0.0,
        "hex": "020000000a052bfeceed207f0da6dabf328f4cb22b721c5d7ad296e0bcc652d814e03eef23020000006a473044022073c3c7f67db9970b6cc197b47234b20e1e88c9f848dc1a43e8258b1bde3b12bf02206f004687033db106c014601bb76a24a76049fbc6703f519ad5da2d478633a54a812103014f6e29c9885ad80ac323b40190c5d5475f1af09f81d78b2a70e29f13a7e4f1ffffffffd51a5d43aefddb6fc81acb65a9a3e1fc5c4da3480e0d053ccf4afb2c209ce226030000006a47304402207fbaf23475d3ccca02f4843d13e9a7dbac39a0b6b3a1d43c228a8775bbb1a42402203ea3289dd72e666f9dfe851e111c7478b199bf7149ae1a2c2b12f9ac9803c38981210212f7b8ee1cc7d6591ff27f6f2e46e5c0784f9193ec70e9ef9ccbc92d4961d3a8ffffffff599e4aa40e4a0a3c9ed8ff0d89a8e55933269d90103510166d4bf78303aef92e000000006a47304402202e374dbf44f6e010bcb593aa6bbd364150ab51d6bba77ace8a2dc00ea95c241a022027b8102c662cc2f5c1aa4cd125655a7eb48ad84833c6c0aece54ae0656ae5ca481210315c5c07312db5c37323caaf045c37a9299a0d16d216a42bc8761589525fc12b7ffffffff40b95e4bc2ac9ec78ed72887d0c01fa426c71c47baaff872903043e9e3789733000000006a473044022038b0ef36ace3facf49176213c78558758684f2054ba2c2e99167ed0520aab49202201d448eea1b3e7addc423bf1fe2e14c7a329aab955481f63c5ca1b33aae7d2845812102447a6d2202e4bb82764e10ae72d061dfed861dbf0474425e20fbac15db00a1a0ffffffff7ccae1f188d67336c4f9623bc8f12b4af1634e38e6a035a039043e34ff6fd734040000006a4730440220717d551d59fc9a5ca6257ba7d8e33f121a3b1d7618204c075b0162672a7c1fc6022054a7274f7dd89297ebbefc5e33a1768953528d3b1f498f38b6186b894b741634812103bfaa3b77aebee901555bf39d79c493826eaa694d7560fd9de4d4ac0b405e61e2ffffffff8e26f9e4259a911613418057233d4f8382bf474b3415d86ee7505f91222edb3e050000006a473044022070dd0101f08f2ac44640dc881a7e92fd16a753e3fa099fd5c2de7fa90a44556902200cd9188fc236e8a21d34c77c2d827902736615ab0eda5650071f568e5db652528121034130a5cab75da9c2107c1fb815a7f8100fdec216c2b88a8cca834e4536cc0d74ffffffff62bd44a16432c6775d0920e28b9ae5b9f126b76e000be3ac4fa745a254b75a4a080000006a47304402202794fc97148226c1ac4e4935a75a0cceb47d457496ca93ceab21ab330244e605022015c396972196ca5044995f10e124c1a6cf1f0dfd7cfc0348db78772ef8913b498121028100fb00ba47091984dba2c3fa1af1aa49979cf33d40a0627b49f2e8ea674189fffffffff1605b625bd01e31dbdaeb4c4f5758135187786c3c02695ed64e9039fd4f0cbb030000006a4730440220499747567b438a779dd91eb37d4ed793a08aaf9915896b0d8870c2ca5ce314c802202ac5485bcaaa2fb05db78ad35dda771456bb254c5903865a863d8b90b694e5d2812103608794c87683c4c6e1224a70f073c33d1db0eeebe86a141b09830859e12fec2effffffff71a0398e7047476fa94651194110fc007eb660541747e0d88d69c997c90a0dd4060000006a47304402203127bb1ba0bab7a38cab8dc672ceb48890ab07a39464d3073b7dc949d9c69a550220618ad95485f301072ee1cb06834d7c3937ba7d6f26258ef6985df1a8a849c1478121021f0e4837ca261ba96e8fd19a807c9978ac30a9b877e46d41110c4560639dd39dffffffff4a3483974b7202d44891421520e1df2a6f34ff7eb40ab0ac34afbe0159396bdc020000006a47304402204241abf658f4498ffdecd1c26456517aa694171c545eb6a420d716f2b182fe0702207a394c7fbca057882bb1ce921a7cd99cfae71e6c4a3ec6ae8be9f640d5e71fd1812102e379bedda55005b5ccb3fdf8b7a9f859ec24abbebd9da46100d9bc8e5868a152ffffffff0aa1860100000000001976a914028c3373a580d65219a775ea6216fb6af7e17a3588aca1860100000000001976a9141f8f558afd0fad0aca3145a9357df76b88d9419588aca1860100000000001976a91433558711e201b217778353b2f0df15159fbe0cab88aca1860100000000001976a9146ac9c11cca67f323ecf263fb26433ef072dfba1188aca1860100000000001976a9147d3eccee42f564d94e4785030d4222e64657d6b088aca1860100000000001976a914b12231f804aa9930d231dab99344d4a6350b345888aca1860100000000001976a914c494b960a228017fa9f7b777468012dbab0967e688aca1860100000000001976a914e65554af194fda16da53ed97096e4b28741f482e88aca1860100000000001976a914ec6ccd2a949f1b3ec42bb24a0fd63a03684dcea488aca1860100000000001976a914fa43e6b6f33bda2972fe931e1644af21ecf09bbd88ac00000000",
        "instantlock": true,
        "instantlock_internal": false,
        "locktime": 0,
        "size": 1820,
        "txid": "a8048a0b63ef55b713595f41265cfc207262025dba9cb74b15c22447f12ac809",
        "type": 0,
        "version": 2,
        "vin": [
          {
            "scriptSig": {
              "asm": "3044022073c3c7f67db9970b6cc197b47234b20e1e88c9f848dc1a43e8258b1bde3b12bf02206f004687033db106c014601bb76a24a76049fbc6703f519ad5da2d478633a54a[ALL|ANYONECANPAY] 03014f6e29c9885ad80ac323b40190c5d5475f1af09f81d78b2a70e29f13a7e4f1",
              "hex": "473044022073c3c7f67db9970b6cc197b47234b20e1e88c9f848dc1a43e8258b1bde3b12bf02206f004687033db106c014601bb76a24a76049fbc6703f519ad5da2d478633a54a812103014f6e29c9885ad80ac323b40190c5d5475f1af09f81d78b2a70e29f13a7e4f1"
            },
            "sequence": 4294967295,
            "txid": "23ef3ee014d852c6bce096d27a5d1c722bb24c8f32bfdaa60d7f20edcefe2b05",
            "vout": 2
          },
          {
            "scriptSig": {
              "asm": "304402207fbaf23475d3ccca02f4843d13e9a7dbac39a0b6b3a1d43c228a8775bbb1a42402203ea3289dd72e666f9dfe851e111c7478b199bf7149ae1a2c2b12f9ac9803c389[ALL|ANYONECANPAY] 0212f7b8ee1cc7d6591ff27f6f2e46e5c0784f9193ec70e9ef9ccbc92d4961d3a8",
              "hex": "47304402207fbaf23475d3ccca02f4843d13e9a7dbac39a0b6b3a1d43c228a8775bbb1a42402203ea3289dd72e666f9dfe851e111c7478b199bf7149ae1a2c2b12f9ac9803c38981210212f7b8ee1cc7d6591ff27f6f2e46e5c0784f9193ec70e9ef9ccbc92d4961d3a8"
            },
            "sequence": 4294967295,
            "txid": "26e29c202cfb4acf3c050d0e48a34d5cfce1a3a965cb1ac86fdbfdae435d1ad5",
            "vout": 3
          },
          {
            "scriptSig": {
              "asm": "304402202e374dbf44f6e010bcb593aa6bbd364150ab51d6bba77ace8a2dc00ea95c241a022027b8102c662cc2f5c1aa4cd125655a7eb48ad84833c6c0aece54ae0656ae5ca4[ALL|ANYONECANPAY] 0315c5c07312db5c37323caaf045c37a9299a0d16d216a42bc8761589525fc12b7",
              "hex": "47304402202e374dbf44f6e010bcb593aa6bbd364150ab51d6bba77ace8a2dc00ea95c241a022027b8102c662cc2f5c1aa4cd125655a7eb48ad84833c6c0aece54ae0656ae5ca481210315c5c07312db5c37323caaf045c37a9299a0d16d216a42bc8761589525fc12b7"
            },
            "sequence": 4294967295,
            "txid": "2ef9ae0383f74b6d16103510909d263359e5a8890dffd89e3c0a4a0ea44a9e59",
            "vout": 0
          },
          {
            "scriptSig": {
              "asm": "3044022038b0ef36ace3facf49176213c78558758684f2054ba2c2e99167ed0520aab49202201d448eea1b3e7addc423bf1fe2e14c7a329aab955481f63c5ca1b33aae7d2845[ALL|ANYONECANPAY] 02447a6d2202e4bb82764e10ae72d061dfed861dbf0474425e20fbac15db00a1a0",
              "hex": "473044022038b0ef36ace3facf49176213c78558758684f2054ba2c2e99167ed0520aab49202201d448eea1b3e7addc423bf1fe2e14c7a329aab955481f63c5ca1b33aae7d2845812102447a6d2202e4bb82764e10ae72d061dfed861dbf0474425e20fbac15db00a1a0"
            },
            "sequence": 4294967295,
            "txid": "339778e3e943309072f8afba471cc726a41fc0d08728d78ec79eacc24b5eb940",
            "vout": 0
          },
          {
            "scriptSig": {
              "asm": "30440220717d551d59fc9a5ca6257ba7d8e33f121a3b1d7618204c075b0162672a7c1fc6022054a7274f7dd89297ebbefc5e33a1768953528d3b1f498f38b6186b894b741634[ALL|ANYONECANPAY] 03bfaa3b77aebee901555bf39d79c493826eaa694d7560fd9de4d4ac0b405e61e2",
              "hex": "4730440220717d551d59fc9a5ca6257ba7d8e33f121a3b1d7618204c075b0162672a7c1fc6022054a7274f7dd89297ebbefc5e33a1768953528d3b1f498f38b6186b894b741634812103bfaa3b77aebee901555bf39d79c493826eaa694d7560fd9de4d4ac0b405e61e2"
            },
            "sequence": 4294967295,
            "txid": "34d76fff343e0439a035a0e6384e63f14a2bf1c83b62f9c43673d688f1e1ca7c",
            "vout": 4
          },
          {
            "scriptSig": {
              "asm": "3044022070dd0101f08f2ac44640dc881a7e92fd16a753e3fa099fd5c2de7fa90a44556902200cd9188fc236e8a21d34c77c2d827902736615ab0eda5650071f568e5db65252[ALL|ANYONECANPAY] 034130a5cab75da9c2107c1fb815a7f8100fdec216c2b88a8cca834e4536cc0d74",
              "hex": "473044022070dd0101f08f2ac44640dc881a7e92fd16a753e3fa099fd5c2de7fa90a44556902200cd9188fc236e8a21d34c77c2d827902736615ab0eda5650071f568e5db652528121034130a5cab75da9c2107c1fb815a7f8100fdec216c2b88a8cca834e4536cc0d74"
            },
            "sequence": 4294967295,
            "txid": "3edb2e22915f50e76ed815344b47bf82834f3d235780411316919a25e4f9268e",
            "vout": 5
          },
          {
            "scriptSig": {
              "asm": "304402202794fc97148226c1ac4e4935a75a0cceb47d457496ca93ceab21ab330244e605022015c396972196ca5044995f10e124c1a6cf1f0dfd7cfc0348db78772ef8913b49[ALL|ANYONECANPAY] 028100fb00ba47091984dba2c3fa1af1aa49979cf33d40a0627b49f2e8ea674189",
              "hex": "47304402202794fc97148226c1ac4e4935a75a0cceb47d457496ca93ceab21ab330244e605022015c396972196ca5044995f10e124c1a6cf1f0dfd7cfc0348db78772ef8913b498121028100fb00ba47091984dba2c3fa1af1aa49979cf33d40a0627b49f2e8ea674189"
            },
            "sequence": 4294967295,
            "txid": "4a5ab754a245a74face30b006eb726f1b9e59a8be220095d77c63264a144bd62",
            "vout": 8
          },
          {
            "scriptSig": {
              "asm": "30440220499747567b438a779dd91eb37d4ed793a08aaf9915896b0d8870c2ca5ce314c802202ac5485bcaaa2fb05db78ad35dda771456bb254c5903865a863d8b90b694e5d2[ALL|ANYONECANPAY] 03608794c87683c4c6e1224a70f073c33d1db0eeebe86a141b09830859e12fec2e",
              "hex": "4730440220499747567b438a779dd91eb37d4ed793a08aaf9915896b0d8870c2ca5ce314c802202ac5485bcaaa2fb05db78ad35dda771456bb254c5903865a863d8b90b694e5d2812103608794c87683c4c6e1224a70f073c33d1db0eeebe86a141b09830859e12fec2e"
            },
            "sequence": 4294967295,
            "txid": "bb0c4ffd39904ed65e69023c6c7887511358574f4cebdadb311ed05b625b60f1",
            "vout": 3
          },
          {
            "scriptSig": {
              "asm": "304402203127bb1ba0bab7a38cab8dc672ceb48890ab07a39464d3073b7dc949d9c69a550220618ad95485f301072ee1cb06834d7c3937ba7d6f26258ef6985df1a8a849c147[ALL|ANYONECANPAY] 021f0e4837ca261ba96e8fd19a807c9978ac30a9b877e46d41110c4560639dd39d",
              "hex": "47304402203127bb1ba0bab7a38cab8dc672ceb48890ab07a39464d3073b7dc949d9c69a550220618ad95485f301072ee1cb06834d7c3937ba7d6f26258ef6985df1a8a849c1478121021f0e4837ca261ba96e8fd19a807c9978ac30a9b877e46d41110c4560639dd39d"
            },
            "sequence": 4294967295,
            "txid": "d40d0ac997c9698dd8e047175460b67e00fc1041195146a96f4747708e39a071",
            "vout": 6
          },
          {
            "scriptSig": {
              "asm": "304402204241abf658f4498ffdecd1c26456517aa694171c545eb6a420d716f2b182fe0702207a394c7fbca057882bb1ce921a7cd99cfae71e6c4a3ec6ae8be9f640d5e71fd1[ALL|ANYONECANPAY] 02e379bedda55005b5ccb3fdf8b7a9f859ec24abbebd9da46100d9bc8e5868a152",
              "hex": "47304402204241abf658f4498ffdecd1c26456517aa694171c545eb6a420d716f2b182fe0702207a394c7fbca057882bb1ce921a7cd99cfae71e6c4a3ec6ae8be9f640d5e71fd1812102e379bedda55005b5ccb3fdf8b7a9f859ec24abbebd9da46100d9bc8e5868a152"
            },
            "sequence": 4294967295,
            "txid": "dc6b395901beaf34acb00ab47eff346f2adfe12015429148d402724b9783344a",
            "vout": 2
          }
        ],
        "vout": [
          {
            "n": 0,
            "scriptPubKey": {
              "address": "XavK8yLpDaTFHK32kApZu2Mxdr49YoUDWH",
              "asm": "OP_DUP OP_HASH160 028c3373a580d65219a775ea6216fb6af7e17a35 OP_EQUALVERIFY OP_CHECKSIG",
              "desc": "addr(XavK8yLpDaTFHK32kApZu2Mxdr49YoUDWH)#xpd6x93p",
              "hex": "76a914028c3373a580d65219a775ea6216fb6af7e17a3588ac",
              "type": "pubkeyhash"
            },
            "value": 0.00100001,
            "valueSat": 100001
          },
          {
            "n": 1,
            "scriptPubKey": {
              "address": "XdZiVEPdZvRtxD8yBpQfAg4QFVK4jbSWKD",
              "asm": "OP_DUP OP_HASH160 1f8f558afd0fad0aca3145a9357df76b88d94195 OP_EQUALVERIFY OP_CHECKSIG",
              "desc": "addr(XdZiVEPdZvRtxD8yBpQfAg4QFVK4jbSWKD)#ss9qvvwj",
              "hex": "76a9141f8f558afd0fad0aca3145a9357df76b88d9419588ac",
              "type": "pubkeyhash"
            },
            "value": 0.00100001,
            "valueSat": 100001
          },
          {
            "n": 2,
            "scriptPubKey": {
              "address": "XfNGkbjxwdvrQaDhQSZts9tu5jo1Vn79wF",
              "asm": "OP_DUP OP_HASH160 33558711e201b217778353b2f0df15159fbe0cab OP_EQUALVERIFY OP_CHECKSIG",
              "desc": "addr(XfNGkbjxwdvrQaDhQSZts9tu5jo1Vn79wF)#ph8p9r08",
              "hex": "76a91433558711e201b217778353b2f0df15159fbe0cab88ac",
              "type": "pubkeyhash"
            },
            "value": 0.00100001,
            "valueSat": 100001
          },
          {
            "n": 3,
            "scriptPubKey": {
              "address": "XkRV9j1iws5BiEF8bZuavmX69851NJELHF",
              "asm": "OP_DUP OP_HASH160 6ac9c11cca67f323ecf263fb26433ef072dfba11 OP_EQUALVERIFY OP_CHECKSIG",
              "desc": "addr(XkRV9j1iws5BiEF8bZuavmX69851NJELHF)#25x3s9es",
              "hex": "76a9146ac9c11cca67f323ecf263fb26433ef072dfba1188ac",
              "type": "pubkeyhash"
            },
            "value": 0.00100001,
            "valueSat": 100001
          },
          {
            "n": 4,
            "scriptPubKey": {
              "address": "Xn75XgsUe26ZN7zfZAHpGVgWoSXRjbZ1F1",
              "asm": "OP_DUP OP_HASH160 7d3eccee42f564d94e4785030d4222e64657d6b0 OP_EQUALVERIFY OP_CHECKSIG",
              "desc": "addr(Xn75XgsUe26ZN7zfZAHpGVgWoSXRjbZ1F1)#xtl6cw9t",
              "hex": "76a9147d3eccee42f564d94e4785030d4222e64657d6b088ac",
              "type": "pubkeyhash"
            },
            "value": 0.00100001,
            "valueSat": 100001
          },
          {
            "n": 5,
            "scriptPubKey": {
              "address": "XrqSQ8YmHGzHgCP6JQm9EXk1UKwpBJvAc1",
              "asm": "OP_DUP OP_HASH160 b12231f804aa9930d231dab99344d4a6350b3458 OP_EQUALVERIFY OP_CHECKSIG",
              "desc": "addr(XrqSQ8YmHGzHgCP6JQm9EXk1UKwpBJvAc1)#dnwdwy54",
              "hex": "76a914b12231f804aa9930d231dab99344d4a6350b345888ac",
              "type": "pubkeyhash"
            },
            "value": 0.00100001,
            "valueSat": 100001
          },
          {
            "n": 6,
            "scriptPubKey": {
              "address": "XtcGSPLiTCYVvkVUxysXtMp26c6PVfxHCV",
              "asm": "OP_DUP OP_HASH160 c494b960a228017fa9f7b777468012dbab0967e6 OP_EQUALVERIFY OP_CHECKSIG",
              "desc": "addr(XtcGSPLiTCYVvkVUxysXtMp26c6PVfxHCV)#z69fsafc",
              "hex": "76a914c494b960a228017fa9f7b777468012dbab0967e688ac",
              "type": "pubkeyhash"
            },
            "value": 0.00100001,
            "valueSat": 100001
          },
          {
            "n": 7,
            "scriptPubKey": {
              "address": "XwgjUGAA7TAyS7yVGNnMK6DPjD2kmx4CK7",
              "asm": "OP_DUP OP_HASH160 e65554af194fda16da53ed97096e4b28741f482e OP_EQUALVERIFY OP_CHECKSIG",
              "desc": "addr(XwgjUGAA7TAyS7yVGNnMK6DPjD2kmx4CK7)#p6z5ereg",
              "hex": "76a914e65554af194fda16da53ed97096e4b28741f482e88ac",
              "type": "pubkeyhash"
            },
            "value": 0.00100001,
            "valueSat": 100001
          },
          {
            "n": 8,
            "scriptPubKey": {
              "address": "XxEweBUTqBRrxuSZqV8DdEYxheb7xwp95V",
              "asm": "OP_DUP OP_HASH160 ec6ccd2a949f1b3ec42bb24a0fd63a03684dcea4 OP_EQUALVERIFY OP_CHECKSIG",
              "desc": "addr(XxEweBUTqBRrxuSZqV8DdEYxheb7xwp95V)#f75khhpz",
              "hex": "76a914ec6ccd2a949f1b3ec42bb24a0fd63a03684dcea488ac",
              "type": "pubkeyhash"
            },
            "value": 0.00100001,
            "valueSat": 100001
          },
          {
            "n": 9,
            "scriptPubKey": {
              "address": "XyW8755gS4Vj8k8uZSHyBFTZ1kSgRqvrhx",
              "asm": "OP_DUP OP_HASH160 fa43e6b6f33bda2972fe931e1644af21ecf09bbd OP_EQUALVERIFY OP_CHECKSIG",
              "desc": "addr(XyW8755gS4Vj8k8uZSHyBFTZ1kSgRqvrhx)#dthk0thu",
              "hex": "76a914fa43e6b6f33bda2972fe931e1644af21ecf09bbd88ac",
              "type": "pubkeyhash"
            },
            "value": 0.00100001,
            "valueSat": 100001
          }
        ]
      },
      {
        "fee": 2.25e-06,
        "hex": "020000000146c6d5ea10e5d43e08d470556a0ce0506d49ecf9c38082e4887b96f027096360010000006a4730440220653c0aaf132dcaf6f36ef63547aad8ed521e3ee899483ac8bb5d3fe384e931dc02205708e03bdc5d634af54d7784b4f0145f45ff439228da624bfd178f69493670d101210366d9f35ead95efa48ca6bc170a2cd137ca88c99a78b8f14a447f8741c7370431feffffff026d231000000000001976a914c62d7e27e8e0c66a7462e10292b786e37e49100388acc5ef1200000000001976a914ccb9fffd6ac3c6ce9f852ffa8ec797b18fe353bc88ac6f3f2300",
        "instantlock": true,
        "instantlock_internal": false,
        "locktime": 2309999,
        "size": 225,
        "txid": "6cf05c4587c6c12a8ece614fd0c2293820c5883c4ead645cd42d23ad86c2f900",
        "type": 0,
        "version": 2,
        "vin": [
          {
            "scriptSig": {
              "asm": "30440220653c0aaf132dcaf6f36ef63547aad8ed521e3ee899483ac8bb5d3fe384e931dc02205708e03bdc5d634af54d7784b4f0145f45ff439228da624bfd178f69493670d1[ALL] 0366d9f35ead95efa48ca6bc170a2cd137ca88c99a78b8f14a447f8741c7370431",
              "hex": "4730440220653c0aaf132dcaf6f36ef63547aad8ed521e3ee899483ac8bb5d3fe384e931dc02205708e03bdc5d634af54d7784b4f0145f45ff439228da624bfd178f69493670d101210366d9f35ead95efa48ca6bc170a2cd137ca88c99a78b8f14a447f8741c7370431"
            },
            "sequence": 4294967294,
            "txid": "60630927f0967b88e48280c3f9ec496d50e00c6a5570d4083ed4e510ead5c646",
            "vout": 1
          }
        ],
        "vout": [
          {
            "n": 0,
            "scriptPubKey": {
              "address": "Xtki88YFo68ahhkugPsCS37qTahbzsTMVv",
              "asm": "OP_DUP OP_HASH160 c62d7e27e8e0c66a7462e10292b786e37e491003 OP_EQUALVERIFY OP_CHECKSIG",
              "desc": "addr(Xtki88YFo68ahhkugPsCS37qTahbzsTMVv)#30e73rz7",
              "hex": "76a914c62d7e27e8e0c66a7462e10292b786e37e49100388ac",
              "type": "pubkeyhash"
            },
            "value": 0.01057645,
            "valueSat": 1057645
          },
          {
            "n": 1,
            "scriptPubKey": {
              "address": "XuMLVtcYTuF5jkzuxvrjnzY8u6bDGRo2qq",
              "asm": "OP_DUP OP_HASH160 ccb9fffd6ac3c6ce9f852ffa8ec797b18fe353bc OP_EQUALVERIFY OP_CHECKSIG",
              "desc": "addr(XuMLVtcYTuF5jkzuxvrjnzY8u6bDGRo2qq)#6cvq0488",
              "hex": "76a914ccb9fffd6ac3c6ce9f852ffa8ec797b18fe353bc88ac",
              "type": "pubkeyhash"
            },
            "value": 0.01241029,
            "valueSat": 1241029
          }
        ]
      }
    ],
    "version": 536870912,
    "versionHex": "20000000"
  },
  "height": 2310000
}