{
  "block_hash": "000000000000001a40cfbfbd01a5319dfd89832a3312e5a1f079e6334a9585f7",
  "block_hex": "000000209d646e26bb119aa28baf334c3e9bef5be7d86b33c75ada1a10000000000000008bfbad5030ebfe49954e41459816c2437a81a8af3060d5eb4c208973fd825b7ad13a8868629b3119b618154f0403000500010000000000000000000000000000000000000000000000000000000000000000ffffffff2603c04923194d696e656420627920416e74506f6f6c209c000103debfa2630000c1a5b82d0100ffffffff03f122320300000000016ae5905305000000001976a9144cf0ebdf412bca2ef2582968bb15445192e1909b88acf23bd702000000001976a9140bc729447753bb2b0fbda9a555a30ca3aee7aecb88ac00000000af0300c04923009e048d3d4d2f9f172335ee54ef32c06b7548b7c4190b7d28ee7489004d158b0a44361382b1147ca82cba8605f5947469db340ac96d135e22767a088701394c9b00875a6419e302cd2f18e7f339cd2d31aa63377c927afb4f0d5c941610def4a1adf50e3745a39985411019604d64ddec66101be4af1540984acd9a80d951ac87636d7a7e599526783529d4b22c48664d29dd26a9ed26a8a6922a93ce230f62d9b8d91ca29eaf0100000200000006dc54062d4a964f85606414fa4b7df7b092ef91e3e3689a51c82718a45b478e0e000000006a4730440220567c162f0665615c0e9c90aeef55185cde12092a5bf8e22aaf12c6fc1a3a6258022033505402f2177cbfd73c26c9a80843659d1ccdef013a753aeaf2e61adac65b0b8121026587ac2cdf85665ea4f13e547511f680f71df271053618100bb86d83b1172cd8ffffffff1d6cbd4a1417def923f1f935a375fac936d76ae6f31c7b6bbf0830ec87bf8f9c020000006a47304402204db9120b0defc952f020fe816527aa36946a88a761538bc977c4dd104e0936bc02202279705e1f5c2dd886bdccc18144db0df9ec9430b6a6c2db55c5feb887b8f9d6812102d81d431ef88c1302158e09825b8943946876efe22ee6c1c8b32993e9296b6c92fffffffff0e761f91255b077a51544e0bf54588f17ca0fa424215813e321e755e16445b8010000006a473044022075e62141329df31be56ddc6830543a0d2f5af7949d2bb0c9a0138ffad7c90d0a02204067698e656c25fbacc4a172c30f1735f5fc016692174572418f60a2061939fd812102edf1974045807c27481ba9aef2e4441187bad3e1305f635e3cc9df9ac5623adffffffffff0e761f91255b077a51544e0bf54588f17ca0fa424215813e321e755e16445b8050000006a4730440220608428cb7dabb4478f3cf5b9fef614acf022d92cd09e6793703fd425e1bcdf3102205e6d4f736dd46624cbb08d592121160187918571a03b138ef0006705001915d48121024b65c3c552821d2a4eb513ced4fb913f4fbfacaae90a248a17a36421a287f3edffffffffd58dbefd78be6c55cae2398a5fb9f8e980a7d06a69813f1b6c4f7ef56b179bcd020000006a47304402203edf0171f9ec716d28c3011cdd45451bb3fb021de23b88d3eba00659077bce5c02207a4d796e3f76ee3eb27aca0cf22cbb62f6cb40ec830cbf3750e5af7d126616cf812103de4ab64b41529e1b6d00b50b593c08ddd3263d6d7878bb2d56f13777d8bdd06effffffffa7d5999df2f825046d8b8d07c0b03f7b2f6273d9b299e2290c66cce6585aedeb020000006a47304402200b43b77da3838b25ba99d2957b4cf3aa98996431d76b65c49d2a7eac7b8fb6230220102b6e6f9d772ada799e5c50083577e95fed016abe26c6de4544778d1e0c2755812103be7a627784b3864723efe994001f62ae1602b61f26686c567928ef0ca3ada7abffffffff0610f19a3b000000001976a9141dc9497be4ee70df7fe050c9b0de83f66507386f88ac10f19a3b000000001976a9144928862567e7d605120573b881c6f1c7de3da34688ac10f19a3b000000001976a91454fe5d616141be490d578a88a4a2211b4e1f871c88ac10f19a3b000000001976a9146b066300a9132531aabbe6f33e7bc7cd14636e3a88ac10f19a3b000000001976a9149c7469f4a6c3e85417e27661072d744b3321839288ac10f19a3b000000001976a914ebb2ac76bdf9e10cd9b49138faeffd4648b299f188ac00000000020000000b80d704ac074a92dbbee56984c91e3bdfa7cffc412c4428ca25d6e2d93ee08810050000006a47304402203168c945861b46f513a59ed901fbd690494cc537df65e0b59b4034bb816d68ce02205f460ad9de05580c1e7342b480a02941469e211ab429a2ee4d27c9b2e6c417f5812103229f76deed076fed0e9669706544f98e6a7182d92c1373c6d4686545606e8d4bffffffff24369980339d6985ed3ead2ef669a9f2635c92366a9d17b4e83a0abbb2eb5815030000006a47304402206733318ad21e0d521202530557dcb36c3191620ab57030536f96d9a39a40318202204f87b6232a932c295f4cb3007754ff0f27817f6fefc813ed65857e2eb8d0c4278121038736cf4736fe4cfeb6fa31d8badd230942f0449f0cc9f279d156df0caff7bcb2ffffffff3766f4fec6390ea0f6662e25a800408ab03c25086ba808ccbdcf5cb5c2f0322d040000006a4730440220748d00c21b055401a1ca1772efc9eec9404c29da9ff3cd81080e0b1004512c6a022049c0531f1f347f8e68b264d329afb8bfc383e280896f45a1f3617c615cb786938121028e6e87f371e3210b64da5ad07aea0b309cb3407adcdba7b8c31c3eba2d48d4cdffffffff4502a0f4196807fca63e47be11894964a038d63c0f4e50012fb33c5b1e8d1534090000006a4730440220658777e34a57dbcc9108d585497974c7376c37f2eaa1ef67a81b99896779599d022033da3e52ebd3439f444ab82f4bdc01fae231096aee25fc7bdeda79787dab76d981210364054f9301e3b3660e041cc7832947f81e56e8248608dd844dee5274e3a59560ffffffffdec878ed9c4fef6adc26d026d1f57829a01ac20c5f614105a199ec53375abf6b030000006a47304402203782337c099879560d815ebeec9d2b8ca24920c8b6f77df3c09dd672d2399a5b0220473ba3f31dc8f303fc6cccbf427db571192bb0a7476199014c7bd5de8554920481210209e9ce66bbed059939bfdf6d2e7097aee7e5a01d2166e30d9c811d2255d8663effffffff392f8cd2177cc01f0f4975b536f8ddf0a2f8b34d9bac7e084d6d48759118a174000000006a47304402207beb7fd7c8d1e0380f2bf255687be6c3d7ecaa9821c27d3fe44a7967ae249882022025414923169edd98eb0050021581a8a91f106cd32dd32388057fe2c6ea1050ff8121029e4774a43f381d3c9bc7f08de628732874c0cb1a6480fc6b0a7e69795b7a3793ffffffffe1bfb3ab1ca955103fb34d1bda02650cd323a3c98a58992bc1c763c0a3e7d874030000006a47304402201419bc47e60f7bd85f915ff2c338b968165b94278ce7f1c26f264fa67636686c022026145923d928258192824a99f4a10d47705c96126b4b70f9a2709e197eb40fc281210319329ea5f0cf1c2214b3cb0d8e79dabe15ed5c54591eae0cc946ba30245c70d4ffffffffb067c7b48b1dade402a327dffd1a1fdeb0c3d3ca57001a6b9778289c2e035396000000006a47304402203965e2a53b92f0dde0d078d9f14e8d52cb865fbeebd2f28835433f73e9594a25022033aefdcffb746d14c4f8fba8cc42913857895af256d7c237e59f06b1a801e59f812102839c3fdb008523837129290a3bd0d74032e07dda2a1652170252adca05e4db62ffffffff1d6cbd4a1417def923f1f935a375fac936d76ae6f31c7b6bbf0830ec87bf8f9c000000006a473044022005711d5f6c44af196490fc4b4466eaa6b85985c1c08f30113c79a69b506db3e7022040b801e21a806f3376593c531e2c4c5cd295f7c25099cc82d3b9cd90e52b10498121031592702bc4d3df0ea5dfba96d2b898af29aad13dfea382c48d2a9fd2144246f0ffffffffaa1cb2a2d053814c24071834f66ecd53da10197306318fb017609d8be428d0d4030000006a47304402206bf1b07ca0d25459c8dbae65cae6d52de9a93588d4202a8b261aec4f6fcc38cd0220039bfaf6ee58cd4db578ec6d4d8b2e2038a75342dde8f3c12d8147360fb46c998121023f2ab7667df16b3f85da07a0f520544df2ef7d5aa1c04b3c0318a983214019beffffffffa7d5999df2f825046d8b8d07c0b03f7b2f6273d9b299e2290c66cce6585aedeb000000006a473044022070f8e2edab770f45b4be24fbc9a29581922785a72106a7baaa7658457600de67022037dbe96b6bc28e5e1cac9aff7274013b98cd3e7ae15bcd3dc9737da074432823812103b62861693ac3db22ce92b5ec6e9830344faa1401150ecc8dbdbd4494c0d01db5ffffffff0b10f19a3b000000001976a9140fb7e9db18e802f1868e5ffba0f4f2d265053cf988ac10f19a3b000000001976a91442ea333459a2583e46c0e543d3b68fc8e39bae1b88ac10f19a3b000000001976a91463fe92e80727ee65ac9858ca872128c3e23ee59588ac10f19a3b000000001976a9146852438cce252ffdb3aa1a4b90a0729c9ddb383688ac10f19a3b000000001976a9149aea91d8721369c15b50d397ec177cbe85a8c9af88ac10f19a3b000000001976a914b5131469a9ab9f8b9e752d226e29a42fcf7429be88ac10f19a3b000000001976a914dfe006f587c5169c7526aca48ac5f0b57162130d88ac10f19a3b000000001976a914e0923809f17b4079cd1ae1e84ca0225c1a8bc49388ac10f19a3b000000001976a914e3c283aa32bcf28bcd93a8753c050ba79896396788ac10f19a3b000000001976a914f07b1df1df1275f8bc295aa8f180d925fd47d0e588ac10f19a3b000000001976a914f8d1b2e58bcdf6dc2cff4cebc8c2cd12d80a246a88ac000000000200000001d2f0260fb78f2119c22bd462dd8b71ce1f3c28bb0c1e4050a4d04d07bf97c782010000006b483045022100e722c21a6c4556f3faf78ca7c00dcc0b951145a35345569fe0d6f52d102fc919022014c82a0b544fc7aaffaee6cd80d1bfc8842e51279502a3021d80734058db8880012103ce8128523ee2dcf8c46f085faf1ca2f8d64d46a30c6203cf57ef0ddb8eba33c1fdffffff0254995502000000001976a9149d2a9a7f737838a311cf3f7ac99dbfc639ad9eca88aca37c0d690f0000001976a91479ba46efc2fb13fe2b2cfe93d35a529606d5b82888ac00000000",
  "block_verbose": {
    "bits": "19319b62",
    "cbTx": {
      "bestCLHeightDiff": 0,
      "bestCLSignature": "875a6419e302cd2f18e7f339cd2d31aa63377c927afb4f0d5c941610def4a1adf50e3745a39985411019604d64ddec66101be4af1540984acd9a80d951ac87636d7a7e599526783529d4b22c48664d29dd26a9ed26a8a6922a93ce230f62d9b8",
      "creditPoolBalance": 18537.92328921,
      "height": 2312640,
      "merkleRootMNList": "0a8b154d008974ee287d0b19c4b748756bc032ef54ee3523179f2f4d3d8d049e",
      "merkleRootQuorums": "9b4c390187087a76225e136dc90a34db697494f50586ba2ca87c14b182133644",
      "version": 3
    },
    "chainlock": true,
    "chainwork": "00000000000000000000000000000000000000000000ab23952f87b9fb952b5d",
    "confirmations": 160495,
    "difficulty": 86578605.18054211,
    "hash": "000000000000001a40cfbfbd01a5319dfd89832a3312e5a1f079e6334a9585f7",
    "height": 2312640,
    "mediantime": 1753757869,
    "merkleroot": "7a5b82fd7389204cebd56030afa8817a43c2169845414e9549feeb3050adfb8b",
    "nTx": 4,
    "nextblockhash": "0000000000000027983c0dc8a93072b0857fed1b1d6ac0fc7b19210f79c31d5e",
    "nonce": 1326782646,
    "previousblockhash": "00000000000000101ada5ac7336bd8e75bef9b3e4c33af8ba29a11bb266e649d",
    "size": 3747,
    "time": 1753758417,
    "tx": [
      {
        "cbTx": {
          "bestCLHeightDiff": 0,
          "bestCLSignature": "875a6419e302cd2f18e7f339cd2d31aa63377c927afb4f0d5c941610def4a1adf50e3745a39985411019604d64ddec66101be4af1540984acd9a80d951ac87636d7a7e599526783529d4b22c48664d29dd26a9ed26a8a6922a93ce230f62d9b8",
          "creditPoolBalance": 18537.92328921,
          "height": 2312640,
          "merkleRootMNList": "0a8b154d008974ee287d0b19c4b748756bc032ef54ee3523179f2f4d3d8d049e",
          "merkleRootQuorums": "9b4c390187087a76225e136dc90a34db697494f50586ba2ca87c14b182133644",
          "version": 3
        },
        "extraPayload": "0300c04923009e048d3d4d2f9f172335ee54ef32c06b7548b7c4190b7d28ee7489004d158b0a44361382b1147ca82cba8605f5947469db340ac96d135e22767a088701394c9b00875a6419e302cd2f18e7f339cd2d31aa63377c927afb4f0d5c941610def4a1adf50e3745a39985411019604d64ddec66101be4af1540984acd9a80d951ac87636d7a7e599526783529d4b22c48664d29dd26a9ed26a8a6922a93ce230f62d9b8d91ca29eaf010000",
        "extraPayloadSize": 175,
        "hex": "03000500010000000000000000000000000000000000000000000000000000000000000000ffffffff2603c04923194d696e656420627920416e74506f6f6c209c000103debfa2630000c1a5b82d0100ffffffff03f122320300000000016ae5905305000000001976a9144cf0ebdf412bca2ef2582968bb15445192e1909b88acf23bd702000000001976a9140bc729447753bb2b0fbda9a555a30ca3aee7aecb88ac00000000af0300c04923009e048d3d4d2f9f172335ee54ef32c06b7548b7c4190b7d28ee7489004d158b0a44361382b1147ca82cba8605f5947469db340ac96d135e22767a088701394c9b00875a6419e302cd2f18e7f339cd2d31aa63377c927afb4f0d5c941610def4a1adf50e3745a39985411019604d64ddec66101be4af1540984acd9a80d951ac87636d7a7e599526783529d4b22c48664d29dd26a9ed26a8a6922a93ce230f62d9b8d91ca29eaf010000",
        "instantlock": true,
        "instantlock_internal": false,
        "locktime": 0,
        "size": 343,
        "txid": "be68a9d03e8f5200c74e01e726f796739d79fadf7bc479a5915d7732ed0ad7da",
        "type": 5,
        "version": 3,
        "vin": [
          {
            "coinbase": "03c04923194d696e656420627920416e74506f6f6c209c000103debfa2630000c1a5b82d0100",
            "sequence": 4294967295
          }
        ],
        "vout": [
          {
            "n": 0,
            "scriptPubKey": {
              "asm": "OP_RETURN",
              "desc": "raw(6a)#4mhr9ur5",
              "hex": "6a",
              "type": "nulldata"
            },
            "value": 0.53617393,
            "valueSat": 53617393
          },
          {
            "n": 1,
            "scriptPubKey": {
              "address": "XhhfoLrmAyATR4n1G7vmAh42krNv3Hkeuu",
              "asm": "OP_DUP OP_HASH160 4cf0ebdf412bca2ef2582968bb15445192e1909b OP_EQUALVERIFY OP_CHECKSIG",
              "desc": "addr(XhhfoLrmAyATR4n1G7vmAh42krNv3Hkeuu)#wau9hknp",
              "hex": "76a9144cf0ebdf412bca2ef2582968bb15445192e1909b88ac",
              "type": "pubkeyhash"
            },
            "value": 0.89362661,
            "valueSat": 89362661
          },
          {
            "n": 2,
            "scriptPubKey": {
              "address": "Xbm7rKtNtbyuHfPbFuQLvaSySt8MXBcZ8T",
              "asm": "OP_DUP OP_HASH160 0bc729447753bb2b0fbda9a555a30ca3aee7aecb OP_EQUALVERIFY OP_CHECKSIG",
              "desc": "addr(Xbm7rKtNtbyuHfPbFuQLvaSySt8MXBcZ8T)#87j55mtr",
              "hex": "76a9140bc729447753bb2b0fbda9a555a30ca3aee7aecb88ac",
              "type": "pubkeyhash"
            },
            "value": 0.47660018,
            "valueSat": 47660018
          }
        ]
      },
      {
        "fee": 0.0,
        "hex": "0200000006dc54062d4a964f85606414fa4b7df7b092ef91e3e3689a51c82718a45b478e0e000000006a4730440220567c162f0665615c0e9c90aeef55185cde12092a5bf8e22aaf12c6fc1a3a6258022033505402f2177cbfd73c26c9a80843659d1ccdef013a753aeaf2e61adac65b0b8121026587ac2cdf85665ea4f13e547511f680f71df271053618100bb86d83b1172cd8ffffffff1d6cbd4a1417def923f1f935a375fac936d76ae6f31c7b6bbf0830ec87bf8f9c020000006a47304402204db9120b0defc952f020fe816527aa36946a88a761538bc977c4dd104e0936bc02202279705e1f5c2dd886bdccc18144db0df9ec9430b6a6c2db55c5feb887b8f9d6812102d81d431ef88c1302158e09825b8943946876efe22ee6c1c8b32993e9296b6c92fffffffff0e761f91255b077a51544e0bf54588f17ca0fa424215813e321e755e16445b8010000006a473044022075e62141329df31be56ddc6830543a0d2f5af7949d2bb0c9a0138ffad7c90d0a02204067698e656c25fbacc4a172c30f1735f5fc016692174572418f60a2061939fd812102edf1974045807c27481ba9aef2e4441187bad3e1305f635e3cc9df9ac5623adffffffffff0e761f91255b077a51544e0bf54588f17ca0fa424215813e321e755e16445b8050000006a4730440220608428cb7dabb4478f3cf5b9fef614acf022d92cd09e6793703fd425e1bcdf3102205e6d4f736dd46624cbb08d592121160187918571a03b138ef0006705001915d48121024b65c3c552821d2a4eb513ced4fb913f4fbfacaae90a248a17a36421a287f3edffffffffd58dbefd78be6c55cae2398a5fb9f8e980a7d06a69813f1b6c4f7ef56b179bcd020000006a47304402203edf0171f9ec716d28c3011cdd45451bb3fb021de23b88d3eba00659077bce5c02207a4d796e3f76ee3eb27aca0cf22cbb62f6cb40ec830cbf3750e5af7d126616cf812103de4ab64b41529e1b6d00b50b593c08ddd3263d6d7878bb2d56f13777d8bdd06effffffffa7d5999df2f825046d8b8d07c0b03f7b2f6273d9b299e2290c66cce6585aedeb020000006a47304402200b43b77da3838b25ba99d2957b4cf3aa98996431d76b65c49d2a7eac7b8fb6230220102b6e6f9d772ada799e5c50083577e95fed016abe26c6de4544778d1e0c2755812103be7a627784b3864723efe994001f62ae1602b61f26686c567928ef0ca3ada7abffffffff0610f19a3b000000001976a9141dc9497be4ee70df7fe050c9b0de83f66507386f88ac10f19a3b000000001976a9144928862567e7d605120573b881c6f1c7de3da34688ac10f19a3b000000001976a91454fe5d616141be490d578a88a4a2211b4e1f871c88ac10f19a3b000000001976a9146b066300a9132531aabbe6f33e7bc7cd14636e3a88ac10f19a3b000000001976a9149c7469f4a6c3e85417e27661072d744b3321839288ac10f19a3b000000001976a914ebb2ac76bdf9e10cd9b49138faeffd4648b299f188ac00000000",
        "instantlock": true,
        "instantlock_internal": false,
        "locktime": 0,
        "size": 1096,
        "txid": "45a3d0efafac91a711020801d49f8bbc5a9e09f090d75accbf454d940fe653e2",
        "type": 0,
        "version": 2,
        "vin": [
          {
            "scriptSig": {
              "asm": "30440220567c162f0665615c0e9c90aeef55185cde12092a5bf8e22aaf12c6fc1a3a6258022033505402f2177cbfd73c26c9a80843659d1ccdef013a753aeaf2e61adac65b0b[ALL|ANYONECANPAY] 026587ac2cdf85665ea4f13e547511f680f71df271053618100bb86d83b1172cd8",
              "hex": "4730440220567c162f0665615c0e9c90aeef55185cde12092a5bf8e22aaf12c6fc1a3a6258022033505402f2177cbfd73c26c9a80843659d1ccdef013a753aeaf2e61adac65b0b8121026587ac2cdf85665ea4f13e547511f680f71df271053618100bb86d83b1172cd8"
            },
            "sequence": 4294967295,
            "txid": "0e8e475ba41827c8519a68e3e391ef92b0f77d4bfa146460854f964a2d0654dc",
            "vout": 0
          },
          {
            "scriptSig": {
              "asm": "304402204db9120b0defc952f020fe816527aa36946a88a761538bc977c4dd104e0936bc02202279705e1f5c2dd886bdccc18144db0df9ec9430b6a6c2db55c5feb887b8f9d6[ALL|ANYONECANPAY] 02d81d431ef88c1302158e09825b8943946876efe22ee6c1c8b32993e9296b6c92",
              "hex": "47304402204db9120b0defc952f020fe816527aa36946a88a761538bc977c4dd104e0936bc02202279705e1f5c2dd886bdccc18144db0df9ec9430b6a6c2db55c5feb887b8f9d6812102d81d431ef88c1302158e09825b8943946876efe22ee6c1c8b32993e9296b6c92"
            },
            "sequence": 4294967295,
            "txid": "9c8fbf87ec3008bf6b7b1cf3e66ad736c9fa75a335f9f123f9de17144abd6c1d",
            "vout": 2
          },
          {
            "scriptSig": {
              "asm": "3044022075e62141329df31be56ddc6830543a0d2f5af7949d2bb0c9a0138ffad7c90d0a02204067698e656c25fbacc4a172c30f1735f5fc016692174572418f60a2061939fd[ALL|ANYONECANPAY] 02edf1974045807c27481ba9aef2e4441187bad3e1305f635e3cc9df9ac5623adf",
              "hex": "473044022075e62141329df31be56ddc6830543a0d2f5af7949d2bb0c9a0138ffad7c90d0a02204067698e656c25fbacc4a172c30f1735f5fc016692174572418f60a2061939fd812102edf1974045807c27481ba9aef2e4441187bad3e1305f635e3cc9df9ac5623adf"
            },
            "sequence": 4294967295,
            "txid": "b84564e155e721e313582124a40fca178f5854bfe04415a577b05512f961e7f0",
            "vout": 1
          },
          {
            "scriptSig": {
              "asm": "30440220608428cb7dabb4478f3cf5b9fef614acf022d92cd09e6793703fd425e1bcdf3102205e6d4f736dd46624cbb08d592121160187918571a03b138ef0006705001915d4[ALL|ANYONECANPAY] 024b65c3c552821d2a4eb513ced4fb913f4fbfacaae90a248a17a36421a287f3ed",
              "hex": "4730440220608428cb7dabb4478f3cf5b9fef614acf022d92cd09e6793703fd425e1bcdf3102205e6d4f736dd46624cbb08d592121160187918571a03b138ef0006705001915d48121024b65c3c552821d2a4eb513ced4fb913f4fbfacaae90a248a17a36421a287f3ed"
            },
            "sequence": 4294967295,
            "txid": "b84564e155e721e313582124a40fca178f5854bfe04415a577b05512f961e7f0",
            "vout": 5
          },
          {
            "scriptSig": {
              "asm": "304402203edf0171f9ec716d28c3011cdd45451bb3fb021de23b88d3eba00659077bce5c02207a4d796e3f76ee3eb27aca0cf22cbb62f6cb40ec830cbf3750e5af7d126616cf[ALL|ANYONECANPAY] 03de4ab64b41529e1b6d00b50b593c08ddd3263d6d7878bb2d56f13777d8bdd06e",
              "hex": "47304402203edf0171f9ec716d28c3011cdd45451bb3fb021de23b88d3eba00659077bce5c02207a4d796e3f76ee3eb27aca0cf22cbb62f6cb40ec830cbf3750e5af7d126616cf812103de4ab64b41529e1b6d00b50b593c08ddd3263d6d7878bb2d56f13777d8bdd06e"
            },
            "sequence": 4294967295,
            "txid": "cd9b176bf57e4f6c1b3f81696ad0a780e9f8b95f8a39e2ca556cbe78fdbe8dd5",
            "vout": 2
          },
          {
            "scriptSig": {
              "asm": "304402200b43b77da3838b25ba99d2957b4cf3aa98996431d76b65c49d2a7eac7b8fb6230220102b6e6f9d772ada799e5c50083577e95fed016abe26c6de4544778d1e0c2755[ALL|ANYONECANPAY] 03be7a627784b3864723efe994001f62ae1602b61f26686c567928ef0ca3ada7ab",
              "hex": "47304402200b43b77da3838b25ba99d2957b4cf3aa98996431d76b65c49d2a7eac7b8fb6230220102b6e6f9d772ada799e5c50083577e95fed016abe26c6de4544778d1e0c2755812103be7a627784b3864723efe994001f62ae1602b61f26686c567928ef0ca3ada7ab"
            },
            "sequence": 4294967295,
            "txid": "ebed5a58e6cc660c29e299b2d973622f7b3fb0c0078d8b6d0425f8f29d99d5a7",
            "vout": 2
          }
        ],
        "vout": [
          {
            "n": 0,
            "scriptPubKey": {
              "address": "XdQLZV8GQCGib6YE4NPVXh1QMgELfUWi5W",
              "asm": "OP_DUP OP_HASH160 1dc9497be4ee70df7fe050c9b0de83f66507386f OP_EQUALVERIFY OP_CHECKSIG",
              "desc": "addr(XdQLZV8GQCGib6YE4NPVXh1QMgELfUWi5W)#a4daydyt",
              "hex": "76a9141dc9497be4ee70df7fe050c9b0de83f66507386f88ac",
              "type": "pubkeyhash"
            },
            "value": 10.0001,
            "valueSat": 1000010000
          },
          {
            "n": 1,
            "scriptPubKey": {
              "address": "XhMfhuzkzzXmSK7YdDN7VofkSCwz8Q1oyn",
              "asm": "OP_DUP OP_HASH160 4928862567e7d605120573b881c6f1c7de3da346 OP_EQUALVERIFY OP_CHECKSIG",
              "desc": "addr(XhMfhuzkzzXmSK7YdDN7VofkSCwz8Q1oyn)#27mxgt0e",
              "hex": "76a9144928862567e7d605120573b881c6f1c7de3da34688ac",
              "type": "pubkeyhash"
            },
            "value": 10.0001,
            "valueSat": 1000010000
          },
          {
            "n": 2,
            "scriptPubKey": {
              "address": "XiSFJwY2yB3BXsP9uhmVKDBcTZ8PPMdSWr",
              "asm": "OP_DUP OP_HASH160 54fe5d616141be490d578a88a4a2211b4e1f871c OP_EQUALVERIFY OP_CHECKSIG",
              "desc": "addr(XiSFJwY2yB3BXsP9uhmVKDBcTZ8PPMdSWr)#gx2nuwue",
              "hex": "76a91454fe5d616141be490d578a88a4a2211b4e1f871c88ac",
              "type": "pubkeyhash"
            },
            "value": 10.0001,
            "valueSat": 1000010000
          },
          {
            "n": 3,
            "scriptPubKey": {
              "address": "XkSjnY6me66DHGTWALxxk9BXH2kwJcD3PJ",
              "asm": "OP_DUP OP_HASH160 6b066300a9132531aabbe6f33e7bc7cd14636e3a OP_EQUALVERIFY OP_CHECKSIG",
              "desc": "addr(XkSjnY6me66DHGTWALxxk9BXH2kwJcD3PJ)#5u2up5sp",
              "hex": "76a9146b066300a9132531aabbe6f33e7bc7cd14636e3a88ac",
              "type": "pubkeyhash"
            },
            "value": 10.0001,
            "valueSat": 1000010000
          },
          {
            "n": 4,
            "scriptPubKey": {
              "address": "Xpx6hkudJgKaco8vD5DicqZik2QSe9Bxwb",
              "asm": "OP_DUP OP_HASH160 9c7469f4a6c3e85417e27661072d744b33218392 OP_EQUALVERIFY OP_CHECKSIG",
              "desc": "addr(Xpx6hkudJgKaco8vD5DicqZik2QSe9Bxwb)#hfcsf4y0",
              "hex": "76a9149c7469f4a6c3e85417e27661072d744b3321839288ac",
              "type": "pubkeyhash"
            },
            "value": 10.0001,
            "valueSat": 1000010000
          },
          {
            "n": 5,
            "scriptPubKey": {
              "address": "XxB6foJ8gS7cqkpQvn45BumrowNMSuP1ZW",
              "asm": "OP_DUP OP_HASH160 ebb2ac76bdf9e10cd9b49138faeffd4648b299f1 OP_EQUALVERIFY OP_CHECKSIG",
              "desc": "addr(XxB6foJ8gS7cqkpQvn45BumrowNMSuP1ZW)#9wd4hw09",
              "hex": "76a914ebb2ac76bdf9e10cd9b49138faeffd4648b299f188ac",
              "type": "pubkeyhash"
            },
            "value": 10.0001,
            "valueSat": 1000010000
          }
        ]
      },
      {
        "fee": 0.0,
        "hex": "020000000b80d704ac074a92dbbee56984c91e3bdfa7cffc412c4428ca25d6e2d93ee08810050000006a47304402203168c945861b46f513a59ed901fbd690494cc537df65e0b59b4034bb816d68ce02205f460ad9de05580c1e7342b480a02941469e211ab429a2ee4d27c9b2e6c417f5812103229f76deed076fed0e9669706544f98e6a7182d92c1373c6d4686545606e8d4bffffffff24369980339d6985ed3ead2ef669a9f2635c92366a9d17b4e83a0abbb2eb5815030000006a47304402206733318ad21e0d521202530557dcb36c3191620ab57030536f96d9a39a40318202204f87b6232a932c295f4cb3007754ff0f27817f6fefc813ed65857e2eb8d0c4278121038736cf4736fe4cfeb6fa31d8badd230942f0449f0cc9f279d156df0caff7bcb2ffffffff3766f4fec6390ea0f6662e25a800408ab03c25086ba808ccbdcf5cb5c2f0322d040000006a4730440220748d00c21b055401a1ca1772efc9eec9404c29da9ff3cd81080e0b1004512c6a022049c0531f1f347f8e68b264d329afb8bfc383e280896f45a1f3617c615cb786938121028e6e87f371e3210b64da5ad07aea0b309cb3407adcdba7b8c31c3eba2d48d4cdffffffff4502a0f4196807fca63e47be11894964a038d63c0f4e50012fb33c5b1e8d1534090000006a4730440220658777e34a57dbcc9108d585497974c7376c37f2eaa1ef67a81b99896779599d022033da3e52ebd3439f444ab82f4bdc01fae231096aee25fc7bdeda79787dab76d981210364054f9301e3b3660e041cc7832947f81e56e8248608dd844dee5274e3a59560ffffffffdec878ed9c4fef6adc26d026d1f57829a01ac20c5f614105a199ec53375abf6b030000006a47304402203782337c099879560d815ebeec9d2b8ca24920c8b6f77df3c09dd672d2399a5b0220473ba3f31dc8f303fc6cccbf427db571192bb0a7476199014c7bd5de8554920481210209e9ce66bbed059939bfdf6d2e7097aee7e5a01d2166e30d9c811d2255d8663effffffff392f8cd2177cc01f0f4975b536f8ddf0a2f8b34d9bac7e084d6d48759118a174000000006a47304402207beb7fd7c8d1e0380f2bf255687be6c3d7ecaa9821c27d3fe44a7967ae249882022025414923169edd98eb0050021581a8a91f106cd32dd32388057fe2c6ea1050ff8121029e4774a43f381d3c9bc7f08de628732874c0cb1a6480fc6b0a7e69795b7a3793ffffffffe1bfb3ab1ca955103fb34d1bda02650cd323a3c98a58992bc1c763c0a3e7d874030000006a47304402201419bc47e60f7bd85f915ff2c338b968165b94278ce7f1c26f264fa67636686c022026145923d928258192824a99f4a10d47705c96126b4b70f9a2709e197eb40fc281210319329ea5f0cf1c2214b3cb0d8e79dabe15ed5c54591eae0cc946ba30245c70d4ffffffffb067c7b48b1dade402a327dffd1a1fdeb0c3d3ca57001a6b9778289c2e035396000000006a47304402203965e2a53b92f0dde0d078d9f14e8d52cb865fbeebd2f28835433f73e9594a25022033aefdcffb746d14c4f8fba8cc42913857895af256d7c237e59f06b1a801e59f812102839c3fdb008523837129290a3bd0d74032e07dda2a1652170252adca05e4db62ffffffff1d6cbd4a1417def923f1f935a375fac936d76ae6f31c7b6bbf0830ec87bf8f9c000000006a473044022005711d5f6c44af196490fc4b4466eaa6b85985c1c08f30113c79a69b506db3e7022040b801e21a806f3376593c531e2c4c5cd295f7c25099cc82d3b9cd90e52b10498121031592702bc4d3df0ea5dfba96d2b898af29aad13dfea382c48d2a9fd2144246f0ffffffffaa1cb2a2d053814c24071834f66ecd53da10197306318fb017609d8be428d0d4030000006a47304402206bf1b07ca0d25459c8dbae65cae6d52de9a93588d4202a8b261aec4f6fcc38cd0220039bfaf6ee58cd4db578ec6d4d8b2e2038a75342dde8f3c12d8147360fb46c998121023f2ab7667df16b3f85da07a0f520544df2ef7d5aa1c04b3c0318a983214019beffffffffa7d5999df2f825046d8b8d07c0b03f7b2f6273d9b299e2290c66cce6585aedeb000000006a473044022070f8e2edab770f45b4be24fbc9a29581922785a72106a7baaa7658457600de67022037dbe96b6bc28e5e1cac9aff7274013b98cd3e7ae15bcd3dc9737da074432823812103b62861693ac3db22ce92b5ec6e9830344faa1401150ecc8dbdbd4494c0d01db5ffffffff0b10f19a3b000000001976a9140fb7e9db18e802f1868e5ffba0f4f2d265053cf988ac10f19a3b000000001976a91442ea333459a2583e46c0e543d3b68fc8e39bae1b88ac10f19a3b000000001976a91463fe92e80727ee65ac9858ca872128c3e23ee59588ac10f19a3b000000001976a9146852438cce252ffdb3aa1a4b90a0729c9ddb383688ac10f19a3b000000001976a9149aea91d8721369c15b50d397ec177cbe85a8c9af88ac10f19a3b000000001976a914b5131469a9ab9f8b9e752d226e29a42fcf7429be88ac10f19a3b000000001976a914dfe006f587c5169c7526aca48ac5f0b57162130d88ac10f19a3b000000001976a914e0923809f17b4079cd1ae1e84ca0225c1a8bc49388ac10f19a3b000000001976a914e3c283aa32bcf28bcd93a8753c050ba79896396788ac10f19a3b000000001976a914f07b1df1df1275f8bc295aa8f180d925fd47d0e588ac10f19a3b000000001976a914f8d1b2e58bcdf6dc2cff4cebc8c2cd12d80a246a88ac00000000",
        "instantlock": true,
        "instantlock_internal": false,
        "locktime": 0,
        "size": 2001,
        "txid": "cb26cbbe4d5d007ce739a4e50f904d1af0da72d3ef12412701057d24cfed8a1b",
        "type": 0,
        "version": 2,
        "vin": [
          {
            "scriptSig": {
              "asm": "304402203168c945861b46f513a59ed901fbd690494cc537df65e0b59b4034bb816d68ce02205f460ad9de05580c1e7342b480a02941469e211ab429a2ee4d27c9b2e6c417f5[ALL|ANYONECANPAY] 03229f76deed076fed0e9669706544f98e6a7182d92c1373c6d4686545606e8d4b",
              "hex": "47304402203168c945861b46f513a59ed901fbd690494cc537df65e0b59b4034bb816d68ce02205f460ad9de05580c1e7342b480a02941469e211ab429a2ee4d27c9b2e6c417f5812103229f76deed076fed0e9669706544f98e6a7182d92c1373c6d4686545606e8d4b"
            },
            "sequence": 4294967295,
            "txid": "1088e03ed9e2d625ca28442c41fccfa7df3b1ec98469e5bedb924a07ac04d780",
            "vout": 5
          },
          {
            "scriptSig": {
              "asm": "304402206733318ad21e0d521202530557dcb36c3191620ab57030536f96d9a39a40318202204f87b6232a932c295f4cb3007754ff0f27817f6fefc813ed65857e2eb8d0c427[ALL|ANYONECANPAY] 038736cf4736fe4cfeb6fa31d8badd230942f0449f0cc9f279d156df0caff7bcb2",
              "hex": "47304402206733318ad21e0d521202530557dcb36c3191620ab57030536f96d9a39a40318202204f87b6232a932c295f4cb3007754ff0f27817f6fefc813ed65857e2eb8d0c4278121038736cf4736fe4cfeb6fa31d8badd230942f0449f0cc9f279d156df0caff7bcb2"
            },
            "sequence": 4294967295,
            "txid": "1558ebb2bb0a3ae8b4179d6a36925c63f2a969f62ead3eed85699d3380993624",
            "vout": 3
          },
          {
            "scriptSig": {
              "asm": "30440220748d00c21b055401a1ca1772efc9eec9404c29da9ff3cd81080e0b1004512c6a022049c0531f1f347f8e68b264d329afb8bfc383e280896f45a1f3617c615cb78693[ALL|ANYONECANPAY] 028e6e87f371e3210b64da5ad07aea0b309cb3407adcdba7b8c31c3eba2d48d4cd",
              "hex": "4730440220748d00c21b055401a1ca1772efc9eec9404c29da9ff3cd81080e0b1004512c6a022049c0531f1f347f8e68b264d329afb8bfc383e280896f45a1f3617c615cb786938121028e6e87f371e3210b64da5ad07aea0b309cb3407adcdba7b8c31c3eba2d48d4cd"
            },
            "sequence": 4294967295,
            "txid": "2d32f0c2b55ccfbdcc08a86b08253cb08a4000a8252e66f6a00e39c6fef46637",
            "vout": 4
          },
          {
            "scriptSig": {
              "asm": "30440220658777e34a57dbcc9108d585497974c7376c37f2eaa1ef67a81b99896779599d022033da3e52ebd3439f444ab82f4bdc01fae231096aee25fc7bdeda79787dab76d9[ALL|ANYONECANPAY] 0364054f9301e3b3660e041cc7832947f81e56e8248608dd844dee5274e3a59560",
              "hex": "4730440220658777e34a57dbcc9108d585497974c7376c37f2eaa1ef67a81b99896779599d022033da3e52ebd3439f444ab82f4bdc01fae231096aee25fc7bdeda79787dab76d981210364054f9301e3b3660e041cc7832947f81e56e8248608dd844dee5274e3a59560"
            },
            "sequence": 4294967295,
            "txid": "34158d1e5b3cb32f01504e0f3cd638a064498911be473ea6fc076819f4a00245",
            "vout": 9
          },
          {
            "scriptSig": {
              "asm": "304402203782337c099879560d815ebeec9d2b8ca24920c8b6f77df3c09dd672d2399a5b0220473ba3f31dc8f303fc6cccbf427db571192bb0a7476199014c7bd5de85549204[ALL|ANYONECANPAY] 0209e9ce66bbed059939bfdf6d2e7097aee7e5a01d2166e30d9c811d2255d8663e",
              "hex": "47304402203782337c099879560d815ebeec9d2b8ca24920c8b6f77df3c09dd672d2399a5b0220473ba3f31dc8f303fc6cccbf427db571192bb0a7476199014c7bd5de8554920481210209e9ce66bbed059939bfdf6d2e7097aee7e5a01d2166e30d9c811d2255d8663e"
            },
            "sequence": 4294967295,
            "txid": "6bbf5a3753ec99a10541615f0cc21aa02978f5d126d026dc6aef4f9ced78c8de",
            "vout": 3
          },
          {
            "scriptSig": {
              "asm": "304402207beb7fd7c8d1e0380f2bf255687be6c3d7ecaa9821c27d3fe44a7967ae249882022025414923169edd98eb0050021581a8a91f106cd32dd32388057fe2c6ea1050ff[ALL|ANYONECANPAY] 029e4774a43f381d3c9bc7f08de628732874c0cb1a6480fc6b0a7e69795b7a3793",
              "hex": "47304402207beb7fd7c8d1e0380f2bf255687be6c3d7ecaa9821c27d3fe44a7967ae249882022025414923169edd98eb0050021581a8a91f106cd32dd32388057fe2c6ea1050ff8121029e4774a43f381d3c9bc7f08de628732874c0cb1a6480fc6b0a7e69795b7a3793"
            },
            "sequence": 4294967295,
            "txid": "74a1189175486d4d087eac9b4db3f8a2f0ddf836b575490f1fc07c17d28c2f39",
            "vout": 0
          },
          {
            "scriptSig": {
              "asm": "304402201419bc47e60f7bd85f915ff2c338b968165b94278ce7f1c26f264fa67636686c022026145923d928258192824a99f4a10d47705c96126b4b70f9a2709e197eb40fc2[ALL|ANYONECANPAY] 0319329ea5f0cf1c2214b3cb0d8e79dabe15ed5c54591eae0cc946ba30245c70d4",
              "hex": "47304402201419bc47e60f7bd85f915ff2c338b968165b94278ce7f1c26f264fa67636686c022026145923d928258192824a99f4a10d47705c96126b4b70f9a2709e197eb40fc281210319329ea5f0cf1c2214b3cb0d8e79dabe15ed5c54591eae0cc946ba30245c70d4"
            },
            "sequence": 4294967295,
            "txid": "74d8e7a3c063c7c12b99588ac9a323d30c6502da1b4db33f1055a91cabb3bfe1",
            "vout": 3
          },
          {
            "scriptSig": {
              "asm": "304402203965e2a53b92f0dde0d078d9f14e8d52cb865fbeebd2f28835433f73e9594a25022033aefdcffb746d14c4f8fba8cc42913857895af256d7c237e59f06b1a801e59f[ALL|ANYONECANPAY] 02839c3fdb008523837129290a3bd0d74032e07dda2a1652170252adca05e4db62",
              "hex": "47304402203965e2a53b92f0dde0d078d9f14e8d52cb865fbeebd2f28835433f73e9594a25022033aefdcffb746d14c4f8fba8cc42913857895af256d7c237e59f06b1a801e59f812102839c3fdb008523837129290a3bd0d74032e07dda2a1652170252adca05e4db62"
            },
            "sequence": 4294967295,
            "txid": "9653032e9c2878976b1a0057cad3c3b0de1f1afddf27a302e4ad1d8bb4c767b0",
            "vout": 0
          },
          {
            "scriptSig": {
              "asm": "3044022005711d5f6c44af196490fc4b4466eaa6b85985c1c08f30113c79a69b506db3e7022040b801e21a806f3376593c531e2c4c5cd295f7c25099cc82d3b9cd90e52b1049[ALL|ANYONECANPAY] 031592702bc4d3df0ea5dfba96d2b898af29aad13dfea382c48d2a9fd2144246f0",
              "hex": "473044022005711d5f6c44af196490fc4b4466eaa6b85985c1c08f30113c79a69b506db3e7022040b801e21a806f3376593c531e2c4c5cd295f7c25099cc82d3b9cd90e52b10498121031592702bc4d3df0ea5dfba96d2b898af29aad13dfea382c48d2a9fd2144246f0"
            },
            "sequence": 4294967295,
            "txid": "9c8fbf87ec3008bf6b7b1cf3e66ad736c9fa75a335f9f123f9de17144abd6c1d",
            "vout": 0
          },
          {
            "scriptSig": {
              "asm": "304402206bf1b07ca0d25459c8dbae65cae6d52de9a93588d4202a8b261aec4f6fcc38cd0220039bfaf6ee58cd4db578ec6d4d8b2e2038a75342dde8f3c12d8147360fb46c99[ALL|ANYONECANPAY] 023f2ab7667df16b3f85da07a0f520544df2ef7d5aa1c04b3c0318a983214019be",
              "hex": "47304402206bf1b07ca0d25459c8dbae65cae6d52de9a93588d4202a8b261aec4f6fcc38cd0220039bfaf6ee58cd4db578ec6d4d8b2e2038a75342dde8f3c12d8147360fb46c998121023f2ab7667df16b3f85da07a0f520544df2ef7d5aa1c04b3c0318a983214019be"
            },
            "sequence": 4294967295,
            "txid": "d4d028e48b9d6017b08f3106731910da53cd6ef6341807244c8153d0a2b21caa",
            "vout": 3
          },
          {
            "scriptSig": {
              "asm": "3044022070f8e2edab770f45b4be24fbc9a29581922785a72106a7baaa7658457600de67022037dbe96b6bc28e5e1cac9aff7274013b98cd3e7ae15bcd3dc9737da074432823[ALL|ANYONECANPAY] 03b62861693ac3db22ce92b5ec6e9830344faa1401150ecc8dbdbd4494c0d01db5",
              "hex": "473044022070f8e2edab770f45b4be24fbc9a29581922785a72106a7baaa7658457600de67022037dbe96b6bc28e5e1cac9aff7274013b98cd3e7ae15bcd3dc9737da074432823812103b62861693ac3db22ce92b5ec6e9830344faa1401150ecc8dbdbd4494c0d01db5"
            },
            "sequence": 4294967295,
            "txid": "ebed5a58e6cc660c29e299b2d973622f7b3fb0c0078d8b6d0425f8f29d99d5a7",
            "vout": 0
          }
        ],
        "vout": [
          {
            "n": 0,
            "scriptPubKey": {
              "address": "Xc7xHfWuYucUYzpQhNqVK9FjJTy2k61hRd",
              "asm": "OP_DUP OP_HASH160 0fb7e9db18e802f1868e5ffba0f4f2d265053cf9 OP_EQUALVERIFY OP_CHECKSIG",
              "desc": "addr(Xc7xHfWuYucUYzpQhNqVK9FjJTy2k61hRd)#vxjt4lzw",
              "hex": "76a9140fb7e9db18e802f1868e5ffba0f4f2d265053cf988ac",
              "type": "pubkeyhash"
            },
            "value": 10.0001,
            "valueSat": 1000010000
          },
          {
            "n": 1,
            "scriptPubKey": {
              "address": "XgnezR8FNThEN2bdgiFDrn2wBeunNeAbC3",
              "asm": "OP_DUP OP_HASH160 42ea333459a2583e46c0e543d3b68fc8e39bae1b OP_EQUALVERIFY OP_CHECKSIG",
              "desc": "addr(XgnezR8FNThEN2bdgiFDrn2wBeunNeAbC3)#kpp3x6ym",
              "hex": "76a91442ea333459a2583e46c0e543d3b68fc8e39bae1b88ac",
              "type": "pubkeyhash"
            },
            "value": 10.0001,
            "valueSat": 1000010000
          },
          {
            "n": 2,
            "scriptPubKey": {
              "address": "XjoZhM2S4HjzuXYddJr7Himbm4b5KSRC13",
              "asm": "OP_DUP OP_HASH160 63fe92e80727ee65ac9858ca872128c3e23ee595 OP_EQUALVERIFY OP_CHECKSIG",
              "desc": "addr(XjoZhM2S4HjzuXYddJr7Himbm4b5KSRC13)#l5lncha0",
              "hex": "76a91463fe92e80727ee65ac9858ca872128c3e23ee59588ac",
              "type": "pubkeyhash"
            },
            "value": 10.0001,
            "valueSat": 1000010000
          },
          {
            "n": 3,
            "scriptPubKey": {
              "address": "XkCSezowAaDj8YTZsFf55NKaNAjWtpiZ6j",
              "asm": "OP_DUP OP_HASH160 6852438cce252ffdb3aa1a4b90a0729c9ddb3836 OP_EQUALVERIFY OP_CHECKSIG",
              "desc": "addr(XkCSezowAaDj8YTZsFf55NKaNAjWtpiZ6j)#ruwt5lxw",
              "hex": "76a9146852438cce252ffdb3aa1a4b90a0729c9ddb383688ac",
              "type": "pubkeyhash"
            },
            "value": 10.0001,
            "valueSat": 1000010000
          },
          {
            "n": 4,
            "scriptPubKey": {
              "address": "Xpoxtz3weDgBiwNUh3vBE3vYXZGmf8mjmX",
              "asm": "OP_DUP OP_HASH160 9aea91d8721369c15b50d397ec177cbe85a8c9af OP_EQUALVERIFY OP_CHECKSIG",
              "desc": "addr(Xpoxtz3weDgBiwNUh3vBE3vYXZGmf8mjmX)#gser09mj",
              "hex": "76a9149aea91d8721369c15b50d397ec177cbe85a8c9af88ac",
              "type": "pubkeyhash"
            },
            "value": 10.0001,
            "valueSat": 1000010000
          },
          {
            "n": 5,
            "scriptPubKey": {
              "address": "XsCGzf8HVgX7enGsV3kQ3AdsrbwBinmXmY",
              "asm": "OP_DUP OP_HASH160 b5131469a9ab9f8b9e752d226e29a42fcf7429be OP_EQUALVERIFY OP_CHECKSIG",
              "desc": "addr(XsCGzf8HVgX7enGsV3kQ3AdsrbwBinmXmY)#pnsu325f",
              "hex": "76a914b5131469a9ab9f8b9e752d226e29a42fcf7429be88ac",
              "type": "pubkeyhash"
            },
            "value": 10.0001,
            "valueSat": 1000010000
          },
          {
            "n": 6,
            "scriptPubKey": {
              "address": "Xw6atiKhsCzJx354cHsu5WYKFHKv7FnVSc",
              "asm": "OP_DUP OP_HASH160 dfe006f587c5169c7526aca48ac5f0b57162130d OP_EQUALVERIFY OP_CHECKSIG",
              "desc": "addr(Xw6atiKhsCzJx354cHsu5WYKFHKv7FnVSc)#rnclkxq0",
              "hex": "76a914dfe006f587c5169c7526aca48ac5f0b57162130d88ac",
              "type": "pubkeyhash"
            },
            "value": 10.0001,
            "valueSat": 1000010000
          },
          {
            "n": 7,
            "scriptPubKey": {
              "address": "XwAGMh2MWP9ZhN3tYx7Dzrkp3f3ZUoQjZc",
              "asm": "OP_DUP OP_HASH160 e0923809f17b4079cd1ae1e84ca0225c1a8bc493 OP_EQUALVERIFY OP_CHECKSIG",
              "desc": "addr(XwAGMh2MWP9ZhN3tYx7Dzrkp3f3ZUoQjZc)#q72640cl",
              "hex": "76a914e0923809f17b4079cd1ae1e84ca0225c1a8bc49388ac",
              "type": "pubkeyhash"
            },
            "value": 10.0001,
            "valueSat": 1000010000
          },
          {
            "n": 8,
            "scriptPubKey": {
              "address": "XwT8Etc6ssnSHNWid9L4KWe5Cih5wmLbMw",
              "asm": "OP_DUP OP_HASH160 e3c283aa32bcf28bcd93a8753c050ba798963967 OP_EQUALVERIFY OP_CHECKSIG",
              "desc": "addr(XwT8Etc6ssnSHNWid9L4KWe5Cih5wmLbMw)#78kumf2m",
              "hex": "76a914e3c283aa32bcf28bcd93a8753c050ba79896396788ac",
              "type": "pubkeyhash"
            },
            "value": 10.0001,
            "valueSat": 1000010000
          },
          {
            "n": 9,
            "scriptPubKey": {
              "address": "XxcPVcL5pQsDoVyKgq7HXgRip4q7bzkXqD",
              "asm": "OP_DUP OP_HASH160 f07b1df1df1275f8bc295aa8f180d925fd47d0e5 OP_EQUALVERIFY OP_CHECKSIG",
              "desc": "addr(XxcPVcL5pQsDoVyKgq7HXgRip4q7bzkXqD)#aw92h6w5",
              "hex": "76a914f07b1df1df1275f8bc295aa8f180d925fd47d0e588ac",
              "type": "pubkeyhash"
            },
            "value": 10.0001,
            "valueSat": 1000010000
          },
          {
            "n": 10,
            "scriptPubKey": {
              "address": "XyNUcxRx9a7tUYgBBxm1D8KWSTaz9YQPHn",
              "asm": "OP_DUP OP_HASH160 f8d1b2e58bcdf6dc2cff4cebc8c2cd12d80a246a OP_EQUALVERIFY OP_CHECKSIG",
              "desc": "addr(XyNUcxRx9a7tUYgBBxm1D8KWSTaz9YQPHn)#svldvz7u",
              "hex": "76a914f8d1b2e58bcdf6dc2cff4cebc8c2cd12d80a246a88ac",
              "type": "pubkeyhash"
            },
            "value": 10.0001,
            "valueSat": 1000010000
          }
        ]
      },
      {
        "fee": 4.52e-06,
        "hex": "0200000001d2f0260fb78f2119c22bd462dd8b71ce1f3c28bb0c1e4050a4d04d07bf97c782010000006b483045022100e722c21a6c4556f3faf78ca7c00dcc0b951145a35345569fe0d6f52d102fc919022014c82a0b544fc7aaffaee6cd80d1bfc8842e51279502a3021d80734058db8880012103ce8128523ee2dcf8c46f085faf1ca2f8d64d46a30c6203cf57ef0ddb8eba33c1fdffffff0254995502000000001976a9149d2a9a7f737838a311cf3f7ac99dbfc639ad9eca88aca37c0d690f0000001976a91479ba46efc2fb13fe2b2cfe93d35a529606d5b82888ac00000000",
        "instantlock": true,
        "instantlock_internal": false,
        "locktime": 0,
        "size": 226,
        "txid": "8e81ee294c1e947df8731ae696ae458710eabe83def8ce18c4cf9822a22c1c5e",
        "type": 0,
        "version": 2,
        "vin": [
          {
            "scriptSig": {
              "asm": "3045022100e722c21a6c4556f3faf78ca7c00dcc0b951145a35345569fe0d6f52d102fc919022014c82a0b544fc7aaffaee6cd80d1bfc8842e51279502a3021d80734058db8880[ALL] 03ce8128523ee2dcf8c46f085faf1ca2f8d64d46a30c6203cf57ef0ddb8eba33c1",
              "hex": "483045022100e722c21a6c4556f3faf78ca7c00dcc0b951145a35345569fe0d6f52d102fc919022014c82a0b544fc7aaffaee6cd80d1bfc8842e51279502a3021d80734058db8880012103ce8128523ee2dcf8c46f085faf1ca2f8d64d46a30c6203cf57ef0ddb8eba33c1"
            },
            "sequence": 4294967293,
            "txid": "82c797bf074dd0a450401e0cbb283c1fce718bdd62d42bc219218fb70f26f0d2",
            "vout": 1
          }
        ],
        "vout": [
          {
            "n": 0,
            "scriptPubKey": {
              "address": "Xq1rxWnkHKUkNyHb4JJeu3gQAKm5mw3JgR",
              "asm": "OP_DUP OP_HASH160 9d2a9a7f737838a311cf3f7ac99dbfc639ad9eca OP_EQUALVERIFY OP_CHECKSIG",
              "desc": "addr(Xq1rxWnkHKUkNyHb4JJeu3gQAKm5mw3JgR)#qrrrcvvu",
              "hex": "76a9149d2a9a7f737838a311cf3f7ac99dbfc639ad9eca88ac",
              "type": "pubkeyhash"
            },
            "value": 0.39164244,
            "valueSat": 39164244
          },
          {
            "n": 1,
            "scriptPubKey": {
              "address": "XmnUkDyNozPdx4aYnsyKV6Z94B7EXaduJL",
              "asm": "OP_DUP OP_HASH160 79ba46efc2fb13fe2b2cfe93d35a529606d5b828 OP_EQUALVERIFY OP_CHECKSIG",
              "desc": "addr(XmnUkDyNozPdx4aYnsyKV6Z94B7EXaduJL)#ftmr5uj8",
              "hex": "76a91479ba46efc2fb13fe2b2cfe93d35a529606d5b82888ac",
              "type": "pubkeyhash"
            },
            "value": 661.87000995,
            "valueSat": 66187000995
          }
        ]
      }
    ],
    "version": 536870912,
    "versionHex": "20000000"
  },
  "height": 2312640
}