{
  "block_hash": "00000000000000119bd9e9a07bcefd359a14e107fc9483945f662d3c348fb40e",
  "block_hex": "00000020885ae086861d9a2f6f1a020fd6e40ac155c1080ff46bd1890200000000000000423efa5e9c61872f6bcc6d11606325a99ad4417b74f4b648059c2b5fe93e74c907825569fe6a23192a68b4990e03000500010000000000000000000000000000000000000000000000000000000000000000ffffffff270330972404078255690800002c41faa800000fe4b883e5bda9e7a59ee4bb99e9b1bc04f09f909f412c83b803455ea302000000001976a91464d4d4127bbce4b888bb4af080fa4de863b02b3f88acbbb2f70200000000016a1268f204000000001976a91494b683aba80588d3632f0939882784aff84ab4a188ac40f0fb1daf030030972400127698834513fd394c6304c70440d1f1a4988857c4b01394d71a1bf5a91f55e06edadb202d0017d087d6d62e160b5d00dfd031fe6769c7a414b93f0a2c1aec4f00a30ce596dd0a8bded38f71d64166d386c1afd82dbcd7e2f687db5b2a7e408cd5a318ceb4efbd71a907dee17a2358e3e90ec1559baab71535d9bd88cf5569058508cb6a9c80403f0ada4f0a0c147459d356340bab5f39a87b149e66e2126183989fa087670d0200000200000001d07f919aca86c6eff5897fe63463584f5221cde51cbf5c1346df69bb58d0e75b000000006a4730440220092900b80b4125e45f963e44d28a1ae9e595119a084af137bf23f9a4653007fa02207e7449820a21d66a0064013905af7a01745d5b35a0a24e6ce5d52a1fce06320e01210375e7b18ebe9a2f82f3e9ac4976e345d01c03cd118f25074a63cdb6f28be2d8f7ffffffff0110270000000000001976a914e41e1f64803340931e9d4f0ab76be533e783f61b88ac000000000100000001ecc9a64de6bd2e47a5c5d8625e45dbe8627b06fb3326f62b19540895903d16a6030000006a473044022018c4ba11ca13c1f13bd4dad93fdbb457d75732ce9ff21953eabfa41453e17b6b02200449925daa1cab2a557dc8b97fdcce06757ae7d7f34528e225817b38f0f96bb3012103cd388c9e6a64f84092885f2ae982edc08b25a10c6ede6ff2d0c9fa0a0b4e5b7bffffffff01e8030000000000001976a914db2a83809fa2ea71418e29f9806a5ced87d83c5b88ac000000000100000001ecc9a64de6bd2e47a5c5d8625e45dbe8627b06fb3326f62b19540895903d16a6070000006a47304402203c45f377f51f94ab5a520e7ca8f62c66c8fd6ed06eaf24719c12b63ad4f28a9b022014a4641a192c6f00d85c3f6100e5aec99d88a59973ec9d65b5218c41fb82d9c2012102721e84f8dadb9c24dcfffc7a8c811fae084aadd6dad0f95fd29e0f5b1f29cc37ffffffff01e8030000000000001976a914930b5e3f2fbce9fb7231223595a0d0851e872cb788ac000000000100000001ecc9a64de6bd2e47a5c5d8625e45dbe8627b06fb3326f62b19540895903d16a6020000006a47304402201d68149d7145ff15127758977b995051ed007cd447c880dcbb36208642d4c56502202d8b70174d5d541c77e1fda9754f907067aef86de9bacab06f6a57b428d0d1a8012103638d9baa941935cf02299c5fd951aec1b0d25b9163297b0c1389ed63efd654eeffffffff01e8030000000000001976a914a913fe7705b5ac388daaa2569cbf84f22d1971f188ac000000000100000001ecc9a64de6bd2e47a5c5d8625e45dbe8627b06fb3326f62b19540895903d16a6060000006a473044022019cf232ee0afeb42e1ec9fbbfa9ea171a97f3060bfea4b906c32e868eeaca3ff02207f3f2516457caeacc004927935ce5ff3e8d1d448ebb1ca32fa184a8c285483050121026f1e7935bb8a490239c74d93f6f1585cc5f3148aad7c0296330eb456aa1747d5ffffffff01e8030000000000001976a914f73bbd4264a5c7c521e49ba3e97d237040b461fa88ac000000000100000001ecc9a64de6bd2e47a5c5d8625e45dbe8627b06fb3326f62b19540895903d16a6080000006a47304402201ead9d22a3c94741ba4f63a14d81daf30cd53fd46e5a432644a9db1b4f9014bc02206fc081ba0e76d5af836000915bd530ced35a624a0d3454758386624499c8585e0121027eb5a2cab1fb980e314a234bbcef20e91702f9be4c8068a6b24cc1de9004b95effffffff01e8030000000000001976a9144777817ff7c005544b5e4560a510804492afabb588ac000000000100000001ecc9a64de6bd2e47a5c5d8625e45dbe8627b06fb3326f62b19540895903d16a6090000006b483045022100f1c3a612414ffbd8d27f0d6b8a801ee45ab41fdce4167aff522dc8bd6dbcb18b0220447e0d8d761fd714dc4f24e35ff109f8cb59069ead80cf421b7eeeb2c3c88ae1012102e57a9d05e590e2252b8c8660af2b06e42756e8c8c4863e68632310203d93e277ffffffff01e8030000000000001976a91420e040f5ccf031add7df12e7f82ef2e4d028193c88ac000000000100000001ecc9a64de6bd2e47a5c5d8625e45dbe8627b06fb3326f62b19540895903d16a6000000006b483045022100ff183858bbd9e57275f712c4fb9b0c4c5bc15c474d85a8b879d7a5236708c6ed022055dbe026f0246de24da17d6d419772d4043baebe9de60713d11db663e74b4ae201210345167233fb7793bc9df1bd0299c40509002efd4727174676dfab441d24a52bbcffffffff01e8030000000000001976a9147880cea1c0d480c96bf24602a27e740fb20c8cb388ac000000000100000001ecc9a64de6bd2e47a5c5d8625e45dbe8627b06fb3326f62b19540895903d16a6040000006b483045022100e28555a1addb41a12df062f5b154f95399d3279b3febabd4e9be730079dc55fc022041f8349d37efdd0d189eb26265d80cf8044444105fa1f9aa0c44769bf533743e0121029af2f53bc69b7325bc5abf89a5c2a1bfc8a8cd01e138b19dfb3bc03a2c0e6cc4ffffffff01e8030000000000001976a914096bd3a41d49864c4e8cac973c914b2263c59e2788ac000000000100000001ecc9a64de6bd2e47a5c5d8625e45dbe8627b06fb3326f62b19540895903d16a6050000006b483045022100bd485fbaad778ce0dc8a8420e45acc4645cc0d1dd0047af5eb53696ce1fd6300022038de8efd6a7fb3554f1f120712db96307585dc92a86fba636627bd6e4288698b012103dc46f14f93a31741dacf3a16f3cd30cd61ae7d209e623d1206975f16f8a715b5ffffffff01e8030000000000001976a9146fd86f75ac769025139552fd1f24442c0bbb630b88ac000000000100000001ecc9a64de6bd2e47a5c5d8625e45dbe8627b06fb3326f62b19540895903d16a6010000006b483045022100f624bce47698c75afd9df1aa79368b54d82d213fc354efeaea7fb665bf1f50fd0220129c5ce55a27b7747c259722e492a84f66b8415fa1bdd293efa2deeadcec2aea01210304518357f6cf8a4c6ba34218f745ccd625338c78ba94d53fcbd12e73afcfb3b6ffffffff01e8030000000000001976a914cd7a767f464c57ff75cd5ea62aeae04e68438fc888ac000000000100000001ecc9a64de6bd2e47a5c5d8625e45dbe8627b06fb3326f62b19540895903d16a60a0000006a47304402204fa3b75de4215670f9091635d955975551da012906c1770cb65bdec815dadc1e022046449a35a7dc9f1081aabeeae229b3fd05cee4fbb971c40c73c5fad213eeae1e012103d8d402c9d750c42602c6d208ac8e165364e074582cb77c353d9bf85da1d2ba4fffffffff07d0070000000000001976a91463ed8346bb5a1701e978199ad8c580a36623a65888acd0070000000000001976a9147657ff9f800cf14e0b701be36277968c6fc98bbf88acd0070000000000001976a914940013ec8a89f34673df1c80fbbdcf4b8bdfb11988ac70170000000000001976a91421d2e2b6df57813dc90d717b1eaec2e2e1c1c52688acd0070000000000001976a9146297bbc444745b329051a867061d591ef1700e8788acd0070000000000001976a914c1e954b581867cf551f91629e354b7d937973b9d88acf4d4b44c000000001976a9148b0a1c4b0ba251fe7d402417b7681550a00f383688ac00000000020000000111b2320e72472ea7a49d00e9cf5168402b2aaab49553f45ac8f32cb23291fcc5010000006a47304402200671b261cde2883a9543969ed52d504af87d0e7932a129576e64f37673f62a58022010ae200be870a6e2417bd0aa1852247efea6d882f839fee2d71710069bbb4c0e01210315d0905f133c9355cb1688ab3d79c9184b869ae8013afe5fc6ae137ebd993c8bfeffffff0217533a01000000001976a9149841ffdf037dd2760a352f39db010453b880f78088ac405c6008000000001976a914be189dac679be97512aa38f1da5df7c52e48129a88ac2d972400",
  "block_verbose": {
    "bits": "19236afe",
    "cbTx": {
      "bestCLHeightDiff": 0,
      "bestCLSignature": "a30ce596dd0a8bded38f71d64166d386c1afd82dbcd7e2f687db5b2a7e408cd5a318ceb4efbd71a907dee17a2358e3e90ec1559baab71535d9bd88cf5569058508cb6a9c80403f0ada4f0a0c147459d356340bab5f39a87b149e66e212618398",
      "creditPoolBalance": 22565.94772127,
      "height": 2398000,
      "merkleRootMNList": "e0551fa9f51b1ad79413b0c4578898a4f1d14004c704634c39fd134583987612",
      "merkleRootQuorums": "4fec1a2c0a3fb914a4c76967fe31d0df005d0b162ed6d687d017002d20dbda6e",
      "version": 3
    },
    "chainlock": true,
    "chainwork": "00000000000000000000000000000000000000000000b267a61f92ccc9e1cd51",
    "confirmations": 75135,
    "difficulty": 121263460.673959,
    "hash": "00000000000000119bd9e9a07bcefd359a14e107fc9483945f662d3c348fb40e",
    "height": 2398000,
    "mediantime": 1767211358,
    "merkleroot": "c9743ee95f2b9c0548b6f4747b41d49aa9256360116dcc6b2f87619c5efa3e42",
    "nTx": 14,
    "nextblockhash": "0000000000000017d50f84e4075a39a8192ac282c2a63ed0cbf4d41d791313f5",
    "nonce": 2578737194,
    "previousblockhash": "000000000000000289d16bf40f08c155c10ae4d60f021a6f2f9a1d8686e05a88",
    "size": 3151,
    "time": 1767211527,
    "tx": [
      {
        "cbTx": {
          "bestCLHeightDiff": 0,
          "bestCLSignature": "a30ce596dd0a8bded38f71d64166d386c1afd82dbcd7e2f687db5b2a7e408cd5a318ceb4efbd71a907dee17a2358e3e90ec1559baab71535d9bd88cf5569058508cb6a9c80403f0ada4f0a0c147459d356340bab5f39a87b149e66e212618398",
          "creditPoolBalance": 22565.94772127,
          "height": 2398000,
          "merkleRootMNList": "e0551fa9f51b1ad79413b0c4578898a4f1d14004c704634c39fd134583987612",
          "merkleRootQuorums": "4fec1a2c0a3fb914a4c76967fe31d0df005d0b162ed6d687d017002d20dbda6e",
          "version": 3
        },
        "extraPayload": "030030972400127698834513fd394c6304c70440d1f1a4988857c4b01394d71a1bf5a91f55e06edadb202d0017d087d6d62e160b5d00dfd031fe6769c7a414b93f0a2c1aec4f00a30ce596dd0a8bded38f71d64166d386c1afd82dbcd7e2f687db5b2a7e408cd5a318ceb4efbd71a907dee17a2358e3e90ec1559baab71535d9bd88cf5569058508cb6a9c80403f0ada4f0a0c147459d356340bab5f39a87b149e66e2126183989fa087670d020000",
        "extraPayloadSize": 175,
        "hex": "03000500010000000000000000000000000000000000000000000000000000000000000000ffffffff270330972404078255690800002c41faa800000fe4b883e5bda9e7a59ee4bb99e9b1bc04f09f909f412c83b803455ea302000000001976a91464d4d4127bbce4b888bb4af080fa4de863b02b3f88acbbb2f70200000000016a1268f204000000001976a91494b683aba80588d3632f0939882784aff84ab4a188ac40f0fb1daf030030972400127698834513fd394c6304c70440d1f1a4988857c4b01394d71a1bf5a91f55e06edadb202d0017d087d6d62e160b5d00dfd031fe6769c7a414b93f0a2c1aec4f00a30ce596dd0a8bded38f71d64166d386c1afd82dbcd7e2f687db5b2a7e408cd5a318ceb4efbd71a907dee17a2358e3e90ec1559baab71535d9bd88cf5569058508cb6a9c80403f0ada4f0a0c147459d356340bab5f39a87b149e66e2126183989fa087670d020000",
        "instantlock": true,
        "instantlock_internal": false,
        "locktime": 503050304,
        "size": 344,
        "txid": "99cb55a87e9ffed484f052bfa42e75eb550851fe2076f47289758d0a83daf339",
        "type": 5,
        "version": 3,
        "vin": [
          {
            "coinbase": "0330972404078255690800002c41faa800000fe4b883e5bda9e7a59ee4bb99e9b1bc04f09f909f",
            "sequence": 3095604289
          }
        ],
        "vout": [
          {
            "n": 0,
            "scriptPubKey": {
              "address": "XjszN1jZJthEoaQDhGthRkaHL9AqaG3Vzw",
              "asm": "OP_DUP OP_HASH160 64d4d4127bbce4b888bb4af080fa4de863b02b3f OP_EQUALVERIFY OP_CHECKSIG",
              "desc": "addr(XjszN1jZJthEoaQDhGthRkaHL9AqaG3Vzw)#95rz05kx",
              "hex": "76a91464d4d4127bbce4b888bb4af080fa4de863b02b3f88ac",
              "type": "pubkeyhash"
            },
            "value": 0.44260933,
            "valueSat": 44260933
          },
          {
            "n": 1,
            "scriptPubKey": {
              "asm": "OP_RETURN",
              "desc": "raw(6a)#4mhr9ur5",
              "hex": "6a",
              "type": "nulldata"
            },
            "value": 0.49787579,
            "valueSat": 49787579
          },
          {
            "n": 2,
            "scriptPubKey": {
              "address": "XpFAUxoQVYhEw4bzGmrVMoLXoCU6VWw8DC",
              "asm": "OP_DUP OP_HASH160 94b683aba80588d3632f0939882784aff84ab4a1 OP_EQUALVERIFY OP_CHECKSIG",
              "desc": "addr(XpFAUxoQVYhEw4bzGmrVMoLXoCU6VWw8DC)#h2gze98s",
              "hex": "76a91494b683aba80588d3632f0939882784aff84ab4a188ac",
              "type": "pubkeyhash"
            },
            "value": 0.82995218,
            "valueSat": 82995218
          }
        ]
      },
      {
        "fee": 0.0001,
        "hex": "0200000001d07f919aca86c6eff5897fe63463584f5221cde51cbf5c1346df69bb58d0e75b000000006a4730440220092900b80b4125e45f963e44d28a1ae9e595119a084af137bf23f9a4653007fa02207e7449820a21d66a0064013905af7a01745d5b35a0a24e6ce5d52a1fce06320e01210375e7b18ebe9a2f82f3e9ac4976e345d01c03cd118f25074a63cdb6f28be2d8f7ffffffff0110270000000000001976a914e41e1f64803340931e9d4f0ab76be533e783f61b88ac00000000",
        "instantlock": true,
        "instantlock_internal": false,
        "locktime": 0,
        "size": 191,
        "txid": "e4c4ab8a746c85721005d21eca97ff913b650e00a20a6c4fc9d3b4cc43d8d5dd",
        "type": 0,
        "version": 2,
        "vin": [
          {
            "scriptSig": {
              "asm": "30440220092900b80b4125e45f963e44d28a1ae9e595119a084af137bf23f9a4653007fa02207e7449820a21d66a0064013905af7a01745d5b35a0a24e6ce5d52a1fce06320e[ALL] 0375e7b18ebe9a2f82f3e9ac4976e345d01c03cd118f25074a63cdb6f28be2d8f7",
              "hex": "4730440220092900b80b4125e45f963e44d28a1ae9e595119a084af137bf23f9a4653007fa02207e7449820a21d66a0064013905af7a01745d5b35a0a24e6ce5d52a1fce06320e01210375e7b18ebe9a2f82f3e9ac4976e345d01c03cd118f25074a63cdb6f28be2d8f7"
            },
            "sequence": 4294967295,
            "txid": "5be7d058bb69df46135cbf1ce5cd21524f586334e67f89f5efc686ca9a917fd0",
            "vout": 0
          }
        ],
        "vout": [
          {
            "n": 0,
            "scriptPubKey": {
              "address": "XwV1ywv5wPXMVzWW7GhdJKroBUCPSU6Zxr",
              "asm": "OP_DUP OP_HASH160 e41e1f64803340931e9d4f0ab76be533e783f61b OP_EQUALVERIFY OP_CHECKSIG",
              "desc": "addr(XwV1ywv5wPXMVzWW7GhdJKroBUCPSU6Zxr)#2x2hk5up",
              "hex": "76a914e41e1f64803340931e9d4f0ab76be533e783f61b88ac",
              "type": "pubkeyhash"
            },
            "value": 0.0001,
            "valueSat": 10000
          }
        ]
      },
      {
        "fee": 1e-05,
        "hex": "0100000001ecc9a64de6bd2e47a5c5d8625e45dbe8627b06fb3326f62b19540895903d16a6030000006a473044022018c4ba11ca13c1f13bd4dad93fdbb457d75732ce9ff21953eabfa41453e17b6b02200449925daa1cab2a557dc8b97fdcce06757ae7d7f34528e225817b38f0f96bb3012103cd388c9e6a64f84092885f2ae982edc08b25a10c6ede6ff2d0c9fa0a0b4e5b7bffffffff01e8030000000000001976a914db2a83809fa2ea71418e29f9806a5ced87d83c5b88ac00000000",
        "instantlock": true,
        "instantlock_internal": false,
        "locktime": 0,
        "size": 191,
        "txid": "57ef4e22ed4a8c7438107fcc06b1688ae299762d1fd2d6fc4c0c3112cb61a32c",
        "type": 0,
        "version": 1,
        "vin": [
          {
            "scriptSig": {
              "asm": "3044022018c4ba11ca13c1f13bd4dad93fdbb457d75732ce9ff21953eabfa41453e17b6b02200449925daa1cab2a557dc8b97fdcce06757ae7d7f34528e225817b38f0f96bb3[ALL] 03cd388c9e6a64f84092885f2ae982edc08b25a10c6ede6ff2d0c9fa0a0b4e5b7b",
              "hex": "473044022018c4ba11ca13c1f13bd4dad93fdbb457d75732ce9ff21953eabfa41453e17b6b02200449925daa1cab2a557dc8b97fdcce06757ae7d7f34528e225817b38f0f96bb3012103cd388c9e6a64f84092885f2ae982edc08b25a10c6ede6ff2d0c9fa0a0b4e5b7b"
            },
            "sequence": 4294967295,
            "txid": "a6163d90950854192bf62633fb067b62e8db455e62d8c5a5472ebde64da6c9ec",
            "vout": 3
          }
        ],
        "vout": [
          {
            "n": 0,
            "scriptPubKey": {
              "address": "XvfgkAd19QK7QxCpKqJuuNgUZ2ApXiuNjP",
              "asm": "OP_DUP OP_HASH160 db2a83809fa2ea71418e29f9806a5ced87d83c5b OP_EQUALVERIFY OP_CHECKSIG",
              "desc": "addr(XvfgkAd19QK7QxCpKqJuuNgUZ2ApXiuNjP)#q5f2ushl",
              "hex": "76a914db2a83809fa2ea71418e29f9806a5ced87d83c5b88ac",
              "type": "pubkeyhash"
            },
            "value": 1e-05,
            "valueSat": 1000
          }
        ]
      },
      {
        "fee": 1e-05,
        "hex": "0100000001ecc9a64de6bd2e47a5c5d8625e45dbe8627b06fb3326f62b19540895903d16a6070000006a47304402203c45f377f51f94ab5a520e7ca8f62c66c8fd6ed06eaf24719c12b63ad4f28a9b022014a4641a192c6f00d85c3f6100e5aec99d88a59973ec9d65b5218c41fb82d9c2012102721e84f8dadb9c24dcfffc7a8c811fae084aadd6dad0f95fd29e0f5b1f29cc37ffffffff01e8030000000000001976a914930b5e3f2fbce9fb7231223595a0d0851e872cb788ac00000000",
        "instantlock": true,
        "instantlock_internal": false,
        "locktime": 0,
        "size": 191,
        "txid": "7ccd69823b094bfca439cdb506e7d051e6ca0717fd5bdce14405fe32cda69e61",
        "type": 0,
        "version": 1,
        "vin": [
          {
            "scriptSig": {
              "asm": "304402203c45f377f51f94ab5a520e7ca8f62c66c8fd6ed06eaf24719c12b63ad4f28a9b022014a4641a192c6f00d85c3f6100e5aec99d88a59973ec9d65b5218c41fb82d9c2[ALL] 02721e84f8dadb9c24dcfffc7a8c811fae084aadd6dad0f95fd29e0f5b1f29cc37",
              "hex": "47304402203c45f377f51f94ab5a520e7ca8f62c66c8fd6ed06eaf24719c12b63ad4f28a9b022014a4641a192c6f00d85c3f6100e5aec99d88a59973ec9d65b5218c41fb82d9c2012102721e84f8dadb9c24dcfffc7a8c811fae084aadd6dad0f95fd29e0f5b1f29cc37"
            },
            "sequence": 4294967295,
            "txid": "a6163d90950854192bf62633fb067b62e8db455e62d8c5a5472ebde64da6c9ec",
            "vout": 7
          }
        ],
        "vout": [
          {
            "n": 0,
            "scriptPubKey": {
              "address": "Xp6LnKqRh5xFemeZL6GKSDRiErDaqbBJXp",
              "asm": "OP_DUP OP_HASH160 930b5e3f2fbce9fb7231223595a0d0851e872cb7 OP_EQUALVERIFY OP_CHECKSIG",
              "desc": "addr(Xp6LnKqRh5xFemeZL6GKSDRiErDaqbBJXp)#wdx4595x",
              "hex": "76a914930b5e3f2fbce9fb7231223595a0d0851e872cb788ac",
              "type": "pubkeyhash"
            },
            "value": 1e-05,
            "valueSat": 1000
          }
        ]
      },
      {
        "fee": 1e-05,
        "hex": "0100000001ecc9a64de6bd2e47a5c5d8625e45dbe8627b06fb3326f62b19540895903d16a6020000006a47304402201d68149d7145ff15127758977b995051ed007cd447c880dcbb36208642d4c56502202d8b70174d5d541c77e1fda9754f907067aef86de9bacab06f6a57b428d0d1a8012103638d9baa941935cf02299c5fd951aec1b0d25b9163297b0c1389ed63efd654eeffffffff01e8030000000000001976a914a913fe7705b5ac388daaa2569cbf84f22d1971f188ac00000000",
        "instantlock": true,
        "instantlock_internal": false,
        "locktime": 0,
        "size": 191,
        "txid": "be6182e3a78f025f0b6ff16de78846a828cd85d36f9a16720ea032d5b0b58c6c",
        "type": 0,
        "version": 1,
        "vin": [
          {
            "scriptSig": {
              "asm": "304402201d68149d7145ff15127758977b995051ed007cd447c880dcbb36208642d4c56502202d8b70174d5d541c77e1fda9754f907067aef86de9bacab06f6a57b428d0d1a8[ALL] 03638d9baa941935cf02299c5fd951aec1b0d25b9163297b0c1389ed63efd654ee",
              "hex": "47304402201d68149d7145ff15127758977b995051ed007cd447c880dcbb36208642d4c56502202d8b70174d5d541c77e1fda9754f907067aef86de9bacab06f6a57b428d0d1a8012103638d9baa941935cf02299c5fd951aec1b0d25b9163297b0c1389ed63efd654ee"
            },
            "sequence": 4294967295,
            "txid": "a6163d90950854192bf62633fb067b62e8db455e62d8c5a5472ebde64da6c9ec",
            "vout": 2
          }
        ],
        "vout": [
          {
            "n": 0,
            "scriptPubKey": {
              "address": "Xr6qyt2MTLtuncSfqxKhFrDV2DYTbrvC5n",
              "asm": "OP_DUP OP_HASH160 a913fe7705b5ac388daaa2569cbf84f22d1971f1 OP_EQUALVERIFY OP_CHECKSIG",
              "desc": "addr(Xr6qyt2MTLtuncSfqxKhFrDV2DYTbrvC5n)#v7udts0t",
              "hex": "76a914a913fe7705b5ac388daaa2569cbf84f22d1971f188ac",
              "type": "pubkeyhash"
            },
            "value": 1e-05,
            "valueSat": 1000
          }
        ]
      },
      {
        "fee": 1e-05,
        "hex": "0100000001ecc9a64de6bd2e47a5c5d8625e45dbe8627b06fb3326f62b19540895903d16a6060000006a473044022019cf232ee0afeb42e1ec9fbbfa9ea171a97f3060bfea4b906c32e868eeaca3ff02207f3f2516457caeacc004927935ce5ff3e8d1d448ebb1ca32fa184a8c285483050121026f1e7935bb8a490239c74d93f6f1585cc5f3148aad7c0296330eb456aa1747d5ffffffff01e8030000000000001976a914f73bbd4264a5c7c521e49ba3e97d237040b461fa88ac00000000",
        "instantlock": true,
        "instantlock_internal": false,
        "locktime": 0,
        "size": 191,
        "txid": "589f4d5da3c867185bfd83df1c23da835802299f16dbcdbd277b9cb3870b4e87",
        "type": 0,
        "version": 1,
        "vin": [
          {
            "scriptSig": {
              "asm": "3044022019cf232ee0afeb42e1ec9fbbfa9ea171a97f3060bfea4b906c32e868eeaca3ff02207f3f2516457caeacc004927935ce5ff3e8d1d448ebb1ca32fa184a8c28548305[ALL] 026f1e7935bb8a490239c74d93f6f1585cc5f3148aad7c0296330eb456aa1747d5",
              "hex": "473044022019cf232ee0afeb42e1ec9fbbfa9ea171a97f3060bfea4b906c32e868eeaca3ff02207f3f2516457caeacc004927935ce5ff3e8d1d448ebb1ca32fa184a8c285483050121026f1e7935bb8a490239c74d93f6f1585cc5f3148aad7c0296330eb456aa1747d5"
            },
            "sequence": 4294967295,
            "txid": "a6163d90950854192bf62633fb067b62e8db455e62d8c5a5472ebde64da6c9ec",
            "vout": 6
          }
        ],
        "vout": [
          {
            "n": 0,
            "scriptPubKey": {
              "address": "XyE6JPqPmXyP542vQTzCuYYBfsw3kuRxTr",
              "asm": "OP_DUP OP_HASH160 f73bbd4264a5c7c521e49ba3e97d237040b461fa OP_EQUALVERIFY OP_CHECKSIG",
              "desc": "addr(XyE6JPqPmXyP542vQTzCuYYBfsw3kuRxTr)#pq77ks7c",
              "hex": "76a914f73bbd4264a5c7c521e49ba3e97d237040b461fa88ac",
              "type": "pubkeyhash"
            },
            "value": 1e-05,
            "valueSat": 1000
          }
        ]
      },
      {
        "fee": 1e-05,
        "hex": "0100000001ecc9a64de6bd2e47a5c5d8625e45dbe8627b06fb3326f62b19540895903d16a6080000006a47304402201ead9d22a3c94741ba4f63a14d81daf30cd53fd46e5a432644a9db1b4f9014bc02206fc081ba0e76d5af836000915bd530ced35a624a0d3454758386624499c8585e0121027eb5a2cab1fb980e314a234bbcef20e91702f9be4c8068a6b24cc1de9004b95effffffff01e8030000000000001976a9144777817ff7c005544b5e4560a510804492afabb588ac00000000",
        "instantlock": true,
        "instantlock_internal": false,
        "locktime": 0,
        "size": 191,
        "txid": "debc04c9fbc62e4d0b6a28013e17b3b43b2361a7f723f1cda3efca3873dab4f7",
        "type": 0,
        "version": 1,
        "vin": [
          {
            "scriptSig": {
              "asm": "304402201ead9d22a3c94741ba4f63a14d81daf30cd53fd46e5a432644a9db1b4f9014bc02206fc081ba0e76d5af836000915bd530ced35a624a0d3454758386624499c8585e[ALL] 027eb5a2cab1fb980e314a234bbcef20e91702f9be4c8068a6b24cc1de9004b95e",
              "hex": "47304402201ead9d22a3c94741ba4f63a14d81daf30cd53fd46e5a432644a9db1b4f9014bc02206fc081ba0e76d5af836000915bd530ced35a624a0d3454758386624499c8585e0121027eb5a2cab1fb980e314a234bbcef20e91702f9be4c8068a6b24cc1de9004b95e"
            },
            "sequence": 4294967295,
            "txid": "a6163d90950854192bf62633fb067b62e8db455e62d8c5a5472ebde64da6c9ec",
            "vout": 8
          }
        ],
        "vout": [
          {
            "n": 0,
            "scriptPubKey": {
              "address": "XhCiyHYaKHNqqi4syERLFM2NaMt6oeUiyU",
              "asm": "OP_DUP OP_HASH160 4777817ff7c005544b5e4560a510804492afabb5 OP_EQUALVERIFY OP_CHECKSIG",
              "desc": "addr(XhCiyHYaKHNqqi4syERLFM2NaMt6oeUiyU)#n5edtn2v",
              "hex": "76a9144777817ff7c005544b5e4560a510804492afabb588ac",
              "type": "pubkeyhash"
            },
            "value": 1e-05,
            "valueSat": 1000
          }
        ]
      },
      {
        "fee": 1e-05,
        "hex": "0100000001ecc9a64de6bd2e47a5c5d8625e45dbe8627b06fb3326f62b19540895903d16a6090000006b483045022100f1c3a612414ffbd8d27f0d6b8a801ee45ab41fdce4167aff522dc8bd6dbcb18b0220447e0d8d761fd714dc4f24e35ff109f8cb59069ead80cf421b7eeeb2c3c88ae1012102e57a9d05e590e2252b8c8660af2b06e42756e8c8c4863e68632310203d93e277ffffffff01e8030000000000001976a91420e040f5ccf031add7df12e7f82ef2e4d028193c88ac00000000",
        "instantlock": true,
        "instantlock_internal": false,
        "locktime": 0,
        "size": 192,
        "txid": "a5b6ec1d9df11bdb91ad161d9d56608e816cc69015f92acf6b9b1c0ee0d22d3d",
        "type": 0,
        "version": 1,
        "vin": [
          {
            "scriptSig": {
              "asm": "3045022100f1c3a612414ffbd8d27f0d6b8a801ee45ab41fdce4167aff522dc8bd6dbcb18b0220447e0d8d761fd714dc4f24e35ff109f8cb59069ead80cf421b7eeeb2c3c88ae1[ALL] 02e57a9d05e590e2252b8c8660af2b06e42756e8c8c4863e68632310203d93e277",
              "hex": "483045022100f1c3a612414ffbd8d27f0d6b8a801ee45ab41fdce4167aff522dc8bd6dbcb18b0220447e0d8d761fd714dc4f24e35ff109f8cb59069ead80cf421b7eeeb2c3c88ae1012102e57a9d05e590e2252b8c8660af2b06e42756e8c8c4863e68632310203d93e277"
            },
            "sequence": 4294967295,
            "txid": "a6163d90950854192bf62633fb067b62e8db455e62d8c5a5472ebde64da6c9ec",
            "vout": 9
          }
        ],
        "vout": [
          {
            "n": 0,
            "scriptPubKey": {
              "address": "Xdgg6pGZjGW73JepYhTtpHdVBY8v6jLeyt",
              "asm": "OP_DUP OP_HASH160 20e040f5ccf031add7df12e7f82ef2e4d028193c OP_EQUALVERIFY OP_CHECKSIG",
              "desc": "addr(Xdgg6pGZjGW73JepYhTtpHdVBY8v6jLeyt)#cmseun8s",
              "hex": "76a91420e040f5ccf031add7df12e7f82ef2e4d028193c88ac",
              "type": "pubkeyhash"
            },
            "value": 1e-05,
            "valueSat": 1000
          }
        ]
      },
      {
        "fee": 1e-05,
        "hex": "0100000001ecc9a64de6bd2e47a5c5d8625e45dbe8627b06fb3326f62b19540895903d16a6000000006b483045022100ff183858bbd9e57275f712c4fb9b0c4c5bc15c474d85a8b879d7a5236708c6ed022055dbe026f0246de24da17d6d419772d4043baebe9de60713d11db663e74b4ae201210345167233fb7793bc9df1bd0299c40509002efd4727174676dfab441d24a52bbcffffffff01e8030000000000001976a9147880cea1c0d480c96bf24602a27e740fb20c8cb388ac00000000",
        "instantlock": true,
        "instantlock_internal": false,
        "locktime": 0,
        "size": 192,
        "txid": "4b98528e33196d286e7279cedb0a91d9b334fc236ed712605e487cd83b2b3a53",
        "type": 0,
        "version": 1,
        "vin": [
          {
            "scriptSig": {
              "asm": "3045022100ff183858bbd9e57275f712c4fb9b0c4c5bc15c474d85a8b879d7a5236708c6ed022055dbe026f0246de24da17d6d419772d4043baebe9de60713d11db663e74b4ae2[ALL] 0345167233fb7793bc9df1bd0299c40509002efd4727174676dfab441d24a52bbc",
              "hex": "483045022100ff183858bbd9e57275f712c4fb9b0c4c5bc15c474d85a8b879d7a5236708c6ed022055dbe026f0246de24da17d6d419772d4043baebe9de60713d11db663e74b4ae201210345167233fb7793bc9df1bd0299c40509002efd4727174676dfab441d24a52bbc"
            },
            "sequence": 4294967295,
            "txid": "a6163d90950854192bf62633fb067b62e8db455e62d8c5a5472ebde64da6c9ec",
            "vout": 0
          }
        ],
        "vout": [
          {
            "n": 0,
            "scriptPubKey": {
              "address": "Xmg1Dx83GaNB1V9yL97ZadTc1bDpi1fXTq",
              "asm": "OP_DUP OP_HASH160 7880cea1c0d480c96bf24602a27e740fb20c8cb3 OP_EQUALVERIFY OP_CHECKSIG",
              "desc": "addr(Xmg1Dx83GaNB1V9yL97ZadTc1bDpi1fXTq)#jt3axyfk",
              "hex": "76a9147880cea1c0d480c96bf24602a27e740fb20c8cb388ac",
              "type": "pubkeyhash"
            },
            "value": 1e-05,
            "valueSat": 1000
          }
        ]
      },
      {
        "fee": 1e-05,
        "hex": "0100000001ecc9a64de6bd2e47a5c5d8625e45dbe8627b06fb3326f62b19540895903d16a6040000006b483045022100e28555a1addb41a12df062f5b154f95399d3279b3febabd4e9be730079dc55fc022041f8349d37efdd0d189eb26265d80cf8044444105fa1f9aa0c44769bf533743e0121029af2f53bc69b7325bc5abf89a5c2a1bfc8a8cd01e138b19dfb3bc03a2c0e6cc4ffffffff01e8030000000000001976a914096bd3a41d49864c4e8cac973c914b2263c59e2788ac00000000",
        "instantlock": true,
        "instantlock_internal": false,
        "locktime": 0,
        "size": 192,
        "txid": "a6e1b1a4c43c4604f24e6fe57b9568a9b5203dd89c60da8ad47d6db3c5ccf870",
        "type": 0,
        "version": 1,
        "vin": [
          {
            "scriptSig": {
              "asm": "3045022100e28555a1addb41a12df062f5b154f95399d3279b3febabd4e9be730079dc55fc022041f8349d37efdd0d189eb26265d80cf8044444105fa1f9aa0c44769bf533743e[ALL] 029af2f53bc69b7325bc5abf89a5c2a1bfc8a8cd01e138b19dfb3bc03a2c0e6cc4",
              "hex": "483045022100e28555a1addb41a12df062f5b154f95399d3279b3febabd4e9be730079dc55fc022041f8349d37efdd0d189eb26265d80cf8044444105fa1f9aa0c44769bf533743e0121029af2f53bc69b7325bc5abf89a5c2a1bfc8a8cd01e138b19dfb3bc03a2c0e6cc4"
            },
            "sequence": 4294967295,
            "txid": "a6163d90950854192bf62633fb067b62e8db455e62d8c5a5472ebde64da6c9ec",
            "vout": 4
          }
        ],
        "vout": [
          {
            "n": 0,
            "scriptPubKey": {
              "address": "XbYf5urBFh73ystCDM2jSBXXTGRxv7QpCM",
              "asm": "OP_DUP OP_HASH160 096bd3a41d49864c4e8cac973c914b2263c59e27 OP_EQUALVERIFY OP_CHECKSIG",
              "desc": "addr(XbYf5urBFh73ystCDM2jSBXXTGRxv7QpCM)#gnejjf2a",
              "hex": "76a914096bd3a41d49864c4e8cac973c914b2263c59e2788ac",
              "type": "pubkeyhash"
            },
            "value": 1e-05,
            "valueSat": 1000
          }
        ]
      },
      {
        "fee": 1e-05,
        "hex": "0100000001ecc9a64de6bd2e47a5c5d8625e45dbe8627b06fb3326f62b19540895903d16a6050000006b483045022100bd485fbaad778ce0dc8a8420e45acc4645cc0d1dd0047af5eb53696ce1fd6300022038de8efd6a7fb3554f1f120712db96307585dc92a86fba636627bd6e4288698b012103dc46f14f93a31741dacf3a16f3cd30cd61ae7d209e623d1206975f16f8a715b5ffffffff01e8030000000000001976a9146fd86f75ac769025139552fd1f24442c0bbb630b88ac00000000",
        "instantlock": true,
        "instantlock_internal": false,
        "locktime": 0,
        "size": 192,
        "txid": "7b2b93b2a54ba4dd3141b1dc9950c53e88bb7136c1e6521f0f3c34dcdd2c2b86",
        "type": 0,
        "version": 1,
        "vin": [
          {
            "scriptSig": {
              "asm": "3045022100bd485fbaad778ce0dc8a8420e45acc4645cc0d1dd0047af5eb53696ce1fd6300022038de8efd6a7fb3554f1f120712db96307585dc92a86fba636627bd6e4288698b[ALL] 03dc46f14f93a31741dacf3a16f3cd30cd61ae7d209e623d1206975f16f8a715b5",
              "hex": "483045022100bd485fbaad778ce0dc8a8420e45acc4645cc0d1dd0047af5eb53696ce1fd6300022038de8efd6a7fb3554f1f120712db96307585dc92a86fba636627bd6e4288698b012103dc46f14f93a31741dacf3a16f3cd30cd61ae7d209e623d1206975f16f8a715b5"
            },
            "sequence": 4294967295,
            "txid": "a6163d90950854192bf62633fb067b62e8db455e62d8c5a5472ebde64da6c9ec",
            "vout": 5
          }
        ],
        "vout": [
          {
            "n": 0,
            "scriptPubKey": {
              "address": "XktE7jwPrZwHJZBm28N2fc7YXbCCMfUTud",
              "asm": "OP_DUP OP_HASH160 6fd86f75ac769025139552fd1f24442c0bbb630b OP_EQUALVERIFY OP_CHECKSIG",
              "desc": "addr(XktE7jwPrZwHJZBm28N2fc7YXbCCMfUTud)#me4h8pr3",
              "hex": "76a9146fd86f75ac769025139552fd1f24442c0bbb630b88ac",
              "type": "pubkeyhash"
            },
            "value": 1e-05,
            "valueSat": 1000
          }
        ]
      },
      {
        "fee": 1e-05,
        "hex": "0100000001ecc9a64de6bd2e47a5c5d8625e45dbe8627b06fb3326f62b19540895903d16a6010000006b483045022100f624bce47698c75afd9df1aa79368b54d82d213fc354efeaea7fb665bf1f50fd0220129c5ce55a27b7747c259722e492a84f66b8415fa1bdd293efa2deeadcec2aea01210304518357f6cf8a4c6ba34218f745ccd625338c78ba94d53fcbd12e73afcfb3b6ffffffff01e8030000000000001976a914cd7a767f464c57ff75cd5ea62aeae04e68438fc888ac00000000",
        "instantlock": true,
        "instantlock_internal": false,
        "locktime": 0,
        "size": 192,
        "txid": "c1924194e843a2c424447e5b533ba5853fcc5cda43e2ae99a910f69f0c52d8bb",
        "type": 0,
        "version": 1,
        "vin": [
          {
            "scriptSig": {
              "asm": "3045022100f624bce47698c75afd9df1aa79368b54d82d213fc354efeaea7fb665bf1f50fd0220129c5ce55a27b7747c259722e492a84f66b8415fa1bdd293efa2deeadcec2aea[ALL] 0304518357f6cf8a4c6ba34218f745ccd625338c78ba94d53fcbd12e73afcfb3b6",
              "hex": "483045022100f624bce47698c75afd9df1aa79368b54d82d213fc354efeaea7fb665bf1f50fd0220129c5ce55a27b7747c259722e492a84f66b8415fa1bdd293efa2deeadcec2aea01210304518357f6cf8a4c6ba34218f745ccd625338c78ba94d53fcbd12e73afcfb3b6"
            },
            "sequence": 4294967295,
            "txid": "a6163d90950854192bf62633fb067b62e8db455e62d8c5a5472ebde64da6c9ec",
            "vout": 1
          }
        ],
        "vout": [
          {
            "n": 0,
            "scriptPubKey": {
              "address": "XuRK4Syp4fNb1vGna9CQyuac9d2HFGoVSV",
              "asm": "OP_DUP OP_HASH160 cd7a767f464c57ff75cd5ea62aeae04e68438fc8 OP_EQUALVERIFY OP_CHECKSIG",
              "desc": "addr(XuRK4Syp4fNb1vGna9CQyuac9d2HFGoVSV)#cxytrlnl",
              "hex": "76a914cd7a767f464c57ff75cd5ea62aeae04e68438fc888ac",
              "type": "pubkeyhash"
            },
            "value": 1e-05,
            "valueSat": 1000
          }
        ]
      },
      {
        "fee": 1e-05,
        "hex": "0100000001ecc9a64de6bd2e47a5c5d8625e45dbe8627b06fb3326f62b19540895903d16a60a0000006a47304402204fa3b75de4215670f9091635d955975551da012906c1770cb65bdec815dadc1e022046449a35a7dc9f1081aabeeae229b3fd05cee4fbb971c40c73c5fad213eeae1e012103d8d402c9d750c42602c6d208ac8e165364e074582cb77c353d9bf85da1d2ba4fffffffff07d0070000000000001976a91463ed8346bb5a1701e978199ad8c580a36623a65888acd0070000000000001976a9147657ff9f800cf14e0b701be36277968c6fc98bbf88acd0070000000000001976a914940013ec8a89f34673df1c80fbbdcf4b8bdfb11988ac70170000000000001976a91421d2e2b6df57813dc90d717b1eaec2e2e1c1c52688acd0070000000000001976a9146297bbc444745b329051a867061d591ef1700e8788acd0070000000000001976a914c1e954b581867cf551f91629e354b7d937973b9d88acf4d4b44c000000001976a9148b0a1c4b0ba251fe7d402417b7681550a00f383688ac00000000",
        "instantlock": true,
        "instantlock_internal": false,
        "locktime": 0,
        "size": 395,
        "txid": "e88585f8f55392e996101b96729e2fdf833c8894e82ddb4d18daa91c8a4539dc",
        "type": 0,
        "version": 1,
        "vin": [
          {
            "scriptSig": {
              "asm": "304402204fa3b75de4215670f9091635d955975551da012906c1770cb65bdec815dadc1e022046449a35a7dc9f1081aabeeae229b3fd05cee4fbb971c40c73c5fad213eeae1e[ALL] 03d8d402c9d750c42602c6d208ac8e165364e074582cb77c353d9bf85da1d2ba4f",
              "hex": "47304402204fa3b75de4215670f9091635d955975551da012906c1770cb65bdec815dadc1e022046449a35a7dc9f1081aabeeae229b3fd05cee4fbb971c40c73c5fad213eeae1e012103d8d402c9d750c42602c6d208ac8e165364e074582cb77c353d9bf85da1d2ba4f"
            },
            "sequence": 4294967295,
            "txid": "a6163d90950854192bf62633fb067b62e8db455e62d8c5a5472ebde64da6c9ec",
            "vout": 10
          }
        ],
        "vout": [
          {
            "n": 0,
            "scriptPubKey": {
              "address": "XjoDFvVsN1jEWkWFZ6UftMZ3WuTGsot1Az",
              "asm": "OP_DUP OP_HASH160 63ed8346bb5a1701e978199ad8c580a36623a658 OP_EQUALVERIFY OP_CHECKSIG",
              "desc": "addr(XjoDFvVsN1jEWkWFZ6UftMZ3WuTGsot1Az)#yqxevhrn",
              "hex": "76a91463ed8346bb5a1701e978199ad8c580a36623a65888ac",
              "type": "pubkeyhash"
            },
            "value": 2e-05,
            "valueSat": 2000
          },
          {
            "n": 1,
            "scriptPubKey": {
              "address": "XmUaz8k9hW1k9NNvndN7rn6iTdMvFhWDG9",
              "asm": "OP_DUP OP_HASH160 7657ff9f800cf14e0b701be36277968c6fc98bbf OP_EQUALVERIFY OP_CHECKSIG",
              "desc": "addr(XmUaz8k9hW1k9NNvndN7rn6iTdMvFhWDG9)#jjzax4zp",
              "hex": "76a9147657ff9f800cf14e0b701be36277968c6fc98bbf88ac",
              "type": "pubkeyhash"
            },
            "value": 2e-05,
            "valueSat": 2000
          },
          {
            "n": 2,
            "scriptPubKey": {
              "address": "XpBPw3y2LZyJzT9beb7hJ8RPzAx3kDVZrB",
              "asm": "OP_DUP OP_HASH160 940013ec8a89f34673df1c80fbbdcf4b8bdfb119 OP_EQUALVERIFY OP_CHECKSIG",
              "desc": "addr(XpBPw3y2LZyJzT9beb7hJ8RPzAx3kDVZrB)#epmv8yvp",
              "hex": "76a914940013ec8a89f34673df1c80fbbdcf4b8bdfb11988ac",
              "type": "pubkeyhash"
            },
            "value": 2e-05,
            "valueSat": 2000
          },
          {
            "n": 3,
            "scriptPubKey": {
              "address": "XdmgmAxKHgkDxx8CuG6bfU4u1j4MajizqG",
              "asm": "OP_DUP OP_HASH160 21d2e2b6df57813dc90d717b1eaec2e2e1c1c526 OP_EQUALVERIFY OP_CHECKSIG",
              "desc": "addr(XdmgmAxKHgkDxx8CuG6bfU4u1j4MajizqG)#ph06zjp0",
              "hex": "76a91421d2e2b6df57813dc90d717b1eaec2e2e1c1c52688ac",
              "type": "pubkeyhash"
            },
            "value": 6e-05,
            "valueSat": 6000
          },
          {
            "n": 4,
            "scriptPubKey": {
              "address": "Xjg9pgKT1PHi5UPmEvrouf4BcAi25cBfoR",
              "asm": "OP_DUP OP_HASH160 6297bbc444745b329051a867061d591ef1700e87 OP_EQUALVERIFY OP_CHECKSIG",
              "desc": "addr(Xjg9pgKT1PHi5UPmEvrouf4BcAi25cBfoR)#2w7tq6m8",
              "hex": "76a9146297bbc444745b329051a867061d591ef1700e8788ac",
              "type": "pubkeyhash"
            },
            "value": 2e-05,
            "valueSat": 2000
          },
          {
            "n": 5,
            "scriptPubKey": {
              "address": "XtN9mPfGioUASff5Ja7ZXUxcLR5Hs1RqCb",
              "asm": "OP_DUP OP_HASH160 c1e954b581867cf551f91629e354b7d937973b9d OP_EQUALVERIFY OP_CHECKSIG",
              "desc": "addr(XtN9mPfGioUASff5Ja7ZXUxcLR5Hs1RqCb)#t75q4376",
              "hex": "76a914c1e954b581867cf551f91629e354b7d937973b9d88ac",
              "type": "pubkeyhash"
            },
            "value": 2e-05,
            "valueSat": 2000
          },
          {
            "n": 6,
            "scriptPubKey": {
              "address": "XoN1sQgc78WEeVnBoT1WF8jx7vS7Xhsssd",
              "asm": "OP_DUP OP_HASH160 8b0a1c4b0ba251fe7d402417b7681550a00f3836 OP_EQUALVERIFY OP_CHECKSIG",
              "desc": "addr(XoN1sQgc78WEeVnBoT1WF8jx7vS7Xhsssd)#tnqp7zc2",
              "hex": "76a9148b0a1c4b0ba251fe7d402417b7681550a00f383688ac",
              "type": "pubkeyhash"
            },
            "value": 12.86919412,
            "valueSat": 1286919412
          }
        ]
      },
      {
        "fee": 2.25e-06,
        "hex": "020000000111b2320e72472ea7a49d00e9cf5168402b2aaab49553f45ac8f32cb23291fcc5010000006a47304402200671b261cde2883a9543969ed52d504af87d0e7932a129576e64f37673f62a58022010ae200be870a6e2417bd0aa1852247efea6d882f839fee2d71710069bbb4c0e01210315d0905f133c9355cb1688ab3d79c9184b869ae8013afe5fc6ae137ebd993c8bfeffffff0217533a01000000001976a9149841ffdf037dd2760a352f39db010453b880f78088ac405c6008000000001976a914be189dac679be97512aa38f1da5df7c52e48129a88ac2d972400",
        "instantlock": true,
        "instantlock_internal": false,
        "locktime": 2397997,
        "size": 225,
        "txid": "ce20f08deb01bff9426af03232d2198de0c676634a1b82e8fa1e59d246b7d72f",
        "type": 0,
        "version": 2,
        "vin": [
          {
            "scriptSig": {
              "asm": "304402200671b261cde2883a9543969ed52d504af87d0e7932a129576e64f37673f62a58022010ae200be870a6e2417bd0aa1852247efea6d882f839fee2d71710069bbb4c0e[ALL] 0315d0905f133c9355cb1688ab3d79c9184b869ae8013afe5fc6ae137ebd993c8b",
              "hex": "47304402200671b261cde2883a9543969ed52d504af87d0e7932a129576e64f37673f62a58022010ae200be870a6e2417bd0aa1852247efea6d882f839fee2d71710069bbb4c0e01210315d0905f133c9355cb1688ab3d79c9184b869ae8013afe5fc6ae137ebd993c8b"
            },
            "sequence": 4294967294,
            "txid": "c5fc9132b22cf3c85af45395b4aa2a2b406851cfe9009da4a72e47720e32b211",
            "vout": 1
          }
        ],
        "vout": [
          {
            "n": 0,
            "scriptPubKey": {
              "address": "XpZuc8uUnuFKhDUMJVgiSD1oTehSfQ6xsw",
              "asm": "OP_DUP OP_HASH160 9841ffdf037dd2760a352f39db010453b880f780 OP_EQUALVERIFY OP_CHECKSIG",
              "desc": "addr(XpZuc8uUnuFKhDUMJVgiSD1oTehSfQ6xsw)#3kjw5z7c",
              "hex": "76a9149841ffdf037dd2760a352f39db010453b880f78088ac",
              "type": "pubkeyhash"
            },
            "value": 0.20599575,
            "valueSat": 20599575
          },
          {
            "n": 1,
            "scriptPubKey": {
              "address": "Xt1yi3Yv4EfGwcaLT6GCW6TdZXAMCUejMD",
              "asm": "OP_DUP OP_HASH160 be189dac679be97512aa38f1da5df7c52e48129a OP_EQUALVERIFY OP_CHECKSIG",
              "desc": "addr(Xt1yi3Yv4EfGwcaLT6GCW6TdZXAMCUejMD)#evd8sk8h",
              "hex": "76a914be189dac679be97512aa38f1da5df7c52e48129a88ac",
              "type": "pubkeyhash"
            },
            "value": 1.405328,
            "valueSat": 140532800
          }
        ]
      }
    ],
    "version": 536870912,
    "versionHex": "20000000"
  },
  "height": 2398000
}