{
  "block_hash": "000000000000001cf942374b981f620dbb576100a144fa005dfc48ee5b719876",
  "block_hex": "000000205f1716abea049f6b0654b6ec9eed03de2ecda6924ff0c7c91500000000000000d295fed6cabf30c7b534e0767e6d233b2380af64a9c1fff72185c572a81ddf6db12a0a6a59812219a474272a0303000500010000000000000000000000000000000000000000000000000000000000000000ffffffff26039abc25194d696e656420627920416e74506f6f6c209c004700c364fd4e00000b475c810000ffffffff03bbb2f70200000000016afc2af204000000001976a9140f11e5f5e037209de054695dc2707de027f9685c88ace849a302000000001976a9140bc729447753bb2b0fbda9a555a30ca3aee7aecb88ac00000000af03009abc2500bc131e4bf167d798fd493a7ef95a6d34018a1763aefc64e0e6a2fbf4e17b1dd9a80ffb2f44f6ac040cc3792d9d1550f858e2f964bfc2fdac6eb3aa5ad492a92401b4313bf5e8f6a815a3d995e36c295dddb9f88127eed75255668b11b32db3beac5ff6aa85e9dfb3cd9a86d4463e664b5c144a8852e8af3f8a40fdefd9226c29aa15d0e2758e6f3f6271528d2c9f96871e59f8e9da1c58899f177f82d47cb7462a8cbf728c3202000003000600000000000000fd550101009abc2500030004badc8ccb09cc54427af58c4811e8adb9d26003d16950192f1c000000000000006400000000000000000000000000640000000000000000000000000000000000000000000000000000000000000000000000000000000000000000000000000000000000000000000000000000000000000000000000000000000000000000000000000000000000000000000000000000000000000000000000000000000000000000000000000000000000000000000000000000000000000000000000000000000000000000000000000000000000000000000000000000000000000000000000000000000000000000000000000000000000000000000000000000000000000000000000000000000000000000000000000000000000000000000000000000000000000000000000000000000000000000000000000000000000000000000000000000000000000000000100000002b612fb821fef1ff6b21a752bc76953be5d9d1b258dc3ef73ecc4ae09a8932826000000006b483045022100e6afa82aedeaaf3b913352cb88e6fa7f21cff517e91b8da0d7171057e80bc5760220605dbf6c9832bfa9662b0ac25fb742f734450cf9e31a90ecbb6c6986bd783472012102738044560dc9c43bc62065204db9f276416949714c0761d65d6283c38f0c4b7fffffffffa1072a26bd1757ad914797119c5adeb391a3842b64adb0dc2f9160a2d0bcee29010000006a47304402201664d5f15b4ee6660490ed2723145e937c59637ed9b22784059db072489ec09402200dfa914fb84350072f3f5f538e9eace3ec1ef0baaac963bcad0e21a7dd3b5e88012103f9c6e18da3f43a2988d1a95f459f0bf5250332ab5e1bc1b8f1981dc9b305a24dffffffff02bd442906000000001976a914d073416868acac629fe0de2c83ee5d9eee02f61c88ac2f2a560f000000001976a91400d0c1c034add50c45e9fcba1a49214d1eec21eb88ac00000000",
  "block_verbose": {
    "bits": "19228159",
    "cbTx": {
      "bestCLHeightDiff": 1,
      "bestCLSignature": "b4313bf5e8f6a815a3d995e36c295dddb9f88127eed75255668b11b32db3beac5ff6aa85e9dfb3cd9a86d4463e664b5c144a8852e8af3f8a40fdefd9226c29aa15d0e2758e6f3f6271528d2c9f96871e59f8e9da1c58899f177f82d47cb7462a",
      "creditPoolBalance": 24161.27950732,
      "height": 2473114,
      "merkleRootMNList": "d91d7be1f4fba2e6e064fcae63178a01346d5af97e3a49fd98d767f14b1e13bc",
      "merkleRootQuorums": "24a992d45aaab36eacfdc2bf64f9e258f850159d2d79c30c04acf6442ffb0fa8",
      "version": 3
    },
    "chainlock": true,
    "chainwork": "00000000000000000000000000000000000000000000b9243069730145e7f10a",
    "confirmations": 21,
    "difficulty": 124470913.3328469,
    "hash": "000000000000001cf942374b981f620dbb576100a144fa005dfc48ee5b719876",
    "height": 2473114,
    "mediantime": 1779050288,
    "merkleroot": "6ddf1da872c58521f7ffc1a964af80233b236d7e76e034b5c730bfcad6fe95d2",
    "nTx": 3,
    "nextblockhash": "0000000000000020642a2d1fb1295d6d2b3b0779ed2245ed9274268826230f8b",
    "nonce": 707228836,
    "previousblockhash": "0000000000000015c9c7f04f92a6cd2ede03ed9eecb654066b9f04eaab16175f",
    "size": 1151,
    "time": 1779051185,
    "tx": [
      {
        "cbTx": {
          "bestCLHeightDiff": 1,
          "bestCLSignature": "b4313bf5e8f6a815a3d995e36c295dddb9f88127eed75255668b11b32db3beac5ff6aa85e9dfb3cd9a86d4463e664b5c144a8852e8af3f8a40fdefd9226c29aa15d0e2758e6f3f6271528d2c9f96871e59f8e9da1c58899f177f82d47cb7462a",
          "creditPoolBalance": 24161.27950732,
          "height": 2473114,
          "merkleRootMNList": "d91d7be1f4fba2e6e064fcae63178a01346d5af97e3a49fd98d767f14b1e13bc",
          "merkleRootQuorums": "24a992d45aaab36eacfdc2bf64f9e258f850159d2d79c30c04acf6442ffb0fa8",
          "version": 3
        },
        "extraPayload": "03009abc2500bc131e4bf167d798fd493a7ef95a6d34018a1763aefc64e0e6a2fbf4e17b1dd9a80ffb2f44f6ac040cc3792d9d1550f858e2f964bfc2fdac6eb3aa5ad492a92401b4313bf5e8f6a815a3d995e36c295dddb9f88127eed75255668b11b32db3beac5ff6aa85e9dfb3cd9a86d4463e664b5c144a8852e8af3f8a40fdefd9226c29aa15d0e2758e6f3f6271528d2c9f96871e59f8e9da1c58899f177f82d47cb7462a8cbf728c32020000",
        "extraPayloadSize": 175,
        "hex": "03000500010000000000000000000000000000000000000000000000000000000000000000ffffffff26039abc25194d696e656420627920416e74506f6f6c209c004700c364fd4e00000b475c810000ffffffff03bbb2f70200000000016afc2af204000000001976a9140f11e5f5e037209de054695dc2707de027f9685c88ace849a302000000001976a9140bc729447753bb2b0fbda9a555a30ca3aee7aecb88ac00000000af03009abc2500bc131e4bf167d798fd493a7ef95a6d34018a1763aefc64e0e6a2fbf4e17b1dd9a80ffb2f44f6ac040cc3792d9d1550f858e2f964bfc2fdac6eb3aa5ad492a92401b4313bf5e8f6a815a3d995e36c295dddb9f88127eed75255668b11b32db3beac5ff6aa85e9dfb3cd9a86d4463e664b5c144a8852e8af3f8a40fdefd9226c29aa15d0e2758e6f3f6271528d2c9f96871e59f8e9da1c58899f177f82d47cb7462a8cbf728c32020000",
        "instantlock": true,
        "instantlock_internal": false,
        "locktime": 0,
        "size": 343,
        "txid": "230fd3e3840626337d1fe202d3ac4bbf38fe5c743d0971fad1b8537bff7d2202",
        "type": 5,
        "version": 3,
        "vin": [
          {
            "coinbase": "039abc25194d696e656420627920416e74506f6f6c209c004700c364fd4e00000b475c810000",
            "sequence": 4294967295
          }
        ],
        "vout": [
          {
            "n": 0,
            "scriptPubKey": {
              "asm": "OP_RETURN",
              "desc": "raw(6a)#4mhr9ur5",
              "hex": "6a",
              "type": "nulldata"
            },
            "value": 0.49787579,
            "valueSat": 49787579
          },
          {
            "n": 1,
            "scriptPubKey": {
              "address": "Xc4XQj2aRB1jvs5LNBtGw1tA4be6eP7awn",
              "asm": "OP_DUP OP_HASH160 0f11e5f5e037209de054695dc2707de027f9685c OP_EQUALVERIFY OP_CHECKSIG",
              "desc": "addr(Xc4XQj2aRB1jvs5LNBtGw1tA4be6eP7awn)#k9e4fhsm",
              "hex": "76a9140f11e5f5e037209de054695dc2707de027f9685c88ac",
              "type": "pubkeyhash"
            },
            "value": 0.8297958,
            "valueSat": 82979580
          },
          {
            "n": 2,
            "scriptPubKey": {
              "address": "Xbm7rKtNtbyuHfPbFuQLvaSySt8MXBcZ8T",
              "asm": "OP_DUP OP_HASH160 0bc729447753bb2b0fbda9a555a30ca3aee7aecb OP_EQUALVERIFY OP_CHECKSIG",
              "desc": "addr(Xbm7rKtNtbyuHfPbFuQLvaSySt8MXBcZ8T)#87j55mtr",
              "hex": "76a9140bc729447753bb2b0fbda9a555a30ca3aee7aecb88ac",
              "type": "pubkeyhash"
            },
            "value": 0.4425572,
            "valueSat": 44255720
          }
        ]
      },
      {
        "extraPayload": "01009abc2500030004badc8ccb09cc54427af58c4811e8adb9d26003d16950192f1c00000000000000640000000000000000000000000064000000000000000000000000000000000000000000000000000000000000000000000000000000000000000000000000000000000000000000000000000000000000000000000000000000000000000000000000000000000000000000000000000000000000000000000000000000000000000000000000000000000000000000000000000000000000000000000000000000000000000000000000000000000000000000000000000000000000000000000000000000000000000000000000000000000000000000000000000000000000000000000000000000000000000000000000000000000000000000000000000000000000000000000000000000000000000000000000000000000000000000000000000000000000000000",
        "extraPayloadSize": 341,
        "fee": 0.0,
        "hex": "03000600000000000000fd550101009abc2500030004badc8ccb09cc54427af58c4811e8adb9d26003d16950192f1c00000000000000640000000000000000000000000064000000000000000000000000000000000000000000000000000000000000000000000000000000000000000000000000000000000000000000000000000000000000000000000000000000000000000000000000000000000000000000000000000000000000000000000000000000000000000000000000000000000000000000000000000000000000000000000000000000000000000000000000000000000000000000000000000000000000000000000000000000000000000000000000000000000000000000000000000000000000000000000000000000000000000000000000000000000000000000000000000000000000000000000000000000000000000000000000000000000000000000000000000000000000000000",
        "instantlock": true,
        "instantlock_internal": false,
        "locktime": 0,
        "qcTx": {
          "commitment": {
            "llmqType": 4,
            "membersSig": "000000000000000000000000000000000000000000000000000000000000000000000000000000000000000000000000000000000000000000000000000000000000000000000000000000000000000000000000000000000000000000000000",
            "quorumHash": "000000000000001c2f195069d10360d2b9ade811488cf57a4254cc09cb8cdcba",
            "quorumIndex": 0,
            "quorumPublicKey": "000000000000000000000000000000000000000000000000000000000000000000000000000000000000000000000000",
            "quorumSig": "000000000000000000000000000000000000000000000000000000000000000000000000000000000000000000000000000000000000000000000000000000000000000000000000000000000000000000000000000000000000000000000000",
            "quorumVvecHash": "0000000000000000000000000000000000000000000000000000000000000000",
            "signers": "00000000000000000000000000",
            "signersCount": 0,
            "validMembers": "00000000000000000000000000",
            "validMembersCount": 0,
            "version": 3
          },
          "height": 2473114,
          "version": 1
        },
        "size": 354,
        "txid": "1e4647495930c41e019093e0c16c79bdf049cc72330ffe32f893101842078c15",
        "type": 6,
        "version": 3,
        "vin": [],
        "vout": []
      },
      {
        "fee": 3.74e-06,
        "hex": "0100000002b612fb821fef1ff6b21a752bc76953be5d9d1b258dc3ef73ecc4ae09a8932826000000006b483045022100e6afa82aedeaaf3b913352cb88e6fa7f21cff517e91b8da0d7171057e80bc5760220605dbf6c9832bfa9662b0ac25fb742f734450cf9e31a90ecbb6c6986bd783472012102738044560dc9c43bc62065204db9f276416949714c0761d65d6283c38f0c4b7fffffffffa1072a26bd1757ad914797119c5adeb391a3842b64adb0dc2f9160a2d0bcee29010000006a47304402201664d5f15b4ee6660490ed2723145e937c59637ed9b22784059db072489ec09402200dfa914fb84350072f3f5f538e9eace3ec1ef0baaac963bcad0e21a7dd3b5e88012103f9c6e18da3f43a2988d1a95f459f0bf5250332ab5e1bc1b8f1981dc9b305a24dffffffff02bd442906000000001976a914d073416868acac629fe0de2c83ee5d9eee02f61c88ac2f2a560f000000001976a91400d0c1c034add50c45e9fcba1a49214d1eec21eb88ac00000000",
        "instantlock": true,
        "instantlock_internal": true,
        "locktime": 0,
        "size": 373,
        "txid": "14a09cbe089057e9716a645dc179b2b0f096da88bed658e42b46897cd983d4cd",
        "type": 0,
        "version": 1,
        "vin": [
          {
            "scriptSig": {
              "asm": "3045022100e6afa82aedeaaf3b913352cb88e6fa7f21cff517e91b8da0d7171057e80bc5760220605dbf6c9832bfa9662b0ac25fb742f734450cf9e31a90ecbb6c6986bd783472[ALL] 02738044560dc9c43bc62065204db9f276416949714c0761d65d6283c38f0c4b7f",
              "hex": "483045022100e6afa82aedeaaf3b913352cb88e6fa7f21cff517e91b8da0d7171057e80bc5760220605dbf6c9832bfa9662b0ac25fb742f734450cf9e31a90ecbb6c6986bd783472012102738044560dc9c43bc62065204db9f276416949714c0761d65d6283c38f0c4b7f"
            },
            "sequence": 4294967295,
            "txid": "262893a809aec4ec73efc38d251b9d5dbe5369c72b751ab2f61fef1f82fb12b6",
            "vout": 0
          },
          {
            "scriptSig": {
              "asm": "304402201664d5f15b4ee6660490ed2723145e937c59637ed9b22784059db072489ec09402200dfa914fb84350072f3f5f538e9eace3ec1ef0baaac963bcad0e21a7dd3b5e88[ALL] 03f9c6e18da3f43a2988d1a95f459f0bf5250332ab5e1bc1b8f1981dc9b305a24d",
              "hex": "47304402201664d5f15b4ee6660490ed2723145e937c59637ed9b22784059db072489ec09402200dfa914fb84350072f3f5f538e9eace3ec1ef0baaac963bcad0e21a7dd3b5e88012103f9c6e18da3f43a2988d1a95f459f0bf5250332ab5e1bc1b8f1981dc9b305a24d"
            },
            "sequence": 4294967295,
            "txid": "29eebcd0a260912fdcb0ad642b84a391b3de5a9c11974791ad5717bd262a07a1",
            "vout": 1
          }
        ],
        "vout": [
          {
            "n": 0,
            "scriptPubKey": {
              "address": "Xuh2TFG5Y8VfQk35dvgDWq77eerodiauwc",
              "asm": "OP_DUP OP_HASH160 d073416868acac629fe0de2c83ee5d9eee02f61c OP_EQUALVERIFY OP_CHECKSIG",
              "desc": "addr(Xuh2TFG5Y8VfQk35dvgDWq77eerodiauwc)#7nsh063z",
              "hex": "76a914d073416868acac629fe0de2c83ee5d9eee02f61c88ac",
              "type": "pubkeyhash"
            },
            "value": 1.03367869,
            "valueSat": 103367869
          },
          {
            "n": 1,
            "scriptPubKey": {
              "address": "Xam9uw4cPRP5uR6UmXqhVkNH9W4TkLj7Y7",
              "asm": "OP_DUP OP_HASH160 00d0c1c034add50c45e9fcba1a49214d1eec21eb OP_EQUALVERIFY OP_CHECKSIG",
              "desc": "addr(Xam9uw4cPRP5uR6UmXqhVkNH9W4TkLj7Y7)#7yjuj5x4",
              "hex": "76a91400d0c1c034add50c45e9fcba1a49214d1eec21eb88ac",
              "type": "pubkeyhash"
            },
            "value": 2.57305135,
            "valueSat": 257305135
          }
        ]
      }
    ],
    "version": 536870912,
    "versionHex": "20000000"
  },
  "height": 2473114
}