{
  "block_hash": "000000000000000538438b344d98c2bfd7b5c278a10d6f38e1ef0ec6272dc7dd",
  "block_hex": "0000002038028854731dcf15e004aa48b13a5688495b545bdcd51d261c00000000000000ff75ba46126ae883b631d034d4145294afbed54b7e9950516674a8fcd603863e952e0a6a514a2319d869a4b90403000500010000000000000000000000000000000000000000000000000000000000000000ffffffff3103a0bc251b2f5669614254432f4d696e6564206279206173616e6f343237322f10f520c8001675079967fa61fff6850000ffffffff03c055a302000000001976a914bc89d6071dabc5b4494d303af761a052a5c70d5788acbbb2f70200000000016a834ef204000000001976a914de9dba210c212ddc7c3b3f1cfbbf7b1ecfac942c88ac00000000af0300a0bc2500bc131e4bf167d798fd493a7ef95a6d34018a1763aefc64e0e6a2fbf4e17b1dd96b16e4fb6644378003e15bd5ac330fafa7c12133070c93f1ef8f78d6049429e101b59bfc0cee1d222bbfbc98c0541be5593d618c646f0da8a5bc257d011d774e23934e05ab1dcfae671ec97d2fdb7ba665169bb6142b2ead9868ecd84539256c5cbf17026c12a92294390c4f76d82ebca45100d20ebcbd97174e32a0432dfb82d9eeef409e3202000002000000048f1fea97b3237a645476f67f876f09fe00dcd5f0589314f7b3b22b556a1cdf36680000006a47304402205d5f7ce1a8bba9edb25c8ee6079bcb32cc500a37499bf942ac9f85feb8a9d35302207597c0fe350efa748a12c72df9d291078869794d2a8cb615f052b9be481f1ff08121033120934107184c0a3c702ed133f60c95bc1140c580c2057928aa657ad2663370ffffffff8c322b21db98cc2a2c239d17ea954513ff4f0f722a3e2f7108b1e8825b5a4db5030000006a4730440220572b451c49f861964d9cf0f483ca1799c837ea97d20e0dcf5aabc5e901c66d3602201056d21c392531f02286211e4f27e82733325d02886e2cc4da59bed7fd7124c88121021a0ef319fb8b53190d071bebc04e7267c406c4542bd2dca77dfa7f9255f92e2cffffffff301a4f33ee6c81be47026d097ce8bc34c6df2b841f8f4c5eaa7f6d0d77957cb8040000006a473044022068ca10b94f10d269b8247d1118d7613afc6ba733811645d8cf4da94dd5ae168d0220415c0e924a9273f102045deec32235b8585fe7b2c18bfdfb7395a56623bd017b812103be3b736052fd901d9b7c1790c0dba83d6bdfeb38a445c1ee7c1e30f4fe2dbcfeffffffffb54c2fdd92b249388ce1ca4ef0fe7f6f8a25dc659ddde568d2ba77ab95ce01c4000000006a47304402205fcfe45c02d391941e9d726d59b6e6db3e30018286d332a8e8c6c99c4d8a025f02200d1814f605f6272fb072fc35530049192f02adafb5efde46cf755359ec74d73d812103b659da1c0bdb2f4efab1d03f3e57959fa843028c1678f8b5651c711ed224c44effffffff04e8e4f505000000001976a9140620c63beec80b8807e58dab1df7502247d67b9388ace8e4f505000000001976a9141bae48689f0545f7644a124623b8976a7ed5a72c88ace8e4f505000000001976a9142fdb6522b3247b4d742ff76bc01a07fda1b5f63d88ace8e4f505000000001976a914ec00cf9d3ac1237c9520d01339dd6ba248db299f88ac0000000001000000037f7e7894a148de95f6b85ab152dac315e22f478d5f38a0de76c08e6ed7438e6d000000006b48304502210088e4bcef41df57227dc2517fa148af911c83f38057c319c22b2bfc112eb454dd022022361c919caf298b1a744b0f9c2394f5dd62353cb69da786f3a1301037c5515c0121020002a4c42a53c1ffc7b4dc35c33a94d2842227173acb9093f093ddcf14cb214affffffff65978978670c0ab06041edbfabdc6e9f5582e376a2cfa1bc75cb0b5f6d1ea271010000006b483045022100a435265883e03b563e8e93e8593904a6e876ac1887dfc8c2ef3340f6105dd9fb02202f28bb3a94d661573a3e11d39a916190e0c1f95d2862a6adc360a26e43fc99420121020002a4c42a53c1ffc7b4dc35c33a94d2842227173acb9093f093ddcf14cb214affffffff2d8a7dccd92642fd7c5dbc288b1f387c191230d3f34dc341631c7b4160330217010000006b483045022100f715467f94aefe3bf9feae809b55ea0ea8125096c265945227334a260dfd799a0220635199dfd0e2b3f13f37e2fe3cd8cd01e1b1f5bbb0f15321fd34ceac0da65cc30121020002a4c42a53c1ffc7b4dc35c33a94d2842227173acb9093f093ddcf14cb214affffffff01bd2e4900000000001976a9143b933b341c7690f1a68d8b349c291da8f227255388ac000000000100000001ec6fb02ec973bac246b3238f9a7336d477aea5b64c665c2be020f6e5a41bd355000000006a47304402205f4a2db2392d0f290211df8dfe9141a75ae6d04b844f9783013d1397dedd59f402206833128072945e1c61bcf024eeabcadc4681d6b378477e21065ede379b608ec40121028dd0da26d435320e069b7577fe0c65f9f344900d70d9cae597adc5dec139a0adffffffff02287e4103000000001976a91402eab47a1cab19d0da2c1d8a4f7c218efb9a51b688ac46575112000000001976a91460ab37077ae6ff354995f3821ca333b3859da90d88ac00000000",
  "block_verbose": {
    "bits": "19234a51",
    "cbTx": {
      "bestCLHeightDiff": 1,
      "bestCLSignature": "b59bfc0cee1d222bbfbc98c0541be5593d618c646f0da8a5bc257d011d774e23934e05ab1dcfae671ec97d2fdb7ba665169bb6142b2ead9868ecd84539256c5cbf17026c12a92294390c4f76d82ebca45100d20ebcbd97174e32a0432dfb82d9",
      "creditPoolBalance": 24164.26676206,
      "height": 2473120,
      "merkleRootMNList": "d91d7be1f4fba2e6e064fcae63178a01346d5af97e3a49fd98d767f14b1e13bc",
      "merkleRootQuorums": "e1299404d6788feff1930c073321c1a7af0f33acd55be10380374466fbe4166b",
      "version": 3
    },
    "chainlock": true,
    "chainwork": "00000000000000000000000000000000000000000000b9245acb631950004c4b",
    "confirmations": 15,
    "difficulty": 121702052.6090233,
    "hash": "000000000000000538438b344d98c2bfd7b5c278a10d6f38e1ef0ec6272dc7dd",
    "height": 2473120,
    "mediantime": 1779051372,
    "merkleroot": "3e8603d6fca874665150997e4bd5beaf945214d434d031b683e86a1246ba75ff",
    "nTx": 4,
    "nextblockhash": "000000000000000e9433e04fba6729ae2d3b79dc963aea5c13ebecce069b2411",
    "nonce": 3114559960,
    "previousblockhash": "000000000000001c261dd5dc5b545b4988563ab148aa04e015cf1d7354880238",
    "size": 1882,
    "time": 1779052181,
    "tx": [
      {
        "cbTx": {
          "bestCLHeightDiff": 1,
          "bestCLSignature": "b59bfc0cee1d222bbfbc98c0541be5593d618c646f0da8a5bc257d011d774e23934e05ab1dcfae671ec97d2fdb7ba665169bb6142b2ead9868ecd84539256c5cbf17026c12a92294390c4f76d82ebca45100d20ebcbd97174e32a0432dfb82d9",
          "creditPoolBalance": 24164.26676206,
          "height": 2473120,
          "merkleRootMNList": "d91d7be1f4fba2e6e064fcae63178a01346d5af97e3a49fd98d767f14b1e13bc",
          "merkleRootQuorums": "e1299404d6788feff1930c073321c1a7af0f33acd55be10380374466fbe4166b",
          "version": 3
        },
        "extraPayload": "0300a0bc2500bc131e4bf167d798fd493a7ef95a6d34018a1763aefc64e0e6a2fbf4e17b1dd96b16e4fb6644378003e15bd5ac330fafa7c12133070c93f1ef8f78d6049429e101b59bfc0cee1d222bbfbc98c0541be5593d618c646f0da8a5bc257d011d774e23934e05ab1dcfae671ec97d2fdb7ba665169bb6142b2ead9868ecd84539256c5cbf17026c12a92294390c4f76d82ebca45100d20ebcbd97174e32a0432dfb82d9eeef409e32020000",
        "extraPayloadSize": 175,
        "hex": "03000500010000000000000000000000000000000000000000000000000000000000000000ffffffff3103a0bc251b2f5669614254432f4d696e6564206279206173616e6f343237322f10f520c8001675079967fa61fff6850000ffffffff03c055a302000000001976a914bc89d6071dabc5b4494d303af761a052a5c70d5788acbbb2f70200000000016a834ef204000000001976a914de9dba210c212ddc7c3b3f1cfbbf7b1ecfac942c88ac00000000af0300a0bc2500bc131e4bf167d798fd493a7ef95a6d34018a1763aefc64e0e6a2fbf4e17b1dd96b16e4fb6644378003e15bd5ac330fafa7c12133070c93f1ef8f78d6049429e101b59bfc0cee1d222bbfbc98c0541be5593d618c646f0da8a5bc257d011d774e23934e05ab1dcfae671ec97d2fdb7ba665169bb6142b2ead9868ecd84539256c5cbf17026c12a92294390c4f76d82ebca45100d20ebcbd97174e32a0432dfb82d9eeef409e32020000",
        "instantlock": true,
        "instantlock_internal": false,
        "locktime": 0,
        "size": 354,
        "txid": "a2b0f26671f1f2049ebf0e4066758cb6434148f6b77d5a2fe12694d9b3dc715a",
        "type": 5,
        "version": 3,
        "vin": [
          {
            "coinbase": "03a0bc251b2f5669614254432f4d696e6564206279206173616e6f343237322f10f520c8001675079967fa61fff6850000",
            "sequence": 4294967295
          }
        ],
        "vout": [
          {
            "n": 0,
            "scriptPubKey": {
              "address": "XssjzLKgsfATYGqTQmiJURQzeKdpL5K1k3",
              "asm": "OP_DUP OP_HASH160 bc89d6071dabc5b4494d303af761a052a5c70d57 OP_EQUALVERIFY OP_CHECKSIG",
              "desc": "addr(XssjzLKgsfATYGqTQmiJURQzeKdpL5K1k3)#sr65vy9j",
              "hex": "76a914bc89d6071dabc5b4494d303af761a052a5c70d5788ac",
              "type": "pubkeyhash"
            },
            "value": 0.44258752,
            "valueSat": 44258752
          },
          {
            "n": 1,
            "scriptPubKey": {
              "asm": "OP_RETURN",
              "desc": "raw(6a)#4mhr9ur5",
              "hex": "6a",
              "type": "nulldata"
            },
            "value": 0.49787579,
            "valueSat": 49787579
          },
          {
            "n": 2,
            "scriptPubKey": {
              "address": "XvyvnueaPcWGEZUgyUEUTQTTN44ifANX9T",
              "asm": "OP_DUP OP_HASH160 de9dba210c212ddc7c3b3f1cfbbf7b1ecfac942c OP_EQUALVERIFY OP_CHECKSIG",
              "desc": "addr(XvyvnueaPcWGEZUgyUEUTQTTN44ifANX9T)#3d8f984p",
              "hex": "76a914de9dba210c212ddc7c3b3f1cfbbf7b1ecfac942c88ac",
              "type": "pubkeyhash"
            },
            "value": 0.82988675,
            "valueSat": 82988675
          }
        ]
      },
      {
        "fee": 0.0,
        "hex": "02000000048f1fea97b3237a645476f67f876f09fe00dcd5f0589314f7b3b22b556a1cdf36680000006a47304402205d5f7ce1a8bba9edb25c8ee6079bcb32cc500a37499bf942ac9f85feb8a9d35302207597c0fe350efa748a12c72df9d291078869794d2a8cb615f052b9be481f1ff08121033120934107184c0a3c702ed133f60c95bc1140c580c2057928aa657ad2663370ffffffff8c322b21db98cc2a2c239d17ea954513ff4f0f722a3e2f7108b1e8825b5a4db5030000006a4730440220572b451c49f861964d9cf0f483ca1799c837ea97d20e0dcf5aabc5e901c66d3602201056d21c392531f02286211e4f27e82733325d02886e2cc4da59bed7fd7124c88121021a0ef319fb8b53190d071bebc04e7267c406c4542bd2dca77dfa7f9255f92e2cffffffff301a4f33ee6c81be47026d097ce8bc34c6df2b841f8f4c5eaa7f6d0d77957cb8040000006a473044022068ca10b94f10d269b8247d1118d7613afc6ba733811645d8cf4da94dd5ae168d0220415c0e924a9273f102045deec32235b8585fe7b2c18bfdfb7395a56623bd017b812103be3b736052fd901d9b7c1790c0dba83d6bdfeb38a445c1ee7c1e30f4fe2dbcfeffffffffb54c2fdd92b249388ce1ca4ef0fe7f6f8a25dc659ddde568d2ba77ab95ce01c4000000006a47304402205fcfe45c02d391941e9d726d59b6e6db3e30018286d332a8e8c6c99c4d8a025f02200d1814f605f6272fb072fc35530049192f02adafb5efde46cf755359ec74d73d812103b659da1c0bdb2f4efab1d03f3e57959fa843028c1678f8b5651c711ed224c44effffffff04e8e4f505000000001976a9140620c63beec80b8807e58dab1df7502247d67b9388ace8e4f505000000001976a9141bae48689f0545f7644a124623b8976a7ed5a72c88ace8e4f505000000001976a9142fdb6522b3247b4d742ff76bc01a07fda1b5f63d88ace8e4f505000000001976a914ec00cf9d3ac1237c9520d01339dd6ba248db299f88ac00000000",
        "instantlock": true,
        "instantlock_internal": true,
        "locktime": 0,
        "size": 734,
        "txid": "1c5958ab639772f3b68bca93d3b7f850faa4775d84c1c0845025792428cfc122",
        "type": 0,
        "version": 2,
        "vin": [
          {
            "scriptSig": {
              "asm": "304402205d5f7ce1a8bba9edb25c8ee6079bcb32cc500a37499bf942ac9f85feb8a9d35302207597c0fe350efa748a12c72df9d291078869794d2a8cb615f052b9be481f1ff0[ALL|ANYONECANPAY] 033120934107184c0a3c702ed133f60c95bc1140c580c2057928aa657ad2663370",
              "hex": "47304402205d5f7ce1a8bba9edb25c8ee6079bcb32cc500a37499bf942ac9f85feb8a9d35302207597c0fe350efa748a12c72df9d291078869794d2a8cb615f052b9be481f1ff08121033120934107184c0a3c702ed133f60c95bc1140c580c2057928aa657ad2663370"
            },
            "sequence": 4294967295,
            "txid": "36df1c6a552bb2b3f7149358f0d5dc00fe096f877ff67654647a23b397ea1f8f",
            "vout": 104
          },
          {
            "scriptSig": {
              "asm": "30440220572b451c49f861964d9cf0f483ca1799c837ea97d20e0dcf5aabc5e901c66d3602201056d21c392531f02286211e4f27e82733325d02886e2cc4da59bed7fd7124c8[ALL|ANYONECANPAY] 021a0ef319fb8b53190d071bebc04e7267c406c4542bd2dca77dfa7f9255f92e2c",
              "hex": "4730440220572b451c49f861964d9cf0f483ca1799c837ea97d20e0dcf5aabc5e901c66d3602201056d21c392531f02286211e4f27e82733325d02886e2cc4da59bed7fd7124c88121021a0ef319fb8b53190d071bebc04e7267c406c4542bd2dca77dfa7f9255f92e2c"
            },
            "sequence": 4294967295,
            "txid": "b54d5a5b82e8b108712f3e2a720f4fff134595ea179d232c2acc98db212b328c",
            "vout": 3
          },
          {
            "scriptSig": {
              "asm": "3044022068ca10b94f10d269b8247d1118d7613afc6ba733811645d8cf4da94dd5ae168d0220415c0e924a9273f102045deec32235b8585fe7b2c18bfdfb7395a56623bd017b[ALL|ANYONECANPAY] 03be3b736052fd901d9b7c1790c0dba83d6bdfeb38a445c1ee7c1e30f4fe2dbcfe",
              "hex": "473044022068ca10b94f10d269b8247d1118d7613afc6ba733811645d8cf4da94dd5ae168d0220415c0e924a9273f102045deec32235b8585fe7b2c18bfdfb7395a56623bd017b812103be3b736052fd901d9b7c1790c0dba83d6bdfeb38a445c1ee7c1e30f4fe2dbcfe"
            },
            "sequence": 4294967295,
            "txid": "b87c95770d6d7faa5e4c8f1f842bdfc634bce87c096d0247be816cee334f1a30",
            "vout": 4
          },
          {
            "scriptSig": {
              "asm": "304402205fcfe45c02d391941e9d726d59b6e6db3e30018286d332a8e8c6c99c4d8a025f02200d1814f605f6272fb072fc35530049192f02adafb5efde46cf755359ec74d73d[ALL|ANYONECANPAY] 03b659da1c0bdb2f4efab1d03f3e57959fa843028c1678f8b5651c711ed224c44e",
              "hex": "47304402205fcfe45c02d391941e9d726d59b6e6db3e30018286d332a8e8c6c99c4d8a025f02200d1814f605f6272fb072fc35530049192f02adafb5efde46cf755359ec74d73d812103b659da1c0bdb2f4efab1d03f3e57959fa843028c1678f8b5651c711ed224c44e"
            },
            "sequence": 4294967295,
            "txid": "c401ce95ab77bad268e5dd9d65dc258a6f7ffef04ecae18c3849b292dd2f4cb5",
            "vout": 0
          }
        ],
        "vout": [
          {
            "n": 0,
            "scriptPubKey": {
              "address": "XbFF9c7zPi7cWxa8Hb2RUD9BxDVp8Pr1eJ",
              "asm": "OP_DUP OP_HASH160 0620c63beec80b8807e58dab1df7502247d67b93 OP_EQUALVERIFY OP_CHECKSIG",
              "desc": "addr(XbFF9c7zPi7cWxa8Hb2RUD9BxDVp8Pr1eJ)#r2z7w7wn",
              "hex": "76a9140620c63beec80b8807e58dab1df7502247d67b9388ac",
              "type": "pubkeyhash"
            },
            "value": 1.00001,
            "valueSat": 100001000
          },
          {
            "n": 1,
            "scriptPubKey": {
              "address": "XdDCrpMnoXPJE7dgPBDiwK33kNpDyFh3JB",
              "asm": "OP_DUP OP_HASH160 1bae48689f0545f7644a124623b8976a7ed5a72c OP_EQUALVERIFY OP_CHECKSIG",
              "desc": "addr(XdDCrpMnoXPJE7dgPBDiwK33kNpDyFh3JB)#l97e7jqg",
              "hex": "76a9141bae48689f0545f7644a124623b8976a7ed5a72c88ac",
              "type": "pubkeyhash"
            },
            "value": 1.00001,
            "valueSat": 100001000
          },
          {
            "n": 2,
            "scriptPubKey": {
              "address": "Xf3tR75LDefdzMb7aX4fuQmcuqtFVXuQ4S",
              "asm": "OP_DUP OP_HASH160 2fdb6522b3247b4d742ff76bc01a07fda1b5f63d OP_EQUALVERIFY OP_CHECKSIG",
              "desc": "addr(Xf3tR75LDefdzMb7aX4fuQmcuqtFVXuQ4S)#fgq3q6uv",
              "hex": "76a9142fdb6522b3247b4d742ff76bc01a07fda1b5f63d88ac",
              "type": "pubkeyhash"
            },
            "value": 1.00001,
            "valueSat": 100001000
          },
          {
            "n": 3,
            "scriptPubKey": {
              "address": "XxCiGsf7ByRX2LQgw3nA4f7VtNMXUcigNt",
              "asm": "OP_DUP OP_HASH160 ec00cf9d3ac1237c9520d01339dd6ba248db299f OP_EQUALVERIFY OP_CHECKSIG",
              "desc": "addr(XxCiGsf7ByRX2LQgw3nA4f7VtNMXUcigNt)#klavfrvh",
              "hex": "76a914ec00cf9d3ac1237c9520d01339dd6ba248db299f88ac",
              "type": "pubkeyhash"
            },
            "value": 1.00001,
            "valueSat": 100001000
          }
        ]
      },
      {
        "fee": 0.00012275,
        "hex": "01000000037f7e7894a148de95f6b85ab152dac315e22f478d5f38a0de76c08e6ed7438e6d000000006b48304502210088e4bcef41df57227dc2517fa148af911c83f38057c319c22b2bfc112eb454dd022022361c919caf298b1a744b0f9c2394f5dd62353cb69da786f3a1301037c5515c0121020002a4c42a53c1ffc7b4dc35c33a94d2842227173acb9093f093ddcf14cb214affffffff65978978670c0ab06041edbfabdc6e9f5582e376a2cfa1bc75cb0b5f6d1ea271010000006b483045022100a435265883e03b563e8e93e8593904a6e876ac1887dfc8c2ef3340f6105dd9fb02202f28bb3a94d661573a3e11d39a916190e0c1f95d2862a6adc360a26e43fc99420121020002a4c42a53c1ffc7b4dc35c33a94d2842227173acb9093f093ddcf14cb214affffffff2d8a7dccd92642fd7c5dbc288b1f387c191230d3f34dc341631c7b4160330217010000006b483045022100f715467f94aefe3bf9feae809b55ea0ea8125096c265945227334a260dfd799a0220635199dfd0e2b3f13f37e2fe3cd8cd01e1b1f5bbb0f15321fd34ceac0da65cc30121020002a4c42a53c1ffc7b4dc35c33a94d2842227173acb9093f093ddcf14cb214affffffff01bd2e4900000000001976a9143b933b341c7690f1a68d8b349c291da8f227255388ac00000000",
        "instantlock": true,
        "instantlock_internal": true,
        "locktime": 0,
        "size": 488,
        "txid": "95b596292d8e85dd2654f1ba3ccea800b350f927b16b28c8d9ea63b8691b82cf",
        "type": 0,
        "version": 1,
        "vin": [
          {
            "scriptSig": {
              "asm": "304502210088e4bcef41df57227dc2517fa148af911c83f38057c319c22b2bfc112eb454dd022022361c919caf298b1a744b0f9c2394f5dd62353cb69da786f3a1301037c5515c[ALL] 020002a4c42a53c1ffc7b4dc35c33a94d2842227173acb9093f093ddcf14cb214a",
              "hex": "48304502210088e4bcef41df57227dc2517fa148af911c83f38057c319c22b2bfc112eb454dd022022361c919caf298b1a744b0f9c2394f5dd62353cb69da786f3a1301037c5515c0121020002a4c42a53c1ffc7b4dc35c33a94d2842227173acb9093f093ddcf14cb214a"
            },
            "sequence": 4294967295,
            "txid": "6d8e43d76e8ec076dea0385f8d472fe215c3da52b15ab8f695de48a194787e7f",
            "vout": 0
          },
          {
            "scriptSig": {
              "asm": "3045022100a435265883e03b563e8e93e8593904a6e876ac1887dfc8c2ef3340f6105dd9fb02202f28bb3a94d661573a3e11d39a916190e0c1f95d2862a6adc360a26e43fc9942[ALL] 020002a4c42a53c1ffc7b4dc35c33a94d2842227173acb9093f093ddcf14cb214a",
              "hex": "483045022100a435265883e03b563e8e93e8593904a6e876ac1887dfc8c2ef3340f6105dd9fb02202f28bb3a94d661573a3e11d39a916190e0c1f95d2862a6adc360a26e43fc99420121020002a4c42a53c1ffc7b4dc35c33a94d2842227173acb9093f093ddcf14cb214a"
            },
            "sequence": 4294967295,
            "txid": "71a21e6d5f0bcb75bca1cfa276e382559f6edcabbfed4160b00a0c6778899765",
            "vout": 1
          },
          {
            "scriptSig": {
              "asm": "3045022100f715467f94aefe3bf9feae809b55ea0ea8125096c265945227334a260dfd799a0220635199dfd0e2b3f13f37e2fe3cd8cd01e1b1f5bbb0f15321fd34ceac0da65cc3[ALL] 020002a4c42a53c1ffc7b4dc35c33a94d2842227173acb9093f093ddcf14cb214a",
              "hex": "483045022100f715467f94aefe3bf9feae809b55ea0ea8125096c265945227334a260dfd799a0220635199dfd0e2b3f13f37e2fe3cd8cd01e1b1f5bbb0f15321fd34ceac0da65cc30121020002a4c42a53c1ffc7b4dc35c33a94d2842227173acb9093f093ddcf14cb214a"
            },
            "sequence": 4294967295,
            "txid": "17023360417b1c6341c34df3d33012197c381f8b28bc5d7cfd4226d9cc7d8a2d",
            "vout": 1
          }
        ],
        "vout": [
          {
            "n": 0,
            "scriptPubKey": {
              "address": "Xg7r5NwFY5iMGEnxCqRBu41M6Wo3DJCM4L",
              "asm": "OP_DUP OP_HASH160 3b933b341c7690f1a68d8b349c291da8f2272553 OP_EQUALVERIFY OP_CHECKSIG",
              "desc": "addr(Xg7r5NwFY5iMGEnxCqRBu41M6Wo3DJCM4L)#hc4plz49",
              "hex": "76a9143b933b341c7690f1a68d8b349c291da8f227255388ac",
              "type": "pubkeyhash"
            },
            "value": 0.04796093,
            "valueSat": 4796093
          }
        ]
      },
      {
        "fee": 2.26e-06,
        "hex": "0100000001ec6fb02ec973bac246b3238f9a7336d477aea5b64c665c2be020f6e5a41bd355000000006a47304402205f4a2db2392d0f290211df8dfe9141a75ae6d04b844f9783013d1397dedd59f402206833128072945e1c61bcf024eeabcadc4681d6b378477e21065ede379b608ec40121028dd0da26d435320e069b7577fe0c65f9f344900d70d9cae597adc5dec139a0adffffffff02287e4103000000001976a91402eab47a1cab19d0da2c1d8a4f7c218efb9a51b688ac46575112000000001976a91460ab37077ae6ff354995f3821ca333b3859da90d88ac00000000",
        "instantlock": true,
        "instantlock_internal": true,
        "locktime": 0,
        "size": 225,
        "txid": "38a6b2c34a67b814c7dbc402928a9546e1fcf17de3cc6e49a84588cabaa1c753",
        "type": 0,
        "version": 1,
        "vin": [
          {
            "scriptSig": {
              "asm": "304402205f4a2db2392d0f290211df8dfe9141a75ae6d04b844f9783013d1397dedd59f402206833128072945e1c61bcf024eeabcadc4681d6b378477e21065ede379b608ec4[ALL] 028dd0da26d435320e069b7577fe0c65f9f344900d70d9cae597adc5dec139a0ad",
              "hex": "47304402205f4a2db2392d0f290211df8dfe9141a75ae6d04b844f9783013d1397dedd59f402206833128072945e1c61bcf024eeabcadc4681d6b378477e21065ede379b608ec40121028dd0da26d435320e069b7577fe0c65f9f344900d70d9cae597adc5dec139a0ad"
            },
            "sequence": 4294967295,
            "txid": "55d31ba4e5f620e02b5c664cb6a5ae77d436739a8f23b346c2ba73c92eb06fec",
            "vout": 0
          }
        ],
        "vout": [
          {
            "n": 0,
            "scriptPubKey": {
              "address": "XaxGME3AieDqNtFJ2r7FaD4E8RaxwrHTRT",
              "asm": "OP_DUP OP_HASH160 02eab47a1cab19d0da2c1d8a4f7c218efb9a51b6 OP_EQUALVERIFY OP_CHECKSIG",
              "desc": "addr(XaxGME3AieDqNtFJ2r7FaD4E8RaxwrHTRT)#njqd6vax",
              "hex": "76a91402eab47a1cab19d0da2c1d8a4f7c218efb9a51b688ac",
              "type": "pubkeyhash"
            },
            "value": 0.54623784,
            "valueSat": 54623784
          },
          {
            "n": 1,
            "scriptPubKey": {
              "address": "XjVyotkLfTEkwDcQQVkBcUnpUbSufQAgao",
              "asm": "OP_DUP OP_HASH160 60ab37077ae6ff354995f3821ca333b3859da90d OP_EQUALVERIFY OP_CHECKSIG",
              "desc": "addr(XjVyotkLfTEkwDcQQVkBcUnpUbSufQAgao)#ejsk466l",
              "hex": "76a91460ab37077ae6ff354995f3821ca333b3859da90d88ac",
              "type": "pubkeyhash"
            },
            "value": 3.07320646,
            "valueSat": 307320646
          }
        ]
      }
    ],
    "version": 536870912,
    "versionHex": "20000000"
  },
  "height": 2473120
}